{
  "abi": [
    {
      "anonymous": false,
      "inputs": [
        {
          "indexed": true,
          "internalType": "address",
          "name": "owner",
          "type": "address"
        },
        {
          "indexed": true,
          "internalType": "address",
          "name": "approved",
          "type": "address"
        },
        {
          "indexed": true,
          "internalType": "uint256",
          "name": "tokenId",
          "type": "uint256"
        }
      ],
      "name": "Approval",
      "type": "event"
    },
    {
      "anonymous": false,
      "inputs": [
        {
          "indexed": true,
          "internalType": "address",
          "name": "owner",
          "type": "address"
        },
        {
          "indexed": true,
          "internalType": "address",
          "name": "operator",
          "type": "address"
        },
        {
          "indexed": false,
          "internalType": "bool",
          "name": "approved",
          "type": "bool"
        }
      ],
      "name": "ApprovalForAll",
      "type": "event"
    },
    {
      "anonymous": false,
      "inputs": [
        {
          "indexed": false,
          "internalType": "uint8",
          "name": "version",
          "type": "uint8"
        }
      ],
      "name": "Initialized",
      "type": "event"
    },
    {
      "anonymous": false,
      "inputs": [
        {
          "indexed": true,
          "internalType": "address",
          "name": "previousOwner",
          "type": "address"
        },
        {
          "indexed": true,
          "internalType": "address",
          "name": "newOwner",
          "type": "address"
        }
      ],
      "name": "OwnershipTransferred",
      "type": "event"
    },
    {
      "anonymous": false,
      "inputs": [
        {
          "indexed": true,
          "internalType": "address",
          "name": "from",
          "type": "address"
        },
        {
          "indexed": true,
          "internalType": "address",
          "name": "to",
          "type": "address"
        },
        {
          "indexed": true,
          "internalType": "uint256",
          "name": "tokenId",
          "type": "uint256"
        }
      ],
      "name": "Transfer",
      "type": "event"
    },
    {
      "anonymous": false,
      "inputs": [
        {
          "indexed": true,
          "internalType": "address",
          "name": "vaultAddress",
          "type": "address"
        },
        {
          "indexed": true,
          "internalType": "address",
          "name": "owner",
          "type": "address"
        },
        {
          "indexed": false,
          "internalType": "address",
          "name": "vaultType",
          "type": "address"
        },
        {
          "indexed": false,
          "internalType": "uint256",
          "name": "tokenId",
          "type": "uint256"
        }
      ],
      "name": "VaultDeployed",
      "type": "event"
    },
    {
      "anonymous": false,
      "inputs": [
        {
          "indexed": true,
          "internalType": "address",
          "name": "vaultAddress",
          "type": "address"
        }
      ],
      "name": "VaultLiquidated",
      "type": "event"
    },
    {
      "anonymous": false,
      "inputs": [
        {
          "indexed": true,
          "internalType": "uint256",
          "name": "tokenId",
          "type": "uint256"
        },
        {
          "indexed": false,
          "internalType": "address",
          "name": "from",
          "type": "address"
        },
        {
          "indexed": false,
          "internalType": "address",
          "name": "to",
          "type": "address"
        }
      ],
      "name": "VaultTransferred",
      "type": "event"
    },
    {
      "inputs": [],
      "name": "HUNDRED_PC",
      "outputs": [
        {
          "internalType": "uint256",
          "name": "",
          "type": "uint256"
        }
      ],
      "stateMutability": "view",
      "type": "function"
    },
    {
      "inputs": [
        {
          "internalType": "address",
          "name": "to",
          "type": "address"
        },
        {
          "internalType": "uint256",
          "name": "tokenId",
          "type": "uint256"
        }
      ],
      "name": "approve",
      "outputs": [],
      "stateMutability": "nonpayable",
      "type": "function"
    },
    {
      "inputs": [
        {
          "internalType": "address",
          "name": "owner",
          "type": "address"
        }
      ],
      "name": "balanceOf",
      "outputs": [
        {
          "internalType": "uint256",
          "name": "",
          "type": "uint256"
        }
      ],
      "stateMutability": "view",
      "type": "function"
    },
    {
      "inputs": [],
      "name": "burnFeeRate",
      "outputs": [
        {
          "internalType": "uint256",
          "name": "",
          "type": "uint256"
        }
      ],
      "stateMutability": "view",
      "type": "function"
    },
    {
      "inputs": [],
      "name": "collateralRate",
      "outputs": [
        {
          "internalType": "uint256",
          "name": "",
          "type": "uint256"
        }
      ],
      "stateMutability": "view",
      "type": "function"
    },
    {
      "inputs": [],
      "name": "euros",
      "outputs": [
        {
          "internalType": "address",
          "name": "",
          "type": "address"
        }
      ],
      "stateMutability": "view",
      "type": "function"
    },
    {
      "inputs": [
        {
          "internalType": "uint256",
          "name": "tokenId",
          "type": "uint256"
        }
      ],
      "name": "getApproved",
      "outputs": [
        {
          "internalType": "address",
          "name": "",
          "type": "address"
        }
      ],
      "stateMutability": "view",
      "type": "function"
    },
    {
      "inputs": [
        {
          "internalType": "uint256",
          "name": "_collateralRate",
          "type": "uint256"
        },
        {
          "internalType": "uint256",
          "name": "_feeRate",
          "type": "uint256"
        },
        {
          "internalType": "address",
          "name": "_euros",
          "type": "address"
        },
        {
          "internalType": "address",
          "name": "_protocol",
          "type": "address"
        },
        {
          "internalType": "address",
          "name": "_liquidator",
          "type": "address"
        },
        {
          "internalType": "address",
          "name": "_tokenManager",
          "type": "address"
        },
        {
          "internalType": "address",
          "name": "_smartVaultDeployer",
          "type": "address"
        },
        {
          "internalType": "address",
          "name": "_smartVaultIndex",
          "type": "address"
        }
      ],
      "name": "initialize",
      "outputs": [],
      "stateMutability": "nonpayable",
      "type": "function"
    },
    {
      "inputs": [
        {
          "internalType": "address",
          "name": "owner",
          "type": "address"
        },
        {
          "internalType": "address",
          "name": "operator",
          "type": "address"
        }
      ],
      "name": "isApprovedForAll",
      "outputs": [
        {
          "internalType": "bool",
          "name": "",
          "type": "bool"
        }
      ],
      "stateMutability": "view",
      "type": "function"
    },
    {
      "inputs": [],
      "name": "lastToken",
      "outputs": [
        {
          "internalType": "uint256",
          "name": "",
          "type": "uint256"
        }
      ],
      "stateMutability": "view",
      "type": "function"
    },
    {
      "inputs": [
        {
          "internalType": "uint256",
          "name": "_tokenId",
          "type": "uint256"
        }
      ],
      "name": "liquidateVault",
      "outputs": [],
      "stateMutability": "nonpayable",
      "type": "function"
    },
    {
      "inputs": [],
      "name": "liquidator",
      "outputs": [
        {
          "internalType": "address",
          "name": "",
          "type": "address"
        }
      ],
      "stateMutability": "view",
      "type": "function"
    },
    {
      "inputs": [],
      "name": "mint",
      "outputs": [
        {
          "internalType": "address",
          "name": "vault",
          "type": "address"
        },
        {
          "internalType": "uint256",
          "name": "tokenId",
          "type": "uint256"
        }
      ],
      "stateMutability": "nonpayable",
      "type": "function"
    },
    {
      "inputs": [],
      "name": "mintFeeRate",
      "outputs": [
        {
          "internalType": "uint256",
          "name": "",
          "type": "uint256"
        }
      ],
      "stateMutability": "view",
      "type": "function"
    },
    {
      "inputs": [],
      "name": "name",
      "outputs": [
        {
          "internalType": "string",
          "name": "",
          "type": "string"
        }
      ],
      "stateMutability": "view",
      "type": "function"
    },
    {
      "inputs": [],
      "name": "owner",
      "outputs": [
        {
          "internalType": "address",
          "name": "",
          "type": "address"
        }
      ],
      "stateMutability": "view",
      "type": "function"
    },
    {
      "inputs": [
        {
          "internalType": "uint256",
          "name": "tokenId",
          "type": "uint256"
        }
      ],
      "name": "ownerOf",
      "outputs": [
        {
          "internalType": "address",
          "name": "",
          "type": "address"
        }
      ],
      "stateMutability": "view",
      "type": "function"
    },
    {
      "inputs": [],
      "name": "protocol",
      "outputs": [
        {
          "internalType": "address",
          "name": "",
          "type": "address"
        }
      ],
      "stateMutability": "view",
      "type": "function"
    },
    {
      "inputs": [],
      "name": "renounceOwnership",
      "outputs": [],
      "stateMutability": "nonpayable",
      "type": "function"
    },
    {
      "inputs": [
        {
          "internalType": "address",
          "name": "from",
          "type": "address"
        },
        {
          "internalType": "address",
          "name": "to",
          "type": "address"
        },
        {
          "internalType": "uint256",
          "name": "tokenId",
          "type": "uint256"
        }
      ],
      "name": "safeTransferFrom",
      "outputs": [],
      "stateMutability": "nonpayable",
      "type": "function"
    },
    {
      "inputs": [
        {
          "internalType": "address",
          "name": "from",
          "type": "address"
        },
        {
          "internalType": "address",
          "name": "to",
          "type": "address"
        },
        {
          "internalType": "uint256",
          "name": "tokenId",
          "type": "uint256"
        },
        {
          "internalType": "bytes",
          "name": "data",
          "type": "bytes"
        }
      ],
      "name": "safeTransferFrom",
      "outputs": [],
      "stateMutability": "nonpayable",
      "type": "function"
    },
    {
      "inputs": [
        {
          "internalType": "address",
          "name": "operator",
          "type": "address"
        },
        {
          "internalType": "bool",
          "name": "approved",
          "type": "bool"
        }
      ],
      "name": "setApprovalForAll",
      "outputs": [],
      "stateMutability": "nonpayable",
      "type": "function"
    },
    {
      "inputs": [
        {
          "internalType": "uint256",
          "name": "_rate",
          "type": "uint256"
        }
      ],
      "name": "setBurnFeeRate",
      "outputs": [],
      "stateMutability": "nonpayable",
      "type": "function"
    },
    {
      "inputs": [
        {
          "internalType": "address",
          "name": "_liquidator",
          "type": "address"
        }
      ],
      "name": "setLiquidatorAddress",
      "outputs": [],
      "stateMutability": "nonpayable",
      "type": "function"
    },
    {
      "inputs": [
        {
          "internalType": "uint256",
          "name": "_rate",
          "type": "uint256"
        }
      ],
      "name": "setMintFeeRate",
      "outputs": [],
      "stateMutability": "nonpayable",
      "type": "function"
    },
    {
      "inputs": [
        {
          "internalType": "address",
          "name": "_protocol",
          "type": "address"
        }
      ],
      "name": "setProtocolAddress",
      "outputs": [],
      "stateMutability": "nonpayable",
      "type": "function"
    },
    {
      "inputs": [
        {
          "internalType": "address",
          "name": "_smartVaultDeployer",
          "type": "address"
        }
      ],
      "name": "setSmartVaultDeployer",
      "outputs": [],
      "stateMutability": "nonpayable",
      "type": "function"
    },
    {
      "inputs": [
        {
          "internalType": "uint256",
          "name": "_rate",
          "type": "uint256"
        }
      ],
      "name": "setSwapFeeRate",
      "outputs": [],
      "stateMutability": "nonpayable",
      "type": "function"
    },
    {
      "inputs": [],
      "name": "smartVaultDeployer",
      "outputs": [
        {
          "internalType": "address",
          "name": "",
          "type": "address"
        }
      ],
      "stateMutability": "view",
      "type": "function"
    },
    {
      "inputs": [
        {
          "internalType": "bytes4",
          "name": "interfaceId",
          "type": "bytes4"
        }
      ],
      "name": "supportsInterface",
      "outputs": [
        {
          "internalType": "bool",
          "name": "",
          "type": "bool"
        }
      ],
      "stateMutability": "view",
      "type": "function"
    },
    {
      "inputs": [],
      "name": "swapFeeRate",
      "outputs": [
        {
          "internalType": "uint256",
          "name": "",
          "type": "uint256"
        }
      ],
      "stateMutability": "view",
      "type": "function"
    },
    {
      "inputs": [],
      "name": "symbol",
      "outputs": [
        {
          "internalType": "string",
          "name": "",
          "type": "string"
        }
      ],
      "stateMutability": "view",
      "type": "function"
    },
    {
      "inputs": [],
      "name": "tokenManager",
      "outputs": [
        {
          "internalType": "address",
          "name": "",
          "type": "address"
        }
      ],
      "stateMutability": "view",
      "type": "function"
    },
    {
      "inputs": [
        {
          "internalType": "uint256",
          "name": "tokenId",
          "type": "uint256"
        }
      ],
      "name": "tokenURI",
      "outputs": [
        {
          "internalType": "string",
          "name": "",
          "type": "string"
        }
      ],
      "stateMutability": "view",
      "type": "function"
    },
    {
      "inputs": [],
      "name": "totalSupply",
      "outputs": [
        {
          "internalType": "uint256",
          "name": "",
          "type": "uint256"
        }
      ],
      "stateMutability": "view",
      "type": "function"
    },
    {
      "inputs": [
        {
          "internalType": "address",
          "name": "from",
          "type": "address"
        },
        {
          "internalType": "address",
          "name": "to",
          "type": "address"
        },
        {
          "internalType": "uint256",
          "name": "tokenId",
          "type": "uint256"
        }
      ],
      "name": "transferFrom",
      "outputs": [],
      "stateMutability": "nonpayable",
      "type": "function"
    },
    {
      "inputs": [
        {
          "internalType": "address",
          "name": "newOwner",
          "type": "address"
        }
      ],
      "name": "transferOwnership",
      "outputs": [],
      "stateMutability": "nonpayable",
      "type": "function"
    },
    {
      "inputs": [],
      "name": "vaults",
      "outputs": [
        {
          "components": [
            {
              "internalType": "uint256",
              "name": "tokenId",
              "type": "uint256"
            },
            {
              "internalType": "uint256",
              "name": "collateralRate",
              "type": "uint256"
            },
            {
              "internalType": "uint256",
              "name": "mintFeeRate",
              "type": "uint256"
            },
            {
              "internalType": "uint256",
              "name": "burnFeeRate",
              "type": "uint256"
            },
            {
              "components": [
                {
                  "internalType": "address",
                  "name": "vaultAddress",
                  "type": "address"
                },
                {
                  "internalType": "uint256",
                  "name": "minted",
                  "type": "uint256"
                },
                {
                  "internalType": "uint256",
                  "name": "maxMintable",
                  "type": "uint256"
                },
                {
                  "internalType": "uint256",
                  "name": "totalCollateralValue",
                  "type": "uint256"
                },
                {
                  "components": [
                    {
                      "components": [
                        {
                          "internalType": "bytes32",
                          "name": "symbol",
                          "type": "bytes32"
                        },
                        {
                          "internalType": "address",
                          "name": "addr",
                          "type": "address"
                        },
                        {
                          "internalType": "uint8",
                          "name": "dec",
                          "type": "uint8"
                        },
                        {
                          "internalType": "address",
                          "name": "clAddr",
                          "type": "address"
                        },
                        {
                          "internalType": "uint8",
                          "name": "clDec",
                          "type": "uint8"
                        }
                      ],
                      "internalType": "struct ITokenManager.Token",
                      "name": "token",
                      "type": "tuple"
                    },
                    {
                      "internalType": "uint256",
                      "name": "amount",
                      "type": "uint256"
                    },
                    {
                      "internalType": "uint256",
                      "name": "collateralValue",
                      "type": "uint256"
                    }
                  ],
                  "internalType": "struct ISmartVault.Asset[]",
                  "name": "collateral",
                  "type": "tuple[]"
                },
                {
                  "internalType": "bool",
                  "name": "liquidated",
                  "type": "bool"
                },
                {
                  "internalType": "uint8",
                  "name": "version",
                  "type": "uint8"
                },
                {
                  "internalType": "bytes32",
                  "name": "vaultType",
                  "type": "bytes32"
                }
              ],
              "internalType": "struct ISmartVault.Status",
              "name": "status",
              "type": "tuple"
            }
          ],
          "internalType": "struct MockSmartVaultManagerV5.SmartVaultData[]",
          "name": "",
          "type": "tuple[]"
        }
      ],
      "stateMutability": "view",
      "type": "function"
    }
  ],
  "bytecode": {
    "object": "0x6080806040523461001c576101f460d155612c2590816100228239f35b600080fdfe608080604052600436101561001357600080fd5b600090813560e01c90816301ffc9a7146121a35750806306fdde031461210f578063081812fc146120f0578063095ea7b314611f7b5780631249c58b14611b0657806318160ddd146119f557806318819a3114611ae8578063206c186d14611aa857806320fdf07014611a8a57806321fbbf2f14611a6157806323b872dd14611a3c5780632a709b1414611a135780632f796f50146119f55780633143ab57146119d25780633a04801d146119b45780634046ebae1461198b57806342842e0e14611958578063509bf42a1461193a57806358a6be1c1461191c57806358e47004146118dc5780635dfd8b53146118b95780636352211e1461188857806370a08231146117f257806370bc680c146117c9578063715018a61461176b5780638220ef5b146110e65780638ce74426146110bd5780638da5cb5b1461109457806390cf0bba14610ce157806395d89b4114610c0e578063a22cb46514610b38578063b88d4fde14610a88578063bb09e44714610a48578063c87b56dd1461081a578063d1154ff0146107f7578063e985e9c5146107a3578063f2fde38b146107125763ff63a736146101c357600080fd5b3461070f5761010036600319011261070f576044356001600160a01b03808216820361070a5760643590808216820361070a5760843592818416840361070a5760a435828116810361070a5760c43590838216820361070a5760e43592848416840361070a5787549660ff8860081c1615978880996106fd575b80156106e6575b1561068a5760ff1981166001178a5588610679575b5060405161026681612302565b602081527f546865205374616e6461726420536d617274205661756c74204d616e6167657260208201526040519061029d82612302565b600a8252692a29ab20aaa62a26a0a760b11b60208301526102cd60ff8c5460081c166102c8816123e8565b6123e8565b8051906001600160401b0382116106655781906102eb6065546124e9565b601f81116105f1575b50602090601f831160011461057b578d92610570575b50508160011b916000199060031b1c1916176065555b8051906001600160401b03821161055c578795949392918b916103446066546124e9565b601f81116104dd575b50602090601f83116001146104435760ff84848b999896958a9895610398958a9892610438575b50508160011b916000199060031b1c1916176066555b5460081c166102c8816123e8565b6103a1336124a0565b816001600160601b0360a01b9b168b60c954161760c955168960ca54161760ca55168760cb54161760cb5560043560cc55168560cd54161760cd55168360ce54161760ce55169060d354161760d3556024358060cf5560d0556104015780f35b61ff001981541681557f7f26b83ff96e1f2b6a682f133852f6798a09c465da95921460cefb3847402498602060405160018152a180f35b015190503880610374565b60668452600080516020612bb0833981519152989796959493929190601f198316845b8181106104b05750936001848b9c6103989560ff958e9d9e9b9a988c9a10610497575b505050811b0160665561038a565b015160001960f88460031b161c19169055388080610489565b94509194969850919496986020600181928786015181550195019301918e93918c9997959a989693610466565b919394959697509160669052601f830160051c600080516020612bb08339815191520160208410610547575b91899796959493918d935b601f820160051c600080516020612bb0833981519152018110610537575061034d565b9384558a98508d93600101610514565b50600080516020612bb0833981519152610509565b634e487b7160e01b8b52604160045260248bfd5b01519050388061030a565b925060658d52600080516020612bd0833981519152908d935b601f19841685106105d6576001945083601f198116106105bd575b505050811b01606555610320565b015160001960f88460031b161c191690553880806105af565b81810151835560209485019460019093019290910190610594565b90915060658d52601f830160051c600080516020612bd08339815191520160208410610650575b839291908e5b601f830160051c600080516020612bd08339815191520182106106425750506102f4565b81558493506001018e61061e565b50600080516020612bd0833981519152610618565b634e487b7160e01b8c52604160045260248cfd5b61ffff191661010117895538610259565b60405162461bcd60e51b815260206004820152602e60248201527f496e697469616c697a61626c653a20636f6e747261637420697320616c72656160448201526d191e481a5b9a5d1a585b1a5e995960921b6064820152608490fd5b50303b1580156102445750600160ff821614610244565b50600160ff82161061023d565b600080fd5b80fd5b503461070f57602036600319011261070f5761072c612258565b610734612448565b6001600160a01b0381161561074f5761074c906124a0565b80f35b60405162461bcd60e51b815260206004820152602660248201527f4f776e61626c653a206e6577206f776e657220697320746865207a65726f206160448201526564647265737360d01b6064820152608490fd5b503461070f57604036600319011261070f576107bd612258565b60406107c761226e565b9260018060a01b038093168152606a602052209116600052602052602060ff604060002054166040519015158152f35b503461070f57602036600319011261070f57610811612448565b60043560d15580f35b503461070f576020908160031936011261070f5760043560008181526067602052604090205490918391610858906001600160a01b03161515612523565b60405192610865846122e7565b8184528115610a2e578190807a184f03e93ff9f4daa797ed6e38ed64bf6a1f0100000000000000008181811015610a20575b5050846d04ee2d6d415b85acef810000000080841015610a12575b5050662386f26fc1000080831015610a03575b506305f5e100808310156109f4575b50612710808310156109e5575b5060648210156109d5575b600a809210156109cb575b6001908160218186019561092361090d8861233e565b9761091b604051998a61231d565b80895261233e565b878a019890601f1901368a3750860101905b610995575b505050509261097b929161096f9460405195836109608895518092888089019101612210565b84019151809386840190612210565b0103808452018261231d565b905b610991604051928284938452830190612233565b0390f35b600019019083906f181899199a1a9b1b9c1cb0b131b232b360811b8282061a8353049182156109c657919082610935565b61093a565b91600101916108f7565b91906064600291049101916108ec565b600491939204910191386108e1565b600891939204910191386108d4565b601091939204910191386108c5565b9301929091049084386108b2565b604094500491503880610897565b50505050604051610a3e816122e7565b600081529061097d565b503461070f57602036600319011261070f57610a62612258565b610a6a612448565b60018060a01b03166001600160601b0360a01b60ca54161760ca5580f35b503461070f57608036600319011261070f57610aa2612258565b610aaa61226e565b606435916044356001600160401b038411610b345736602385011215610b3457836004013592610ad98461233e565b92610ae7604051948561231d565b84845286366024878901011161070f57602086610b2f97602461074c9a018389013786010152610b1f610b1a84336126ac565b6125d3565b610b2a8383836127c0565b612b24565b612688565b8480fd5b503461070f57604036600319011261070f57610b52612258565b60243590811515809203610c0a576001600160a01b031690338214610bc557338352606a6020526040832082600052602052604060002060ff1981541660ff83161790556040519081527f17307eab39ab6107e8899845ad3d59bd9653f200f220920489ca2b5937696c3160203392a380f35b60405162461bcd60e51b815260206004820152601960248201527f4552433732313a20617070726f766520746f2063616c6c6572000000000000006044820152606490fd5b8280fd5b503461070f578060031936011261070f576040519080606654610c30816124e9565b80855291600191808316908115610cb75750600114610c6e575b61099185610c5a8187038261231d565b604051918291602083526020830190612233565b925060668352600080516020612bb08339815191525b828410610c9f575050508101602001610c5a82610991610c4a565b80546020858701810191909152909301928101610c84565b86955061099196935060209250610c5a94915060ff191682840152151560051b8201019293610c4a565b503461070f57602080600319360112610ef45760ca546001600160a01b039081163303611056576024828260d354166040519283809263735e935160e11b825260043560048301525afa8015610f9f5782918591611029575b5016906040516311d0a62560e21b81528381600481865afa859181610fee575b50610da45760405162461bcd60e51b815260048101859052601760248201527f6f746865722d6c69717569646174696f6e2d6572726f720000000000000000006044820152606490fd5b92849315610faa57908391833b15610c0a576040516328a0702560e01b8152838160048183895af1908115610f9f578491610f8b575b505060cb5460405163d539139360e01b8152929081168284600481845afa938415610f3a578594610f59575b50803b15610b345760405163d547741f60e01b80825260048201959095526001600160a01b03871660248201529085908290604490829084905af1908115610f3a578591610f45575b505060cb54169160405163282c51f360e01b81528281600481875afa928315610f3a578593610f07575b5050823b15610f035760405190815260048101919091526001600160a01b03841660248201529082908290604490829084905af18015610ef857610ee0575b50807f1a859cd6d744d14a7aa31ec6d24a7aa146272e8b7ceaca90635e47e01978af9291a280f35b610ee9906122b9565b610ef4578183610eb8565b5080fd5b6040513d84823e3d90fd5b8380fd5b819550809293503d8311610f33575b610f20818361231d565b8101031261070a57849251908680610e79565b503d610f16565b6040513d87823e3d90fd5b610f4e906122b9565b610f03578387610e4f565b945092508184813d8111610f84575b610f72818361231d565b8101031261070a578593519287610e06565b503d610f68565b610f94906122b9565b610c0a578286610dda565b6040513d86823e3d90fd5b6064906040519062461bcd60e51b82526004820152601d60248201527f7661756c742d6e6f742d756e646572636f6c6c61746572616c697365640000006044820152fd5b9091508481813d8311611022575b611006818361231d565b8101031261101e57611017906123db565b9038610d5a565b8580fd5b503d610ffc565b6110499150843d861161104f575b611041818361231d565b81019061239a565b38610d3a565b503d611037565b60405162461bcd60e51b815260048101839052601660248201527532b93916b4b73b30b634b216b634b8bab4b230ba37b960511b6044820152606490fd5b503461070f578060031936011261070f576097546040516001600160a01b039091168152602090f35b503461070f578060031936011261070f5760c9546040516001600160a01b039091168152602090f35b503461070f578060031936011261070f5760d354604051636802581b60e11b81523360048201526001600160a01b03909116908281602481855afa9081156117605783916116cc575b50805161113b81612359565b92611149604051948561231d565b81845261115582612359565b855b601f198201811061163e575050849260cc549360cf549160d054915b8581106112f4578789604051918291602083016020845282518091526040840191602060408360051b870101940192815b8383106111b15786860387f35b919395509193603f19878203018352608086518051835260208101516020840152604081015160408401526060810151606084015201519060a060808201526101a081019160018060a01b0381511660a0830152602081015160c0830152604081015160e08301526060810151926101009384840152608082015193610120840152835180915260206101c0840194019085905b80821061128e5750505060019260209261018060e08460a087960151151561014085015260ff60c0820151166101608501520151910152970193019301909286959492936111a4565b909194602060e060019260408951805180518452868060a01b03868201511686850152608060ff9182858201511685870152888060a01b03606082015116606087015201511660808401528481015160a0840152015160c0820152019601920190611245565b6112fe8183612370565b5160405163735e935160e11b8152600481018290528a6020826024818b5afa8015611631576004928291611612575b50604051631006976960e11b815292839182906001600160a01b03165afa908115611607578b916113bb575b5060405191611367836122cc565b8252886020830152856040830152846060830152608082015261138a828a612370565b526113958189612370565b5060001981146113a757600101611173565b634e487b7160e01b89526011600452602489fd5b3d9150818c823e6113cc828261231d565b6020818381010312611603578051906001600160401b0382116115ff5761010082820184830103126115ff5760405192836101008101106001600160401b03610100860111176115d75761010084016040526114298383016123b9565b8452818301602081810151908601526040808201519086015260608082015190860152608001516001600160401b0381116115fb57818301601f82868601010112156115fb5780848401015161147e81612359565b9261148c604051948561231d565b81845260208401818601602060e08502868a8a01010101116115f5576020848888010101905b602060e08502868a8a010101018210611507575050505050608084015260e0919060a06114e283830182016123db565b9085015260c06114f581848401016123cd565b9085015201015160e082015238611359565b818388010360e081126115ed57604051908160608101106001600160401b036060840111176115d75760a09060608301604052126115ed57606081016101008201106001600160401b03610100830111176115d75760e09181610100602093016040528451606082015261157c8386016123b9565b608082015261158d604086016123cd565b60a082015261159e606086016123b9565b60c090818301526115b1608087016123cd565b8583015260608201825260a08601518483015285015160408201528152019101906114b2565b634e487b7160e01b600052604160045260246000fd5b505050508f80fd5b50508f80fd5b8e80fd5b8c80fd5b8b80fd5b6040513d8d823e3d90fd5b61162b915060203d60201161104f57611041818361231d565b3861132d565b50604051903d90823e3d90fd5b6040949394519061164e826122cc565b87825287602083015287604083015287606083015260405191826101008101106001600160401b03610100850111176115d7578261010060209401604052898152898482015289604082015289606082015260806060818301528a60a08301528a60c08301528a60e083015282015282828901015201939293611157565b90503d8084833e6116dd818361231d565b8101906020908181840312610b34578051906001600160401b03821161101e57019180601f84011215610b3457825161171581612359565b93611723604051958661231d565b818552838086019260051b82010192831161175c578301905b82821061174d57505050503861112f565b8151815290830190830161173c565b8680fd5b6040513d85823e3d90fd5b503461070f578060031936011261070f57611784612448565b609780546001600160a01b031981169091556000906001600160a01b03167f8be0079c531659141344cd1fd0a4f28419497f9722a3daafe3b4186f6b6457e08280a380f35b503461070f578060031936011261070f5760cb546040516001600160a01b039091168152602090f35b503461070f57602036600319011261070f576001600160a01b03611814612258565b168015611831578160409160209352606883522054604051908152f35b60405162461bcd60e51b815260206004820152602960248201527f4552433732313a2061646472657373207a65726f206973206e6f7420612076616044820152683634b21037bbb732b960b91b6064820152608490fd5b503461070f57602036600319011261070f5760206118a760043561256f565b6040516001600160a01b039091168152f35b503461070f57602036600319011261070f576118d3612448565b60043560d05580f35b503461070f57602036600319011261070f576118f6612258565b6118fe612448565b60018060a01b03166001600160601b0360a01b60c954161760c95580f35b503461070f578060031936011261070f57602060cc54604051908152f35b503461070f578060031936011261070f57602060d054604051908152f35b503461070f5761074c610b2f61196d36612284565b906040519261197b846122e7565b868452610b1f610b1a84336126ac565b503461070f578060031936011261070f5760ca546040516001600160a01b039091168152602090f35b503461070f578060031936011261070f57602060d154604051908152f35b503461070f57602036600319011261070f576119ec612448565b60043560cf5580f35b503461070f578060031936011261070f57602060d254604051908152f35b503461070f578060031936011261070f5760cd546040516001600160a01b039091168152602090f35b503461070f5761074c611a4e36612284565b91611a5c610b1a84336126ac565b6127c0565b503461070f578060031936011261070f5760ce546040516001600160a01b039091168152602090f35b503461070f578060031936011261070f576020604051620186a08152f35b503461070f57602036600319011261070f57611ac2612258565b611aca612448565b60018060a01b03166001600160601b0360a01b60ce54161760ce5580f35b503461070f578060031936011261070f57602060cf54604051908152f35b503461070f578060031936011261070f5760d2549060018201809211611f6757604051611b32816122e7565b8181523315611f2357600083815260676020526040902054611b60906001600160a01b031615155b1561271a565b600083815260676020526040902054611b83906001600160a01b03161515611b5a565b3382526020906068825260408320600181540190558383526067825260408320336001600160601b0360a01b825416179055604051908433857fddf252ad1be2c89b69c2b068fc378daa952ba7f163c4a11628f55a4df523b3ef8180a460d3546001600160a01b0392908316803b1561101e5781606481888094630db7e5b360e21b83528160048401523360248401528b60448401525af18015610f3a57611f0a575b50610b2f611c6491867fb94c2b508c30ec59449050da688941db7850240a61f359e7f4cf51f60a0037c2604080518981523389820152a28633612a08565b8360d25582828260ce541660648460cb5416604051978893849263d9181cd360e01b845230600485015233602485015260448401525af1938415611631578194611ed3575b508160d354169282851693803b15610c0a5782809160446040518094819363b41276c160e01b83528c60048401528a60248401525af1801561176057908391611ebf575b505060cb5460405163d539139360e01b8152919084168183600481845afa928315610f9f578493611e90575b50803b15610f0357604051632f2ff15d60e01b80825260048201949094526001600160a01b03881660248201529084908290604490829084905af18015610f9f57908491611e7c575b50508360cb54169160405163282c51f360e01b81528281600481875afa928315610f3a578593611e4c575b5050823b15610f035760405190815260048101919091526001600160a01b03861660248201529082908290604490829084905af18015610ef857611e38575b505060cb5416907fc2e5ddea5eacd045870205571e36f82db7a65a2ae56113d5732b0009ffb5b7e260405180611e198733968360209093929193604081019460018060a01b031681520152565b0390a3604080516001600160a01b039290921682526020820192909252f35b611e4282916122b9565b61070f5780611dcc565b9080929350813d8311611e75575b611e64818361231d565b8101031261070a5751903880611d8d565b503d611e5a565b611e85906122b9565b610c0a578238611d62565b9092508181813d8311611eb8575b611ea8818361231d565b8101031261070a57519138611d19565b503d611e9e565b611ec8906122b9565b610ef4578138611ced565b9093508281813d8311611f03575b611eeb818361231d565b81010312610f0357611efc906123b9565b9238611ca9565b503d611ee1565b611c649194611f1b610b2f926122b9565b949150611c26565b606460405162461bcd60e51b815260206004820152602060248201527f4552433732313a206d696e7420746f20746865207a65726f20616464726573736044820152fd5b634e487b7160e01b81526011600452602490fd5b503461070f57604036600319011261070f57611f95612258565b602435906001600160a01b038080611fac8561256f565b169216918083146120a157803314908115612080575b50156120155782845260696020526040842080546001600160a01b03191683179055611fed8361256f565b167f8c5be1e5ebec7d5bd14f71427d1e84f3dd0314c0f7b2291e5b200ac8c7c3b9258480a480f35b60405162461bcd60e51b815260206004820152603d60248201527f4552433732313a20617070726f76652063616c6c6572206973206e6f7420746f60448201527f6b656e206f776e6572206f7220617070726f76656420666f7220616c6c0000006064820152608490fd5b90508452606a6020526040842033855260205260ff60408520541638611fc2565b60405162461bcd60e51b815260206004820152602160248201527f4552433732313a20617070726f76616c20746f2063757272656e74206f776e656044820152603960f91b6064820152608490fd5b503461070f57602036600319011261070f5760206118a7600435612595565b503461070f578060031936011261070f576040519080606554612131816124e9565b80855291600191808316908115610cb7575060011461215a5761099185610c5a8187038261231d565b925060658352600080516020612bd08339815191525b82841061218b575050508101602001610c5a82610991610c4a565b80546020858701810191909152909301928101612170565b905034610ef4576020366003190112610ef45760043563ffffffff60e01b8116809103610c0a57602092506380ac58cd60e01b81149081156121ff575b81156121ee575b5015158152f35b6301ffc9a760e01b149050386121e7565b635b5e139f60e01b811491506121e0565b60005b8381106122235750506000910152565b8181015183820152602001612213565b9060209161224c81518092818552858086019101612210565b601f01601f1916010190565b600435906001600160a01b038216820361070a57565b602435906001600160a01b038216820361070a57565b606090600319011261070a576001600160a01b0390600435828116810361070a5791602435908116810361070a579060443590565b6001600160401b0381116115d757604052565b60a081019081106001600160401b038211176115d757604052565b602081019081106001600160401b038211176115d757604052565b604081019081106001600160401b038211176115d757604052565b90601f801991011681019081106001600160401b038211176115d757604052565b6001600160401b0381116115d757601f01601f191660200190565b6001600160401b0381116115d75760051b60200190565b80518210156123845760209160051b010190565b634e487b7160e01b600052603260045260246000fd5b9081602091031261070a57516001600160a01b038116810361070a5790565b51906001600160a01b038216820361070a57565b519060ff8216820361070a57565b5190811515820361070a57565b156123ef57565b60405162461bcd60e51b815260206004820152602b60248201527f496e697469616c697a61626c653a20636f6e7472616374206973206e6f74206960448201526a6e697469616c697a696e6760a81b6064820152608490fd5b6097546001600160a01b0316330361245c57565b606460405162461bcd60e51b815260206004820152602060248201527f4f776e61626c653a2063616c6c6572206973206e6f7420746865206f776e65726044820152fd5b609780546001600160a01b039283166001600160a01b0319821681179092559091167f8be0079c531659141344cd1fd0a4f28419497f9722a3daafe3b4186f6b6457e0600080a3565b90600182811c92168015612519575b602083101461250357565b634e487b7160e01b600052602260045260246000fd5b91607f16916124f8565b1561252a57565b60405162461bcd60e51b815260206004820152601860248201527f4552433732313a20696e76616c696420746f6b656e20494400000000000000006044820152606490fd5b6000908152606760205260409020546001600160a01b0316612592811515612523565b90565b6000818152606760205260409020546125b8906001600160a01b03161515612523565b6000908152606960205260409020546001600160a01b031690565b156125da57565b60405162461bcd60e51b815260206004820152602d60248201527f4552433732313a2063616c6c6572206973206e6f7420746f6b656e206f776e6560448201526c1c881bdc88185c1c1c9bdd9959609a1b6064820152608490fd5b60809060208152603260208201527f4552433732313a207472616e7366657220746f206e6f6e20455243373231526560408201527131b2b4bb32b91034b6b83632b6b2b73a32b960711b60608201520190565b1561268f57565b60405162461bcd60e51b8152806126a860048201612635565b0390fd5b906001600160a01b0380806126c08461256f565b169316918383149384156126f3575b5083156126dd575b50505090565b6126e991929350612595565b16143880806126d7565b909350600052606a60205260406000208260005260205260ff6040600020541692386126cf565b1561272157565b60405162461bcd60e51b815260206004820152601c60248201527f4552433732313a20746f6b656e20616c7265616479206d696e746564000000006044820152606490fd5b1561276d57565b60405162461bcd60e51b815260206004820152602560248201527f4552433732313a207472616e736665722066726f6d20696e636f72726563742060448201526437bbb732b960d91b6064820152608490fd5b929190926127cd8261256f565b6001600160a01b03918216906127e69083168214612766565b816000951680156129b75761280682846127ff8761256f565b1614612766565b8386526020606981526040938488206001600160601b0360a01b90818154169055848952606883528589206000198154019055838952858920600181540190558689526067835283868a209182541617905584518684867fddf252ad1be2c89b69c2b068fc378daa952ba7f163c4a11628f55a4df523b3ef8c80a4888260d35416803b15610ef457606483838193630db7e5b360e21b83528a60048401528960248401528c60448401525af180156129ad5761299a575b50836128f5575b507fb94c2b508c30ec59449050da688941db7850240a61f359e7f4cf51f60a0037c2949596508351928352820152a2565b806024838a9360d3541688519283809263735e935160e11b82528c60048301525afa908115612990578391612973575b5016803b15610ef457819060248751809481936313af403560e01b83528860048401525af1801561296957156128c45761295f88916122b9565b61175c57866128c4565b85513d8a823e3d90fd5b61298a9150843d861161104f57611041818361231d565b38612925565b87513d85823e3d90fd5b6129a6909891986122b9565b96386128bd565b86513d8b823e3d90fd5b60405162461bcd60e51b8152602060048201526024808201527f4552433732313a207472616e7366657220746f20746865207a65726f206164646044820152637265737360e01b6064820152608490fd5b9192600092909190803b15612b1a57612a56946040518092630a85bd0160e11b9485835233600484015287602484015260448301526080606483015281878160209a8b966084830190612233565b03926001600160a01b03165af1849181612ada575b50612ac9575050503d600014612ac1573d612a858161233e565b90612a93604051928361231d565b81528091833d92013e5b80519182612abe5760405162461bcd60e51b8152806126a860048201612635565b01fd5b506060612a9d565b6001600160e01b0319161492509050565b9091508581813d8311612b13575b612af2818361231d565b81010312610b3457516001600160e01b031981168103610b34579038612a6b565b503d612ae8565b5050915050600190565b9293600093909291803b15612ba457948491612b7e9660405180948193630a85bd0160e11b9788845233600485015260018060a01b0380921660248501526044840152608060648401528260209b8c976084830190612233565b0393165af1849181612ada5750612ac9575050503d600014612ac1573d612a858161233e565b50505091505060019056fe46501879b8ca8525e8c2fd519e2fbfcfa2ebea26501294aa02cbfcfb12e943548ff97419363ffd7000167f130ef7168fbea05faf9251824ca5043f113cc6a7c7a264697066735822122085d4197f227eac9811f87abca8b6310851a1c0f86c7b8e02c405531e3ad6855c64736f6c63430008110033",
    "linkReferences": {}
  },
  "methodIdentifiers": {
    "HUNDRED_PC()": "20fdf070",
    "approve(address,uint256)": "095ea7b3",
    "balanceOf(address)": "70a08231",
    "burnFeeRate()": "509bf42a",
    "collateralRate()": "58a6be1c",
    "euros()": "70bc680c",
    "getApproved(uint256)": "081812fc",
    "initialize(uint256,uint256,address,address,address,address,address,address)": "ff63a736",
    "isApprovedForAll(address,address)": "e985e9c5",
    "lastToken()": "2f796f50",
    "liquidateVault(uint256)": "90cf0bba",
    "liquidator()": "4046ebae",
    "mint()": "1249c58b",
    "mintFeeRate()": "18819a31",
    "name()": "06fdde03",
    "owner()": "8da5cb5b",
    "ownerOf(uint256)": "6352211e",
    "protocol()": "8ce74426",
    "renounceOwnership()": "715018a6",
    "safeTransferFrom(address,address,uint256)": "42842e0e",
    "safeTransferFrom(address,address,uint256,bytes)": "b88d4fde",
    "setApprovalForAll(address,bool)": "a22cb465",
    "setBurnFeeRate(uint256)": "5dfd8b53",
    "setLiquidatorAddress(address)": "bb09e447",
    "setMintFeeRate(uint256)": "3143ab57",
    "setProtocolAddress(address)": "58e47004",
    "setSmartVaultDeployer(address)": "206c186d",
    "setSwapFeeRate(uint256)": "d1154ff0",
    "smartVaultDeployer()": "21fbbf2f",
    "supportsInterface(bytes4)": "01ffc9a7",
    "swapFeeRate()": "3a04801d",
    "symbol()": "95d89b41",
    "tokenManager()": "2a709b14",
    "tokenURI(uint256)": "c87b56dd",
    "totalSupply()": "18160ddd",
    "transferFrom(address,address,uint256)": "23b872dd",
    "transferOwnership(address)": "f2fde38b",
    "vaults()": "8220ef5b"
  },
  "id": 2
}