{
  "abi": [
    {
      "inputs": [
        {
          "internalType": "bytes32",
          "name": "_native",
          "type": "bytes32"
        },
        {
          "internalType": "address",
          "name": "_clNativeUsd",
          "type": "address"
        }
      ],
      "stateMutability": "nonpayable",
      "type": "constructor"
    },
    {
      "inputs": [
        {
          "internalType": "bytes32",
          "name": "symbol",
          "type": "bytes32"
        },
        {
          "internalType": "address",
          "name": "token",
          "type": "address"
        }
      ],
      "name": "TokenExists",
      "type": "error"
    },
    {
      "anonymous": false,
      "inputs": [
        {
          "indexed": true,
          "internalType": "address",
          "name": "previousOwner",
          "type": "address"
        },
        {
          "indexed": true,
          "internalType": "address",
          "name": "newOwner",
          "type": "address"
        }
      ],
      "name": "OwnershipTransferred",
      "type": "event"
    },
    {
      "anonymous": false,
      "inputs": [
        {
          "indexed": false,
          "internalType": "bytes32",
          "name": "symbol",
          "type": "bytes32"
        },
        {
          "indexed": false,
          "internalType": "address",
          "name": "token",
          "type": "address"
        }
      ],
      "name": "TokenAdded",
      "type": "event"
    },
    {
      "anonymous": false,
      "inputs": [
        {
          "indexed": false,
          "internalType": "bytes32",
          "name": "symbol",
          "type": "bytes32"
        }
      ],
      "name": "TokenRemoved",
      "type": "event"
    },
    {
      "inputs": [
        {
          "internalType": "address",
          "name": "_token",
          "type": "address"
        },
        {
          "internalType": "address",
          "name": "_chainlinkFeed",
          "type": "address"
        }
      ],
      "name": "addAcceptedToken",
      "outputs": [],
      "stateMutability": "nonpayable",
      "type": "function"
    },
    {
      "inputs": [],
      "name": "getAcceptedTokens",
      "outputs": [
        {
          "components": [
            {
              "internalType": "bytes32",
              "name": "symbol",
              "type": "bytes32"
            },
            {
              "internalType": "address",
              "name": "addr",
              "type": "address"
            },
            {
              "internalType": "uint8",
              "name": "dec",
              "type": "uint8"
            },
            {
              "internalType": "address",
              "name": "clAddr",
              "type": "address"
            },
            {
              "internalType": "uint8",
              "name": "clDec",
              "type": "uint8"
            }
          ],
          "internalType": "struct ITokenManager.Token[]",
          "name": "",
          "type": "tuple[]"
        }
      ],
      "stateMutability": "view",
      "type": "function"
    },
    {
      "inputs": [
        {
          "internalType": "bytes32",
          "name": "_symbol",
          "type": "bytes32"
        }
      ],
      "name": "getToken",
      "outputs": [
        {
          "components": [
            {
              "internalType": "bytes32",
              "name": "symbol",
              "type": "bytes32"
            },
            {
              "internalType": "address",
              "name": "addr",
              "type": "address"
            },
            {
              "internalType": "uint8",
              "name": "dec",
              "type": "uint8"
            },
            {
              "internalType": "address",
              "name": "clAddr",
              "type": "address"
            },
            {
              "internalType": "uint8",
              "name": "clDec",
              "type": "uint8"
            }
          ],
          "internalType": "struct ITokenManager.Token",
          "name": "token",
          "type": "tuple"
        }
      ],
      "stateMutability": "view",
      "type": "function"
    },
    {
      "inputs": [
        {
          "internalType": "address",
          "name": "_tokenAddr",
          "type": "address"
        }
      ],
      "name": "getTokenIfExists",
      "outputs": [
        {
          "components": [
            {
              "internalType": "bytes32",
              "name": "symbol",
              "type": "bytes32"
            },
            {
              "internalType": "address",
              "name": "addr",
              "type": "address"
            },
            {
              "internalType": "uint8",
              "name": "dec",
              "type": "uint8"
            },
            {
              "internalType": "address",
              "name": "clAddr",
              "type": "address"
            },
            {
              "internalType": "uint8",
              "name": "clDec",
              "type": "uint8"
            }
          ],
          "internalType": "struct ITokenManager.Token",
          "name": "token",
          "type": "tuple"
        }
      ],
      "stateMutability": "view",
      "type": "function"
    },
    {
      "inputs": [],
      "name": "owner",
      "outputs": [
        {
          "internalType": "address",
          "name": "",
          "type": "address"
        }
      ],
      "stateMutability": "view",
      "type": "function"
    },
    {
      "inputs": [
        {
          "internalType": "bytes32",
          "name": "_symbol",
          "type": "bytes32"
        }
      ],
      "name": "removeAcceptedToken",
      "outputs": [],
      "stateMutability": "nonpayable",
      "type": "function"
    },
    {
      "inputs": [],
      "name": "renounceOwnership",
      "outputs": [],
      "stateMutability": "nonpayable",
      "type": "function"
    },
    {
      "inputs": [
        {
          "internalType": "address",
          "name": "newOwner",
          "type": "address"
        }
      ],
      "name": "transferOwnership",
      "outputs": [],
      "stateMutability": "nonpayable",
      "type": "function"
    }
  ],
  "bytecode": {
    "object": "0x60a0604081815234610222578082610df8803803809161001f8285610227565b8339810103126102225781516020928301516001600160a01b0393848216929183900361022257600080546001600160a01b03198082163390811784558751939893959194919284167f8be0079c531659141344cd1fd0a4f28419497f9722a3daafe3b4186f6b6457e08a80a3608082905263313ce56760e01b85528085600481895afa9485156102185788956101db575b5086519160a083016001600160401b038111848210176101c757885282528082019088825287830190601282526060840197885260ff608085019716875260015490680100000000000000008210156101b357600182018060015582101561019f579260ff8098979695936101619360036002976101899e9f600181522091020194518555866001860193511688845416178355511681549060ff60a01b9060a01b169060ff60a01b1916179055565b955195018054935160ff60a01b1993909416919095161716911660a01b60ff60a01b16179055565b51610b9790816102618239608051816105d50152f35b634e487b7160e01b8b52603260045260248bfd5b634e487b7160e01b8b52604160045260248bfd5b634e487b7160e01b8a52604160045260248afd5b9080955081813d8311610211575b6101f38183610227565b8101031261020d575160ff8116810361020d5793386100b1565b8780fd5b503d6101e9565b87513d8a823e3d90fd5b600080fd5b601f909101601f19168101906001600160401b0382119082101761024a57604052565b634e487b7160e01b600052604160045260246000fdfe6040608081526004908136101561001557600080fd5b600091823560e01c8063155bf4e2146108a35780632f757006146107b05780634b94ba73146105b2578063715018a6146105585780638da5cb5b14610530578063b58817ca1461049c578063b8f41acf1461013e5763f2fde38b1461007957600080fd5b3461013a57602036600319011261013a57610092610992565b9061009b6109ad565b6001600160a01b039182169283156100e857505082546001600160a01b0319811683178455167f8be0079c531659141344cd1fd0a4f28419497f9722a3daafe3b4186f6b6457e08380a380f35b906020608492519162461bcd60e51b8352820152602660248201527f4f776e61626c653a206e6577206f776e657220697320746865207a65726f206160448201526564647265737360d01b6064820152fd5b8280fd5b50919034610498578060031936011261049857610159610992565b906001600160a01b039060243582811690819003610494576101796109ad565b81516395d89b4160e01b815284841686828981845afa91821561048a5787926103cf575b50815194602080930151958381106103bb575b5060015492885b848110610372575085519263313ce56760e01b9485855282858d81855afa948515610349578b95610353575b50875195865282868d818a5afa958615610349578b9661031a575b5087519261020b84610a05565b898452830191825260ff888401951685526060830196875260ff6080840196168652680100000000000000008110156103075780600161024e9201600155610af7565b9290926102f55751825551600182018054945160ff60a01b1992851683166001600160a81b03199687161760a091821b60ff60a01b90811691909117909255965160029093018054965190971b16949093169116909116171790557f662cc3305b9b4ea3a5fd06717cdaece79b6ac0a7734fd44eabe0f37951dc587c9291906102ef90519182526001600160a01b0390921660208201529081906040820190565b0390a180f35b634e487b7160e01b8b528a8c5260248bfd5b634e487b7160e01b8b5260418c5260248bfd5b61033b919650833d8511610342575b6103338183610a37565b810190610b48565b94386101fe565b503d610329565b88513d8d823e3d90fd5b61036b919550833d8511610342576103338183610a37565b93386101e3565b8761037c82610af7565b5054146103915761038c90610ad2565b6101b7565b865163306c167760e21b8152808c018981526001600160a01b038b16602082015281906040010390fd5b60001990840360031b1b90951694386101b0565b9091503d8088833e6103e18183610a37565b810190602090818184031261048657805167ffffffffffffffff91828211610482570183601f8201121561046b57805191821161046f5786519361042e601f8401601f1916850186610a37565b82855283838301011161046b5790899291835b82811061045557505083010152903861019d565b8181018401518682018501528b94508301610441565b8980fd5b634e487b7160e01b8a5260418b5260248afd5b8a80fd5b8880fd5b84513d89823e3d90fd5b8480fd5b5080fd5b82843461052d57602036600319011261052d576104b7610992565b6104bf610aa7565b9160019182549260018060a01b03809216925b8481106104ea5760a0866104e889518092610956565bf35b8383836104f684610af7565b500154161461050e575b61050990610ad2565b6104d2565b945061050961052561051f87610af7565b50610a59565b959050610500565b80fd5b505034610498578160031936011261049857905490516001600160a01b039091168152602090f35b833461052d578060031936011261052d576105716109ad565b80546001600160a01b03198116825581906001600160a01b03167f8be0079c531659141344cd1fd0a4f28419497f9722a3daafe3b4186f6b6457e08280a380f35b50919034610498576020908160031936011261013a578335906105d36109ad565b7f0000000000000000000000000000000000000000000000000000000000000000821461077857835b6001805480831015610774578461061284610af7565b50541461062a575b505061062590610ad2565b6105fc565b600019908082019081116107615761064190610af7565b5061064b84610af7565b91909161074f578082036106dc575b5050815480156106c957019061066f82610af7565b6106b7579087600283826106259796955582848201550155557f27b51627532fe8cd0df946e5a9590efb06cc367d3d611c1e4084c7e1dccb3ab4858451868152a1903861061a565b634e487b7160e01b8852878952602488fd5b634e487b7160e01b885260318952602488fd5b80548255838101805485840180546001600160a01b039283166001600160a01b031980831682178455945460ff60a01b9081166001600160a81b0319938416909217919091179092556002948501805495909601805495909316938516841783559454169290931617179055388061065a565b634e487b7160e01b8952888a52602489fd5b634e487b7160e01b885260118952602488fd5b8680f35b5162461bcd60e51b81528085018390526013602482015272195c9c8b5b985d1a5d994b5c995c5d5a5c9959606a1b6044820152606490fd5b503461013a578260031936011261013a5760019283549167ffffffffffffffff83116108905750829391935160206107ed818760051b0183610a37565b85825283835280820195837fb10e2d527612073b26eecdfd717e6a320cf44b4afac2b0732d9fcbe2b7fa0cf6885b83831061086757505050508451948186019282875251809352850195925b8281106108465785870386f35b909192938260a08861085a849a8951610956565b0197950193929101610839565b96600385829b9961087b859a98999a610a59565b8152019201920191909896989594939561081b565b634e487b7160e01b825260419052602490fd5b508290346104985760203660031901126104985780356108c1610aa7565b92600154905b81811061091d5750508251036108e657506104e860a092518092610956565b606490602084519162461bcd60e51b8352820152601160248201527032b93916b4b73b30b634b216ba37b5b2b760791b6044820152fd5b8261092782610af7565b50541461093d575b61093890610ad2565b6108c7565b935061093861094e61051f86610af7565b94905061092f565b60ff608080928051855260018060a01b038060208301511660208701528360408301511660408701526060820151166060860152015116910152565b600435906001600160a01b03821682036109a857565b600080fd5b6000546001600160a01b031633036109c157565b606460405162461bcd60e51b815260206004820152602060248201527f4f776e61626c653a2063616c6c6572206973206e6f7420746865206f776e65726044820152fd5b60a0810190811067ffffffffffffffff821117610a2157604052565b634e487b7160e01b600052604160045260246000fd5b90601f8019910116810190811067ffffffffffffffff821117610a2157604052565b90604051610a6681610a05565b8254815260018301546001600160a01b03808216602084015260ff60a092831c811660408501526002909501549081166060840152901c9092166080830152565b60405190610ab482610a05565b60006080838281528260208201528260408201528260608201520152565b6000198114610ae15760010190565b634e487b7160e01b600052601160045260246000fd5b600154811015610b32576003906001600052027fb10e2d527612073b26eecdfd717e6a320cf44b4afac2b0732d9fcbe2b7fa0cf60190600090565b634e487b7160e01b600052603260045260246000fd5b908160209103126109a8575160ff811681036109a8579056fea264697066735822122097998aa1ff80ef9326bc3dcd59494b3358b43e198bdb0047a448dc2fbf16895064736f6c63430008110033",
    "linkReferences": {}
  },
  "methodIdentifiers": {
    "addAcceptedToken(address,address)": "b8f41acf",
    "getAcceptedTokens()": "2f757006",
    "getToken(bytes32)": "155bf4e2",
    "getTokenIfExists(address)": "b58817ca",
    "owner()": "8da5cb5b",
    "removeAcceptedToken(bytes32)": "4b94ba73",
    "renounceOwnership()": "715018a6",
    "transferOwnership(address)": "f2fde38b"
  },
  "id": 83
}