{
  "abi": [
    {
      "inputs": [
        {
          "internalType": "bytes32",
          "name": "_native",
          "type": "bytes32"
        },
        {
          "internalType": "address",
          "name": "_clEurUsd",
          "type": "address"
        }
      ],
      "stateMutability": "nonpayable",
      "type": "constructor"
    },
    {
      "inputs": [
        {
          "internalType": "address",
          "name": "_manager",
          "type": "address"
        },
        {
          "internalType": "address",
          "name": "_owner",
          "type": "address"
        },
        {
          "internalType": "address",
          "name": "_euros",
          "type": "address"
        }
      ],
      "name": "deploy",
      "outputs": [
        {
          "internalType": "address",
          "name": "",
          "type": "address"
        }
      ],
      "stateMutability": "nonpayable",
      "type": "function"
    }
  ],
  "bytecode": {
    "object": "0x60c0346100d657613244906001600160401b03601f38849003908101601f1916830190828211848310176100c057808491604096879485528339810103126100d65781516020909201516001600160a01b039290838116908190036100d6578160805284519261060b9182850191858310908311176100c05786938593612c398539825260208201520301906000f080156100b5571660a05251612b5d90816100dc8239608051816097015260a0518160ca0152f35b82513d6000823e3d90fd5b634e487b7160e01b600052604160045260246000fd5b600080fdfe608080604052600436101561001357600080fd5b600090813560e01c63d9181cd31461002a57600080fd5b34610133576060366003190112610133576001600160a01b03906004358281169081900361012f5760243583811680910361012b5760443590848216809203610127576129f0928385019385851067ffffffffffffffff861117610113579185939160a0959361013886397f00000000000000000000000000000000000000000000000000000000000000008452602084015260408301526060820152847f000000000000000000000000000000000000000000000000000000000000000016608082015203019083f0908115610108576020925060405191168152f35b6040513d84823e3d90fd5b634e487b7160e01b88526041600452602488fd5b8580fd5b8480fd5b8380fd5b5080fdfe610100346200015457601f620029f038819003918201601f19168301916001600160401b03831184841017620001595780849260a0946040528339810103126200015457805162000053602083016200016f565b9162000062604082016200016f565b906200007f608062000077606084016200016f565b92016200016f565b608093909352600080546001600160a01b0319166001600160a01b0393841617905560a09390935291821660c0521660e05260405161286b9081620001858239608051818181610c540152818161159801526121da015260a0518181816102ca01528181610d8e01528181610f550152818161122a0152818161150a01528181611c020152818161202e015281816120f501526124d7015260c051818181610fd9015281816112db0152611876015260e05181818160d6015281816103dc015281816119c901528181611f0a01526124060152f35b600080fd5b634e487b7160e01b600052604160045260246000fd5b51906001600160a01b0382168203620001545756fe6080604052600436101561001b575b361561001957600080fd5b005b6000803560e01c806313af403514611bcf578063200d2ed2146118a5578063230f83b81461186057806328a07025146114ef57806340c10f19146111d457806342966c6814610f1e57806345453af214610de45780634742989414610dbd578063481c6a7514610d78578063757892fb14610c08578063759f626f1461028a57806377a5ef881461012f5780638da5cb5b146101085763ce3e39c0146100c1575061000e565b346101055780600319360112610105576040517f00000000000000000000000000000000000000000000000000000000000000006001600160a01b03168152602090f35b80fd5b5034610105578060031936011261010557546040516001600160a01b039091168152602090f35b50346101055760603660031901126101055760243560043561014f611c53565b83546001600160a01b039190610171908316331461016b6122b7565b9061232c565b602460a08361017e612010565b1660405192838092630aadfa7160e11b82528860048301525afa90811561027f578691610209575b5090846101f48183866020876101ec6101e47f966e7134fef6df86403e48a000ae26287b88635a6c79f2c6ca13df4e1a587a9f9d60609d9c9b6123cb565b61016b612394565b015116612690565b6040519384526020840152166040820152a180f35b939291905060a03d8111610278575b6102228186611d0e565b84019460a085870312610274576101f481838560206102647f966e7134fef6df86403e48a000ae26287b88635a6c79f2c6ca13df4e1a587a9f9b60609b611d6a565b96505050949596509650506101a6565b8680fd5b503d610218565b6040513d88823e3d90fd5b50346101055760603660031901126101055780546001600160a01b03906102b7908216331461016b6122b7565b604051633a04801d60e01b8152602091907f00000000000000000000000000000000000000000000000000000000000000008216908381600481855afa908115610841578591610bdb575b5061031060443591826120a7565b60405163020fdf0760e41b80825293918682600481865afa9081156108ff578891610baa575b61034092506120ba565b9160043561034d8161249f565b9460015460405190631629af8760e21b82528982600481895afa9081156109d2578b91610b79575b61037f92506120a7565b6040519182528882600481885afa908115610a18578a91610b48575b6103a592506120ba565b6103b66103b0611ec1565b92612543565b604051636a6b627160e11b815291906103d3906004840190611c69565b8360a4830152877f00000000000000000000000000000000000000000000000000000000000000001692898360c481875afa9081156109d2578a938c92610b16575b5090610420916123be565b818110610a9b575050505086925b6024916104458261043f853561249f565b926123be565b948780604051986104558a611ca5565b16928389521689880152610bb8604088015230606088015242608088015260a0870195865260c08701528860e087015260405190633fc8cef360e01b918281528981600481895afa80156109d25789918c91610a5f575b50160361064a5750604051634673a21360e11b815288918882600481885afa91821561058057839289918491610606575b50918392918392165af16104ef612354565b50156105cd5750908460049260405193848092631966a23160e31b82525afa90811561027f578592879261058b575b509261054292935160405195868095819463414bf38960e01b835260048301612629565b0393165af180156105805761055657505080f35b813d8311610579575b6105698183611d0e565b810103126105745780f35b600080fd5b503d61055f565b6040513d85823e3d90fd5b8381949293503d83116105c6575b6105a38183611d0e565b810103126105c25784926105b961054293611d48565b9190939261051e565b8580fd5b503d610599565b8560136064926040519262461bcd60e51b84526004840152820152726572722d737761702d6665652d6e617469766560681b6044820152fd5b935050508882813d8311610643575b61061f8183611d0e565b8101031261063f5782809291896106368394611d48565b919350916104dd565b8280fd5b503d610615565b91959397969490848251169060405191634673a21360e11b83528783600481895afa908115610a18578a91610a23575b6106849350612690565b8051604051631966a23160e31b808252918616998782600481895afa918215610a18578a926109dd575b5051908115801561096d575b1561090a576040805163095ea7b360e01b818b01526001600160a01b03909216828b019081526020810193909352999a8b9a61070b93610706918491015b03601f198101845283611d0e565b6126cb565b6040519081528581600481875afa80156108ff57859287928a926108be575b509061074d918a60405195868095819463414bf38960e01b835260048301612629565b0393165af180156108b357610885575b50839060046040518094819382525afa90811561084157859161084c575b50166040516370a0823160e01b815230600482015282818581855afa92831561084157859361080e575b5050816107b4575b5050505080f35b803b1561080957839283926040519485938492632e1a7d4d60e01b845260048401525af180156107fe576107ea575b80806107ad565b6107f390611cde565b6101055780386107e3565b6040513d84823e3d90fd5b505050fd5b819550809293503d831161083a575b6108278183611d0e565b81010312610574578392519038806107a5565b503d61081d565b6040513d87823e3d90fd5b90508281813d831161087e575b6108638183611d0e565b8101031261087a5761087490611d48565b3861077b565b8480fd5b503d610859565b84809297503d83116108ac575b61089c8183611d0e565b810103126105745785943861075d565b503d610892565b6040513d89823e3d90fd5b935091905082813d83116108f8575b6108d78183611d0e565b810103126108f45761074d86916108ee8794611d48565b9161072a565b8780fd5b503d6108cd565b6040513d8a823e3d90fd5b60405162461bcd60e51b8152600481018990526036818b01527f5361666545524332303a20617070726f76652066726f6d206e6f6e2d7a65726f60448201527520746f206e6f6e2d7a65726f20616c6c6f77616e636560501b6064820152608490fd5b50604051636eb1769f60e11b8152306004820152818816818b015288816044818f5afa9081156109d2578b916109a5575b50156106ba565b90508881813d83116109cb575b6109bc8183611d0e565b8101031261057457513861099e565b503d6109b2565b6040513d8d823e3d90fd5b9091508781813d8311610a11575b6109f58183611d0e565b81010312610a0d57610a0690611d48565b90386106ae565b8980fd5b503d6109eb565b6040513d8c823e3d90fd5b919290508781813d8311610a58575b610a3c8183611d0e565b81010312610a0d5790610a526106849392611d48565b9061067a565b503d610a32565b8092508b8092503d8311610a94575b610a788183611d0e565b81010312610a9057610a8a8991611d48565b386104ac565b8a80fd5b503d610a6e565b610acd91610ab060c49261043f602435612543565b9460405195869485936329e9b90960e11b85526004850190611c69565b60a48301525afa9081156108ff578891610ae9575b509261042e565b90508681813d8311610b0f575b610b008183611d0e565b81010312610574575138610ae2565b503d610af6565b8092508491943d8311610b41575b610b2e8183611d0e565b8101031261057457518992610420610415565b503d610b24565b90508882813d8311610b72575b610b5f8183611d0e565b81010312610574576103a591519061039b565b503d610b55565b90508982813d8311610ba3575b610b908183611d0e565b810103126105745761037f915190610375565b503d610b86565b90508682813d8311610bd4575b610bc18183611d0e565b8101031261057457610340915190610336565b503d610bb7565b90508381813d8311610c01575b610bf28183611d0e565b81010312610574575138610302565b503d610be8565b5034610105576040366003190112610105576001600160a01b036024358181169160043591839003610d7457610c4581855416331461016b6122b7565b610c4d612010565b16602460a07f00000000000000000000000000000000000000000000000000000000000000009260405192838092630aadfa7160e11b82528660048301525afa80156108415783918691610d30575b50610caa916101e4916123cb565b8380808085875af1610cba612354565b5015610cf9577f966e7134fef6df86403e48a000ae26287b88635a6c79f2c6ca13df4e1a587a9f9260609260405192835260208301526040820152a180f35b60405162461bcd60e51b815260206004820152600f60248201526e195c9c8b5b985d1a5d994b58d85b1b608a1b6044820152606490fd5b91505060a03d8111610d6d575b610d478183611d0e565b81019060a0818303126105c25783610d65610caa936101e493611d6a565b915091610c9c565b503d610d3d565b8380fd5b50346101055780600319360112610105576040517f00000000000000000000000000000000000000000000000000000000000000006001600160a01b03168152602090f35b50346101055780600319360112610105576020600154610ddb6120da565b10604051908152f35b503461010557606036600319011261010557610dfe611c3d565b60243590610e0a611c53565b83546001600160a01b039190610e26908316331461016b6122b7565b8160a081610e32612010565b1694602460405180948193635ac40be560e11b835216978860048301525afa90811561027f578691610eb7575b5090847f40dd89f89ba970a68f1a96ac519a462bebcd9ab26318956507cd6b95b40573fe958386866020606099989701511614610ea3575b506101f4908386612690565b610eb0916101e4916123cb565b8038610e97565b939291905060a03d8111610f17575b610ed08186611d0e565b84019460a0858703126102745780610f0b7f40dd89f89ba970a68f1a96ac519a462bebcd9ab26318956507cd6b95b40573fe97606097611d6a565b92939495509550610e5f565b503d610ec6565b5034610105576020806003193601126111d0576001546004358082106111975760405163284dfa1560e11b81526001600160a01b037f00000000000000000000000000000000000000000000000000000000000000008116949093918181600481895afa80156108b3578790611168575b610f9a9150846120a7565b60405163020fdf0760e41b815282816004818a5afa9182156108ff5785918993611133575b50610fd392610fcd916120ba565b936123be565b600155837f00000000000000000000000000000000000000000000000000000000000000001693843b1561027457604051632770a7eb60e21b81523360048201526024810185905287908181604481838b5af180156107fe5761111f575b50508160049660405197888092634673a21360e11b82525afa9586156108b35787966110e8575b506040516323b872dd60e01b83820152336024820152951660448601526064808601839052855260a0850167ffffffffffffffff8111868210176110d2577f11866d79e883ef76a8df76018da414b8adda0b169b1fb32d78b7bb69d722f1c7956040956110c69287526126cb565b8351928352820152a180f35b634e487b7160e01b600052604160045260246000fd5b9095508181813d8311611118575b6111008183611d0e565b810103126102745761111190611d48565b9438611058565b503d6110f6565b61112890611cde565b610274578638611031565b925090508282813d8111611161575b61114c8183611d0e565b81010312610574579051908490610fcd610fbf565b503d611142565b508181813d8311611190575b61117e8183611d0e565b8101031261057457610f9a9051610f8f565b503d611174565b60405162461bcd60e51b8152600481018490526011602482015270195c9c8b5a5b9cdd59998b5b5a5b9d1959607a1b6044820152606490fd5b5080fd5b5034610105576040366003190112610105576111ee611c3d565b81546001600160a01b0391906024359061120e908416331461016b6122b7565b60ff600254166114b9576040516318819a3160e01b81526020937f0000000000000000000000000000000000000000000000000000000000000000811692918581600481875afa80156108b357879061148a575b61126d9150836120a7565b60405163020fdf0760e41b8152908682600481885afa9081156108ff578891611459575b61129b92506120ba565b926112d5846112d0856112ae8382611eb4565b6112d06112be6001549283611eb4565b6112c66120da565b101561016b612394565b611eb4565b600155817f00000000000000000000000000000000000000000000000000000000000000001690813b156108f4576040516340c10f1960e01b8082526001600160a01b0388166004830152602482018690529190898160448183885af18015610a185761143f575b508892918860049260405193848092634673a21360e11b82525afa9182156114345784926113fd575b50823b15610d74576040519081526001600160a01b03919091166004820152602481018690529082908290604490829084905af180156107fe576113e1575b507f3036ce329e9ad4b1809126716eca4fc0efa59790b0b36ef8754bf2e1baa9f54d60608686868a87604051941684528301526040820152a180f35b6113ef909594939295611cde565b6105c25790919285386113a5565b9091508881813d831161142d575b6114158183611d0e565b81010312610d745761142690611d48565b9038611366565b503d61140b565b6040513d86823e3d90fd5b91889961144f6004939594611cde565b995091929061133d565b90508682813d8311611483575b6114708183611d0e565b810103126108f45761129b915190611291565b503d611466565b508581813d83116114b2575b6114a08183611d0e565b810103126102745761126d9051611262565b503d611496565b60405162461bcd60e51b815260206004820152600e60248201526d195c9c8b5b1a5c5d5a59185d195960921b6044820152606490fd5b50346101055780600319360112610105576001600160a01b037f0000000000000000000000000000000000000000000000000000000000000000811661153e6115366122b7565b82331461232c565b600190815461154b6120da565b1015611824578160ff1960025416176002558382554761176c575b8284600494611573612010565b16604051958680926317bab80360e11b82525afa938415610841578594611748575b507f000000000000000000000000000000000000000000000000000000000000000085845b6115c2578680f35b855181101561174457816115d68288611e8a565b5151036115ed575b6115e790611e65565b846115ba565b60209083826115fc838a611e8a565b5101511691604051926370a0823160e01b9384815230600482015260249083818381865afa90811561170c578c91611717575b5061163f575b50505090506115de565b604051634673a21360e11b81529483866004818c5afa95861561170c578c966116d0575b508390604051928391825230600483015281855afa9283156109d2578b9361169e575b5050906115e79361169692612690565b388080611635565b90809350813d83116116c9575b6116b58183611d0e565b81010312610a0d5790519083611696611686565b503d6116ab565b9095508381813d8311611705575b6116e88183611d0e565b81010312611701576116fa8491611d48565b9590611663565b8b80fd5b503d6116de565b6040513d8e823e3d90fd5b90508381813d831161173d575b61172e8183611d0e565b8101031261170157513861162f565b503d611724565b8680f35b6117659194503d8087833e61175d8183611d0e565b810190611ddd565b9238611595565b604051634673a21360e11b81528490602081600481865afa80156107fe57829182916117e6575b50818091874791165af16117a5612354565b506115665760405162461bcd60e51b81526020600482015260146024820152736572722d6e61746976652d6c697175696461746560601b6044820152606490fd5b9150506020813d821161181c575b8161180160209383611d0e565b810103126111d05781806118158193611d48565b9150611793565b3d91506117f4565b60405162461bcd60e51b81526020600482015260146024820152736572722d6e6f742d6c6971756964617461626c6560601b6044820152606490fd5b50346101055780600319360112610105576040517f00000000000000000000000000000000000000000000000000000000000000006001600160a01b03168152602090f35b50346101055780600319360112610105578060e06040516118c581611ca5565b828152826020820152826040820152826060820152606060808201528260a08201528260c082015201526001546118fa6120da565b916004611905611ec1565b92826001600160a01b03611917612010565b16604051938480926317bab80360e11b82525afa918215610580578392611bb3575b5081519461194686611d30565b956119546040519788611d0e565b808752611963601f1991611d30565b01845b818110611b83575050835b8351811015611a79576119848185611e8a565b519061199e825160018060a01b03602085015116906121d4565b6040516332ed2bf360e01b815292906119ba6004850183611c69565b60a4840181905260208460c4817f00000000000000000000000000000000000000000000000000000000000000006001600160a01b03165afa9081156108ff578891611a3f575b611a3a945060405192611a1384611cc2565b835260208301526040820152611a29828a611e8a565b52611a348189611e8a565b50611e65565b611971565b91929390506020813d602011611a71575b81611a5d60209383611d0e565b810103126108f45751611a3a939291611a01565b3d9150611a50565b508390868660ff600254169260405195611a9287611ca5565b3087526020870152604086015260608501526080840152151560a0830152600260c0830152644555524f7360d81b60e08301526040519060208252610120820160018060a01b038451166020840152602084015160408401526040840151606084015260608401516080840152608084015191610100918260a08601528351809152602061014086019401915b818110611b4f5750505060e08460a085960151151560c086015260ff60c082015116828601520151908301520390f35b909193602060e060019260408851611b68838251611c69565b8085015160a0840152015160c0820152019501929101611b1f565b602090604051611b9281611cc2565b611b9a61227b565b8152878382015287604082015282828b01015201611966565b611bc89192503d8085833e61175d8183611d0e565b9038611939565b503461010557602036600319011261010557611be9611c3d565b611bf16122b7565b6001600160a01b039190611c2990337f000000000000000000000000000000000000000000000000000000000000000085161461232c565b82546001600160a01b031916911617815580f35b600435906001600160a01b038216820361057457565b604435906001600160a01b038216820361057457565b60ff608080928051855260018060a01b038060208301511660208701528360408301511660408701526060820151166060860152015116910152565b610100810190811067ffffffffffffffff8211176110d257604052565b6060810190811067ffffffffffffffff8211176110d257604052565b67ffffffffffffffff81116110d257604052565b6040810190811067ffffffffffffffff8211176110d257604052565b90601f8019910116810190811067ffffffffffffffff8211176110d257604052565b67ffffffffffffffff81116110d25760051b60200190565b51906001600160a01b038216820361057457565b519060ff8216820361057457565b91908260a09103126105745760405160a0810181811067ffffffffffffffff8211176110d2576040526080611dd881839580518552611dab60208201611d48565b6020860152611dbc60408201611d5c565b6040860152611dcd60608201611d48565b606086015201611d5c565b910152565b60209081818403126105745780519067ffffffffffffffff8211610574570182601f8201121561057457805191611e1383611d30565b93611e216040519586611d0e565b838552818501908260a080960285010193818511610574578301915b848310611e4d5750505050505090565b838691611e5a8486611d6a565b815201920191611e3d565b6000198114611e745760010190565b634e487b7160e01b600052601160045260246000fd5b8051821015611e9e5760209160051b010190565b634e487b7160e01b600052603260045260246000fd5b91908201809211611e7457565b60009081906001600160a01b038281611ed8612010565b16926040928351958680966317bab80360e11b825260049788915afa958615612006578396611fea575b5082969194817f000000000000000000000000000000000000000000000000000000000000000016925b8751891015611fdf57611f3f8989611e8a565b51805190611f55602092868484015116906121d4565b88516332ed2bf360e01b815291611f6f9086840190611c69565b60a4820152818160c481895afa918215611fd5578792611fa5575b5050611f9990611f9f92611eb4565b98611e65565b97611f2c565b90809250813d8311611fce575b611fbc8183611d0e565b810103126105c2575181611f99611f8a565b503d611fb2565b88513d89823e3d90fd5b975050505050509050565b611fff9196503d8085833e61175d8183611d0e565b9438611f02565b84513d85823e3d90fd5b604051630a9c26c560e21b81526001600160a01b03906020816004817f000000000000000000000000000000000000000000000000000000000000000086165afa90811561209b5760009161206457501690565b906020823d8211612093575b8161207d60209383611d0e565b81010312610105575061208f90611d48565b1690565b3d9150612070565b6040513d6000823e3d90fd5b81810292918115918404141715611e7457565b81156120c4570490565b634e487b7160e01b600052601260045260246000fd5b6120e2611ec1565b60405163020fdf0760e41b8152602092917f00000000000000000000000000000000000000000000000000000000000000006001600160a01b0316918481600481865afa801561209b5785916000916121a5575b50612143906004936120a7565b9260405192838092631629af8760e21b82525afa93841561209b57600094612176575b50509161217391926120ba565b90565b81813d831161219e575b61218a8183611d0e565b81010312610d745751925061217338612166565b503d612180565b9182813d83116121cd575b6121ba8183611d0e565b8101031261010557505184906004612136565b503d6121b0565b600091907f0000000000000000000000000000000000000000000000000000000000000000036122045750504790565b6040516370a0823160e01b815230600482015290602090829060249082906001600160a01b03165afa91821561226f57809261223f57505090565b9091506020823d8211612267575b8161225a60209383611d0e565b8101031261010557505190565b3d915061224d565b604051903d90823e3d90fd5b6040519060a0820182811067ffffffffffffffff8211176110d25760405260006080838281528260208201528260408201528260608201520152565b604051906122c482611cf2565b601082526f32b93916b4b73b30b634b216bab9b2b960811b6020830152565b6020808252825181830181905290939260005b82811061231857505060409293506000838284010152601f8019910116010190565b8181018601518482016040015285016122f6565b156123345750565b60405162461bcd60e51b815290819061235090600483016122e3565b0390fd5b3d1561238f573d9067ffffffffffffffff82116110d25760405191612383601f8201601f191660200184611d0e565b82523d6000602084013e565b606090565b604051906123a182611cf2565b600e82526d195c9c8b5d5b99195c8b58dbdb1b60921b6020830152565b91908203918211611e7457565b600154908115612497576123dd6120da565b926123f9604051926332ed2bf360e01b84526004840190611c69565b60a482015260208160c4817f00000000000000000000000000000000000000000000000000000000000000006001600160a01b03165afa90811561209b57600091612466575b50808310159283612451575b50505090565b61245c9293506123be565b101538808061244b565b906020823d821161248f575b8161247f60209383611d0e565b810103126101055750513861243f565b3d9150612472565b505050600190565b6001600160a01b039081906020906124b690612543565b0151168061253e5750602060049160405192838092633fc8cef360e01b82527f0000000000000000000000000000000000000000000000000000000000000000165afa90811561209b5760009161250b575090565b906020823d8211612536575b8161252460209383611d0e565b81010312610105575061217390611d48565b3d9150612517565b905090565b90600461254e61227b565b60006001600160a01b03612560612010565b16604051938480926317bab80360e11b82525afa91821561209b5760009261260e575b5060005b82518110156125c9578461259b8285611e8a565b5151146125b1575b6125ac90611e65565b612587565b90506125ac6125c08284611e8a565b519190506125a3565b509250508151156125d657565b60405162461bcd60e51b815260206004820152601060248201526f06572722d696e76616c69642d737761760841b6044820152606490fd5b61262291923d8091833e61175d8183611d0e565b9038612583565b91909160e06101008201938160018060a01b039182815116855282602082015116602086015262ffffff60408201511660408601528260608201511660608601526080810151608086015260a081015160a086015260c081015160c0860152015116910152565b60405163a9059cbb60e01b60208201526001600160a01b03909216602483015260448201929092526126c99161070682606481016106f8565b565b60018060a01b03169061272a6040516126e381611cf2565b6020938482527f5361666545524332303a206c6f772d6c6576656c2063616c6c206661696c6564858301526000808587829751910182855af1612724612354565b916127c0565b80519182159184831561279c575b5050509050156127455750565b6084906040519062461bcd60e51b82526004820152602a60248201527f5361666545524332303a204552433230206f7065726174696f6e20646964206e6044820152691bdd081cdd58d8d9595960b21b6064820152fd5b9193818094500103126111d057820151908115158203610105575080388084612738565b9192901561282257508151156127d4575090565b3b156127dd5790565b60405162461bcd60e51b815260206004820152601d60248201527f416464726573733a2063616c6c20746f206e6f6e2d636f6e74726163740000006044820152606490fd5b8251909150156123345750805190602001fdfea26469706673582212201f71de70e5ee386e12429843524899e173f92d811c32e6c07fd5bd1af9e4447c64736f6c63430008110033a26469706673582212202578f72c8e8e299f1bc6e435c681e004441afc9776a38c931dc173bc027bc7fc64736f6c6343000811003360c03461008b57601f61060b38819003918201601f19168301916001600160401b0383118484101761009057808492604094855283398101031261008b5780516020909101516001600160a01b038116919082900361008b5760805260a05260405161056490816100a782396080518161045f015260a05181818160690152818160f6015261031b0152f35b600080fd5b634e487b7160e01b600052604160045260246000fdfe604060808152600436101561001357600080fd5b6000803560e01c91826332ed2bf3146101cc57826353d372121461009c57826369dfc7861461005657505063d4d6c4e21461004e575b600080fd5b610049610299565b34610098578160031936011261009857517f00000000000000000000000000000000000000000000000000000000000000006001600160a01b03168152602090f35b5080fd5b34610098576100aa3661020f565b60608201518351633fabe5a360e21b8082526001600160a01b039493919260a09291908390859060049082908a165afa93841561019e5788946101a8575b5086519081528281600481897f0000000000000000000000000000000000000000000000000000000000000000165afa92831561019e57936101456101589461016398979461014a9461015d9860209d9361016a575b50506103da565b610439565b938782519201511690610459565b6103b6565b90610439565b9051908152f35b61018a929350803d10610197575b61018281836101d7565b810190610404565b5050509050908c8061013e565b503d610178565b87513d8a823e3d90fd5b6101c0919450833d85116101975761018281836101d7565b505050905092886100e8565b505050610049610299565b90601f8019910116810190811067ffffffffffffffff8211176101f957604052565b634e487b7160e01b600052604160045260246000fd5b6003190160c081126100495760a0136100495760405160a0810181811067ffffffffffffffff8211176101f95760405260043581526001600160a01b03602435818116810361004957602083015260443560ff81168103610049576040830152606435908116810361004957606082015260843560ff811681036100495760808201529060a43590565b5034610049576102a83661020f565b906102d760018060a01b03926102d1610158856060860151169486602082519201511690610459565b906103da565b906040519182633fabe5a360e21b9283825281600460a09687935afa801561038657849261030d92600092610392575b506103da565b9160046040518096819382527f0000000000000000000000000000000000000000000000000000000000000000165afa9081156103865760209361035a93600093610362575b5050610439565b604051908152f35b610379929350803d106101975761018281836101d7565b5050509050903880610353565b6040513d6000823e3d90fd5b6103aa919250843d86116101975761018281836101d7565b50505090509038610307565b604d81116103c457600a0a90565b634e487b7160e01b600052601160045260246000fd5b818102929181159184041417156103c457565b519069ffffffffffffffffffff8216820361004957565b908160a091031261004957610418816103ed565b916020820151916040810151916104366080606084015193016103ed565b90565b8115610443570490565b634e487b7160e01b600052601260045260246000fd5b600091907f00000000000000000000000000000000000000000000000000000000000000000361048b57506000919050565b60405163313ce56760e01b815290602090829060049082906001600160a01b03165afa80156105235782906104e7575b60ff9150166012039060ff82116104d3575060ff1690565b634e487b7160e01b81526011600452602490fd5b506020813d821161051b575b81610500602093836101d7565b81010312610098575160ff811681036100985760ff906104bb565b3d91506104f3565b6040513d84823e3d90fdfea2646970667358221220de562f39145f6b69557f9852087b516ccb896dbf523f0dcf0e9738b9528506e564736f6c63430008110033",
    "linkReferences": {}
  },
  "methodIdentifiers": {
    "deploy(address,address,address)": "d9181cd3"
  },
  "id": 81
}