{
  "abi": [
    {
      "inputs": [
        {
          "internalType": "bytes32",
          "name": "_native",
          "type": "bytes32"
        },
        {
          "internalType": "address",
          "name": "_manager",
          "type": "address"
        },
        {
          "internalType": "address",
          "name": "_owner",
          "type": "address"
        },
        {
          "internalType": "address",
          "name": "_euros",
          "type": "address"
        },
        {
          "internalType": "address",
          "name": "_priceCalculator",
          "type": "address"
        }
      ],
      "stateMutability": "nonpayable",
      "type": "constructor"
    },
    {
      "anonymous": false,
      "inputs": [
        {
          "indexed": false,
          "internalType": "address",
          "name": "token",
          "type": "address"
        },
        {
          "indexed": false,
          "internalType": "uint256",
          "name": "amount",
          "type": "uint256"
        },
        {
          "indexed": false,
          "internalType": "address",
          "name": "to",
          "type": "address"
        }
      ],
      "name": "AssetRemoved",
      "type": "event"
    },
    {
      "anonymous": false,
      "inputs": [
        {
          "indexed": false,
          "internalType": "bytes32",
          "name": "symbol",
          "type": "bytes32"
        },
        {
          "indexed": false,
          "internalType": "uint256",
          "name": "amount",
          "type": "uint256"
        },
        {
          "indexed": false,
          "internalType": "address",
          "name": "to",
          "type": "address"
        }
      ],
      "name": "CollateralRemoved",
      "type": "event"
    },
    {
      "anonymous": false,
      "inputs": [
        {
          "indexed": false,
          "internalType": "uint256",
          "name": "amount",
          "type": "uint256"
        },
        {
          "indexed": false,
          "internalType": "uint256",
          "name": "fee",
          "type": "uint256"
        }
      ],
      "name": "EUROsBurned",
      "type": "event"
    },
    {
      "anonymous": false,
      "inputs": [
        {
          "indexed": false,
          "internalType": "address",
          "name": "to",
          "type": "address"
        },
        {
          "indexed": false,
          "internalType": "uint256",
          "name": "amount",
          "type": "uint256"
        },
        {
          "indexed": false,
          "internalType": "uint256",
          "name": "fee",
          "type": "uint256"
        }
      ],
      "name": "EUROsMinted",
      "type": "event"
    },
    {
      "inputs": [],
      "name": "EUROs",
      "outputs": [
        {
          "internalType": "contract IEUROs",
          "name": "",
          "type": "address"
        }
      ],
      "stateMutability": "view",
      "type": "function"
    },
    {
      "inputs": [
        {
          "internalType": "uint256",
          "name": "_amount",
          "type": "uint256"
        }
      ],
      "name": "burn",
      "outputs": [],
      "stateMutability": "nonpayable",
      "type": "function"
    },
    {
      "inputs": [],
      "name": "calculator",
      "outputs": [
        {
          "internalType": "contract IPriceCalculator",
          "name": "",
          "type": "address"
        }
      ],
      "stateMutability": "view",
      "type": "function"
    },
    {
      "inputs": [],
      "name": "liquidate",
      "outputs": [],
      "stateMutability": "nonpayable",
      "type": "function"
    },
    {
      "inputs": [],
      "name": "manager",
      "outputs": [
        {
          "internalType": "address",
          "name": "",
          "type": "address"
        }
      ],
      "stateMutability": "view",
      "type": "function"
    },
    {
      "inputs": [
        {
          "internalType": "address",
          "name": "_to",
          "type": "address"
        },
        {
          "internalType": "uint256",
          "name": "_amount",
          "type": "uint256"
        }
      ],
      "name": "mint",
      "outputs": [],
      "stateMutability": "nonpayable",
      "type": "function"
    },
    {
      "inputs": [],
      "name": "owner",
      "outputs": [
        {
          "internalType": "address",
          "name": "",
          "type": "address"
        }
      ],
      "stateMutability": "view",
      "type": "function"
    },
    {
      "inputs": [
        {
          "internalType": "address",
          "name": "_tokenAddr",
          "type": "address"
        },
        {
          "internalType": "uint256",
          "name": "_amount",
          "type": "uint256"
        },
        {
          "internalType": "address",
          "name": "_to",
          "type": "address"
        }
      ],
      "name": "removeAsset",
      "outputs": [],
      "stateMutability": "nonpayable",
      "type": "function"
    },
    {
      "inputs": [
        {
          "internalType": "bytes32",
          "name": "_symbol",
          "type": "bytes32"
        },
        {
          "internalType": "uint256",
          "name": "_amount",
          "type": "uint256"
        },
        {
          "internalType": "address",
          "name": "_to",
          "type": "address"
        }
      ],
      "name": "removeCollateral",
      "outputs": [],
      "stateMutability": "nonpayable",
      "type": "function"
    },
    {
      "inputs": [
        {
          "internalType": "uint256",
          "name": "_amount",
          "type": "uint256"
        },
        {
          "internalType": "address payable",
          "name": "_to",
          "type": "address"
        }
      ],
      "name": "removeCollateralNative",
      "outputs": [],
      "stateMutability": "nonpayable",
      "type": "function"
    },
    {
      "inputs": [
        {
          "internalType": "address",
          "name": "_newOwner",
          "type": "address"
        }
      ],
      "name": "setOwner",
      "outputs": [],
      "stateMutability": "nonpayable",
      "type": "function"
    },
    {
      "inputs": [],
      "name": "status",
      "outputs": [
        {
          "components": [
            {
              "internalType": "address",
              "name": "vaultAddress",
              "type": "address"
            },
            {
              "internalType": "uint256",
              "name": "minted",
              "type": "uint256"
            },
            {
              "internalType": "uint256",
              "name": "maxMintable",
              "type": "uint256"
            },
            {
              "internalType": "uint256",
              "name": "totalCollateralValue",
              "type": "uint256"
            },
            {
              "components": [
                {
                  "components": [
                    {
                      "internalType": "bytes32",
                      "name": "symbol",
                      "type": "bytes32"
                    },
                    {
                      "internalType": "address",
                      "name": "addr",
                      "type": "address"
                    },
                    {
                      "internalType": "uint8",
                      "name": "dec",
                      "type": "uint8"
                    },
                    {
                      "internalType": "address",
                      "name": "clAddr",
                      "type": "address"
                    },
                    {
                      "internalType": "uint8",
                      "name": "clDec",
                      "type": "uint8"
                    }
                  ],
                  "internalType": "struct ITokenManager.Token",
                  "name": "token",
                  "type": "tuple"
                },
                {
                  "internalType": "uint256",
                  "name": "amount",
                  "type": "uint256"
                },
                {
                  "internalType": "uint256",
                  "name": "collateralValue",
                  "type": "uint256"
                }
              ],
              "internalType": "struct ISmartVault.Asset[]",
              "name": "collateral",
              "type": "tuple[]"
            },
            {
              "internalType": "bool",
              "name": "liquidated",
              "type": "bool"
            },
            {
              "internalType": "uint8",
              "name": "version",
              "type": "uint8"
            },
            {
              "internalType": "bytes32",
              "name": "vaultType",
              "type": "bytes32"
            }
          ],
          "internalType": "struct ISmartVault.Status",
          "name": "",
          "type": "tuple"
        }
      ],
      "stateMutability": "view",
      "type": "function"
    },
    {
      "inputs": [
        {
          "internalType": "bytes32",
          "name": "_inToken",
          "type": "bytes32"
        },
        {
          "internalType": "bytes32",
          "name": "_outToken",
          "type": "bytes32"
        },
        {
          "internalType": "uint256",
          "name": "_amount",
          "type": "uint256"
        }
      ],
      "name": "swap",
      "outputs": [],
      "stateMutability": "nonpayable",
      "type": "function"
    },
    {
      "inputs": [],
      "name": "undercollateralised",
      "outputs": [
        {
          "internalType": "bool",
          "name": "",
          "type": "bool"
        }
      ],
      "stateMutability": "view",
      "type": "function"
    },
    {
      "stateMutability": "payable",
      "type": "receive"
    }
  ],
  "bytecode": {
    "object": "0x610100346200015457601f620029f638819003918201601f19168301916001600160401b03831184841017620001595780849260a0946040528339810103126200015457805162000053602083016200016f565b9162000062604082016200016f565b906200007f608062000077606084016200016f565b92016200016f565b608093909352600080546001600160a01b0319166001600160a01b0393841617905560a09390935291821660c0521660e0526040516128719081620001858239608051818181610c540152818161159e01526121e0015260a0518181816102ca01528181610d8e01528181610f55015281816112260152818161151001528181611c0801528181612034015281816120fb01526124dd015260c051818181610fd9015281816112c9015261187c015260e05181818160d6015281816103dc015281816119cf01528181611f10015261240c0152f35b600080fd5b634e487b7160e01b600052604160045260246000fd5b51906001600160a01b0382168203620001545756fe6080604052600436101561001b575b361561001957600080fd5b005b6000803560e01c806313af403514611bd5578063200d2ed2146118ab578063230f83b81461186657806328a07025146114f557806340c10f19146111d457806342966c6814610f1e57806345453af214610de45780634742989414610dbd578063481c6a7514610d78578063757892fb14610c08578063759f626f1461028a57806377a5ef881461012f5780638da5cb5b146101085763ce3e39c0146100c1575061000e565b346101055780600319360112610105576040517f00000000000000000000000000000000000000000000000000000000000000006001600160a01b03168152602090f35b80fd5b5034610105578060031936011261010557546040516001600160a01b039091168152602090f35b50346101055760603660031901126101055760243560043561014f611c59565b83546001600160a01b039190610171908316331461016b6122bd565b90612332565b602460a08361017e612016565b1660405192838092630aadfa7160e11b82528860048301525afa90811561027f578691610209575b5090846101f48183866020876101ec6101e47f966e7134fef6df86403e48a000ae26287b88635a6c79f2c6ca13df4e1a587a9f9d60609d9c9b6123d1565b61016b61239a565b015116612696565b6040519384526020840152166040820152a180f35b939291905060a03d8111610278575b6102228186611d14565b84019460a085870312610274576101f481838560206102647f966e7134fef6df86403e48a000ae26287b88635a6c79f2c6ca13df4e1a587a9f9b60609b611d70565b96505050949596509650506101a6565b8680fd5b503d610218565b6040513d88823e3d90fd5b50346101055760603660031901126101055780546001600160a01b03906102b7908216331461016b6122bd565b604051633a04801d60e01b8152602091907f00000000000000000000000000000000000000000000000000000000000000008216908381600481855afa908115610841578591610bdb575b5061031060443591826120ad565b60405163020fdf0760e41b80825293918682600481865afa9081156108ff578891610baa575b61034092506120c0565b9160043561034d816124a5565b9460015460405190631629af8760e21b82528982600481895afa9081156109d2578b91610b79575b61037f92506120ad565b6040519182528882600481885afa908115610a18578a91610b48575b6103a592506120c0565b6103b66103b0611ec7565b92612549565b604051636a6b627160e11b815291906103d3906004840190611c6f565b8360a4830152877f00000000000000000000000000000000000000000000000000000000000000001692898360c481875afa9081156109d2578a938c92610b16575b5090610420916123c4565b818110610a9b575050505086925b6024916104458261043f85356124a5565b926123c4565b948780604051986104558a611cab565b16928389521689880152610bb8604088015230606088015242608088015260a0870195865260c08701528860e087015260405190633fc8cef360e01b918281528981600481895afa80156109d25789918c91610a5f575b50160361064a5750604051634673a21360e11b815288918882600481885afa91821561058057839289918491610606575b50918392918392165af16104ef61235a565b50156105cd5750908460049260405193848092631966a23160e31b82525afa90811561027f578592879261058b575b509261054292935160405195868095819463414bf38960e01b83526004830161262f565b0393165af180156105805761055657505080f35b813d8311610579575b6105698183611d14565b810103126105745780f35b600080fd5b503d61055f565b6040513d85823e3d90fd5b8381949293503d83116105c6575b6105a38183611d14565b810103126105c25784926105b961054293611d4e565b9190939261051e565b8580fd5b503d610599565b8560136064926040519262461bcd60e51b84526004840152820152726572722d737761702d6665652d6e617469766560681b6044820152fd5b935050508882813d8311610643575b61061f8183611d14565b8101031261063f5782809291896106368394611d4e565b919350916104dd565b8280fd5b503d610615565b91959397969490848251169060405191634673a21360e11b83528783600481895afa908115610a18578a91610a23575b6106849350612696565b8051604051631966a23160e31b808252918616998782600481895afa918215610a18578a926109dd575b5051908115801561096d575b1561090a576040805163095ea7b360e01b818b01526001600160a01b03909216828b019081526020810193909352999a8b9a61070b93610706918491015b03601f198101845283611d14565b6126d1565b6040519081528581600481875afa80156108ff57859287928a926108be575b509061074d918a60405195868095819463414bf38960e01b83526004830161262f565b0393165af180156108b357610885575b50839060046040518094819382525afa90811561084157859161084c575b50166040516370a0823160e01b815230600482015282818581855afa92831561084157859361080e575b5050816107b4575b5050505080f35b803b1561080957839283926040519485938492632e1a7d4d60e01b845260048401525af180156107fe576107ea575b80806107ad565b6107f390611ce4565b6101055780386107e3565b6040513d84823e3d90fd5b505050fd5b819550809293503d831161083a575b6108278183611d14565b81010312610574578392519038806107a5565b503d61081d565b6040513d87823e3d90fd5b90508281813d831161087e575b6108638183611d14565b8101031261087a5761087490611d4e565b3861077b565b8480fd5b503d610859565b84809297503d83116108ac575b61089c8183611d14565b810103126105745785943861075d565b503d610892565b6040513d89823e3d90fd5b935091905082813d83116108f8575b6108d78183611d14565b810103126108f45761074d86916108ee8794611d4e565b9161072a565b8780fd5b503d6108cd565b6040513d8a823e3d90fd5b60405162461bcd60e51b8152600481018990526036818b01527f5361666545524332303a20617070726f76652066726f6d206e6f6e2d7a65726f60448201527520746f206e6f6e2d7a65726f20616c6c6f77616e636560501b6064820152608490fd5b50604051636eb1769f60e11b8152306004820152818816818b015288816044818f5afa9081156109d2578b916109a5575b50156106ba565b90508881813d83116109cb575b6109bc8183611d14565b8101031261057457513861099e565b503d6109b2565b6040513d8d823e3d90fd5b9091508781813d8311610a11575b6109f58183611d14565b81010312610a0d57610a0690611d4e565b90386106ae565b8980fd5b503d6109eb565b6040513d8c823e3d90fd5b919290508781813d8311610a58575b610a3c8183611d14565b81010312610a0d5790610a526106849392611d4e565b9061067a565b503d610a32565b8092508b8092503d8311610a94575b610a788183611d14565b81010312610a9057610a8a8991611d4e565b386104ac565b8a80fd5b503d610a6e565b610acd91610ab060c49261043f602435612549565b9460405195869485936329e9b90960e11b85526004850190611c6f565b60a48301525afa9081156108ff578891610ae9575b509261042e565b90508681813d8311610b0f575b610b008183611d14565b81010312610574575138610ae2565b503d610af6565b8092508491943d8311610b41575b610b2e8183611d14565b8101031261057457518992610420610415565b503d610b24565b90508882813d8311610b72575b610b5f8183611d14565b81010312610574576103a591519061039b565b503d610b55565b90508982813d8311610ba3575b610b908183611d14565b810103126105745761037f915190610375565b503d610b86565b90508682813d8311610bd4575b610bc18183611d14565b8101031261057457610340915190610336565b503d610bb7565b90508381813d8311610c01575b610bf28183611d14565b81010312610574575138610302565b503d610be8565b5034610105576040366003190112610105576001600160a01b036024358181169160043591839003610d7457610c4581855416331461016b6122bd565b610c4d612016565b16602460a07f00000000000000000000000000000000000000000000000000000000000000009260405192838092630aadfa7160e11b82528660048301525afa80156108415783918691610d30575b50610caa916101e4916123d1565b8380808085875af1610cba61235a565b5015610cf9577f966e7134fef6df86403e48a000ae26287b88635a6c79f2c6ca13df4e1a587a9f9260609260405192835260208301526040820152a180f35b60405162461bcd60e51b815260206004820152600f60248201526e195c9c8b5b985d1a5d994b58d85b1b608a1b6044820152606490fd5b91505060a03d8111610d6d575b610d478183611d14565b81019060a0818303126105c25783610d65610caa936101e493611d70565b915091610c9c565b503d610d3d565b8380fd5b50346101055780600319360112610105576040517f00000000000000000000000000000000000000000000000000000000000000006001600160a01b03168152602090f35b50346101055780600319360112610105576020600154610ddb6120e0565b10604051908152f35b503461010557606036600319011261010557610dfe611c43565b60243590610e0a611c59565b83546001600160a01b039190610e26908316331461016b6122bd565b8160a081610e32612016565b1694602460405180948193635ac40be560e11b835216978860048301525afa90811561027f578691610eb7575b5090847f40dd89f89ba970a68f1a96ac519a462bebcd9ab26318956507cd6b95b40573fe958386866020606099989701511614610ea3575b506101f4908386612696565b610eb0916101e4916123d1565b8038610e97565b939291905060a03d8111610f17575b610ed08186611d14565b84019460a0858703126102745780610f0b7f40dd89f89ba970a68f1a96ac519a462bebcd9ab26318956507cd6b95b40573fe97606097611d70565b92939495509550610e5f565b503d610ec6565b5034610105576020806003193601126111d0576001546004358082106111975760405163284dfa1560e11b81526001600160a01b037f00000000000000000000000000000000000000000000000000000000000000008116949093918181600481895afa80156108b3578790611168575b610f9a9150846120ad565b60405163020fdf0760e41b815282816004818a5afa9182156108ff5785918993611133575b50610fd392610fcd916120c0565b936123c4565b600155837f00000000000000000000000000000000000000000000000000000000000000001693843b1561027457604051632770a7eb60e21b81523360048201526024810185905287908181604481838b5af180156107fe5761111f575b50508160049660405197888092634673a21360e11b82525afa9586156108b35787966110e8575b506040516323b872dd60e01b83820152336024820152951660448601526064808601839052855260a0850167ffffffffffffffff8111868210176110d2577f11866d79e883ef76a8df76018da414b8adda0b169b1fb32d78b7bb69d722f1c7956040956110c69287526126d1565b8351928352820152a180f35b634e487b7160e01b600052604160045260246000fd5b9095508181813d8311611118575b6111008183611d14565b810103126102745761111190611d4e565b9438611058565b503d6110f6565b61112890611ce4565b610274578638611031565b925090508282813d8111611161575b61114c8183611d14565b81010312610574579051908490610fcd610fbf565b503d611142565b508181813d8311611190575b61117e8183611d14565b8101031261057457610f9a9051610f8f565b503d611174565b60405162461bcd60e51b8152600481018490526011602482015270195c9c8b5a5b9cdd59998b5b5a5b9d1959607a1b6044820152606490fd5b5080fd5b5034610105576040366003190112610105576111ee611c43565b6024359060018060a01b0361120a81855416331461016b6122bd565b60ff600254166114bf576040516318819a3160e01b81526020937f0000000000000000000000000000000000000000000000000000000000000000831692918581600481875afa80156108b3578790611490575b6112699150826120ad565b60405163020fdf0760e41b8152908682600481885afa9081156108ff57889161145f575b61129792506120c0565b926112c3826001546112be6112ac8383611eba565b6112b46120e0565b101561016b61239a565b611eba565b600155827f000000000000000000000000000000000000000000000000000000000000000016906112f485846123c4565b90823b1561145b576040516340c10f1960e01b8082526001600160a01b03891660048301526024820193909352898160448183885af18015610a1857611441575b50889291886004926040519384809263202375d760e11b82525afa9182156114365784926113ff575b50823b15610d74576040519081526001600160a01b03919091166004820152602481018690529082908290604490829084905af180156107fe576113e3575b507f3036ce329e9ad4b1809126716eca4fc0efa59790b0b36ef8754bf2e1baa9f54d60608686868a6113cf83896123c4565b91604051941684528301526040820152a180f35b6113f1909594939295611ce4565b6105c257909192853861139d565b9091508881813d831161142f575b6114178183611d14565b81010312610d745761142890611d4e565b903861135e565b503d61140d565b6040513d86823e3d90fd5b9188996114516004939594611ce4565b9950919290611335565b8880fd5b90508682813d8311611489575b6114768183611d14565b810103126108f45761129791519061128d565b503d61146c565b508581813d83116114b8575b6114a68183611d14565b8101031261027457611269905161125e565b503d61149c565b60405162461bcd60e51b815260206004820152600e60248201526d195c9c8b5b1a5c5d5a59185d195960921b6044820152606490fd5b50346101055780600319360112610105576001600160a01b037f0000000000000000000000000000000000000000000000000000000000000000811661154461153c6122bd565b823314612332565b60019081546115516120e0565b101561182a578160ff19600254161760025583825547611772575b8284600494611579612016565b16604051958680926317bab80360e11b82525afa93841561084157859461174e575b507f000000000000000000000000000000000000000000000000000000000000000085845b6115c8578680f35b855181101561174a57816115dc8288611e90565b5151036115f3575b6115ed90611e6b565b846115c0565b6020908382611602838a611e90565b5101511691604051926370a0823160e01b9384815230600482015260249083818381865afa908115611712578c9161171d575b50611645575b50505090506115e4565b60405163202375d760e11b81529483866004818c5afa958615611712578c966116d6575b508390604051928391825230600483015281855afa9283156109d2578b936116a4575b5050906115ed9361169c92612696565b38808061163b565b90809350813d83116116cf575b6116bb8183611d14565b81010312610a0d579051908361169c61168c565b503d6116b1565b9095508381813d831161170b575b6116ee8183611d14565b81010312611707576117008491611d4e565b9590611669565b8b80fd5b503d6116e4565b6040513d8e823e3d90fd5b90508381813d8311611743575b6117348183611d14565b81010312611707575138611635565b503d61172a565b8680f35b61176b9194503d8087833e6117638183611d14565b810190611de3565b923861159b565b60405163202375d760e11b81528490602081600481865afa80156107fe57829182916117ec575b50818091874791165af16117ab61235a565b5061156c5760405162461bcd60e51b81526020600482015260146024820152736572722d6e61746976652d6c697175696461746560601b6044820152606490fd5b9150506020813d8211611822575b8161180760209383611d14565b810103126111d057818061181b8193611d4e565b9150611799565b3d91506117fa565b60405162461bcd60e51b81526020600482015260146024820152736572722d6e6f742d6c6971756964617461626c6560601b6044820152606490fd5b50346101055780600319360112610105576040517f00000000000000000000000000000000000000000000000000000000000000006001600160a01b03168152602090f35b50346101055780600319360112610105578060e06040516118cb81611cab565b828152826020820152826040820152826060820152606060808201528260a08201528260c082015201526001546119006120e0565b91600461190b611ec7565b92826001600160a01b0361191d612016565b16604051938480926317bab80360e11b82525afa918215610580578392611bb9575b5081519461194c86611d36565b9561195a6040519788611d14565b808752611969601f1991611d36565b01845b818110611b89575050835b8351811015611a7f5761198a8185611e90565b51906119a4825160018060a01b03602085015116906121da565b6040516332ed2bf360e01b815292906119c06004850183611c6f565b60a4840181905260208460c4817f00000000000000000000000000000000000000000000000000000000000000006001600160a01b03165afa9081156108ff578891611a45575b611a40945060405192611a1984611cc8565b835260208301526040820152611a2f828a611e90565b52611a3a8189611e90565b50611e6b565b611977565b91929390506020813d602011611a77575b81611a6360209383611d14565b810103126108f45751611a40939291611a07565b3d9150611a56565b508390868660ff600254169260405195611a9887611cab565b3087526020870152604086015260608501526080840152151560a0830152600260c0830152644555524f7360d81b60e08301526040519060208252610120820160018060a01b038451166020840152602084015160408401526040840151606084015260608401516080840152608084015191610100918260a08601528351809152602061014086019401915b818110611b555750505060e08460a085960151151560c086015260ff60c082015116828601520151908301520390f35b909193602060e060019260408851611b6e838251611c6f565b8085015160a0840152015160c0820152019501929101611b25565b602090604051611b9881611cc8565b611ba0612281565b8152878382015287604082015282828b0101520161196c565b611bce9192503d8085833e6117638183611d14565b903861193f565b503461010557602036600319011261010557611bef611c43565b611bf76122bd565b6001600160a01b039190611c2f90337f0000000000000000000000000000000000000000000000000000000000000000851614612332565b82546001600160a01b031916911617815580f35b600435906001600160a01b038216820361057457565b604435906001600160a01b038216820361057457565b60ff608080928051855260018060a01b038060208301511660208701528360408301511660408701526060820151166060860152015116910152565b610100810190811067ffffffffffffffff8211176110d257604052565b6060810190811067ffffffffffffffff8211176110d257604052565b67ffffffffffffffff81116110d257604052565b6040810190811067ffffffffffffffff8211176110d257604052565b90601f8019910116810190811067ffffffffffffffff8211176110d257604052565b67ffffffffffffffff81116110d25760051b60200190565b51906001600160a01b038216820361057457565b519060ff8216820361057457565b91908260a09103126105745760405160a0810181811067ffffffffffffffff8211176110d2576040526080611dde81839580518552611db160208201611d4e565b6020860152611dc260408201611d62565b6040860152611dd360608201611d4e565b606086015201611d62565b910152565b60209081818403126105745780519067ffffffffffffffff8211610574570182601f8201121561057457805191611e1983611d36565b93611e276040519586611d14565b838552818501908260a080960285010193818511610574578301915b848310611e535750505050505090565b838691611e608486611d70565b815201920191611e43565b6000198114611e7a5760010190565b634e487b7160e01b600052601160045260246000fd5b8051821015611ea45760209160051b010190565b634e487b7160e01b600052603260045260246000fd5b91908201809211611e7a57565b60009081906001600160a01b038281611ede612016565b16926040928351958680966317bab80360e11b825260049788915afa95861561200c578396611ff0575b5082969194817f000000000000000000000000000000000000000000000000000000000000000016925b8751891015611fe557611f458989611e90565b51805190611f5b602092868484015116906121da565b88516332ed2bf360e01b815291611f759086840190611c6f565b60a4820152818160c481895afa918215611fdb578792611fab575b5050611f9f90611fa592611eba565b98611e6b565b97611f32565b90809250813d8311611fd4575b611fc28183611d14565b810103126105c2575181611f9f611f90565b503d611fb8565b88513d89823e3d90fd5b975050505050509050565b6120059196503d8085833e6117638183611d14565b9438611f08565b84513d85823e3d90fd5b604051630a9c26c560e21b81526001600160a01b03906020816004817f000000000000000000000000000000000000000000000000000000000000000086165afa9081156120a15760009161206a57501690565b906020823d8211612099575b8161208360209383611d14565b81010312610105575061209590611d4e565b1690565b3d9150612076565b6040513d6000823e3d90fd5b81810292918115918404141715611e7a57565b81156120ca570490565b634e487b7160e01b600052601260045260246000fd5b6120e8611ec7565b60405163020fdf0760e41b8152602092917f00000000000000000000000000000000000000000000000000000000000000006001600160a01b0316918481600481865afa80156120a15785916000916121ab575b50612149906004936120ad565b9260405192838092631629af8760e21b82525afa9384156120a15760009461217c575b50509161217991926120c0565b90565b81813d83116121a4575b6121908183611d14565b81010312610d74575192506121793861216c565b503d612186565b9182813d83116121d3575b6121c08183611d14565b810103126101055750518490600461213c565b503d6121b6565b600091907f00000000000000000000000000000000000000000000000000000000000000000361220a5750504790565b6040516370a0823160e01b815230600482015290602090829060249082906001600160a01b03165afa91821561227557809261224557505090565b9091506020823d821161226d575b8161226060209383611d14565b8101031261010557505190565b3d9150612253565b604051903d90823e3d90fd5b6040519060a0820182811067ffffffffffffffff8211176110d25760405260006080838281528260208201528260408201528260608201520152565b604051906122ca82611cf8565b601082526f32b93916b4b73b30b634b216bab9b2b960811b6020830152565b6020808252825181830181905290939260005b82811061231e57505060409293506000838284010152601f8019910116010190565b8181018601518482016040015285016122fc565b1561233a5750565b60405162461bcd60e51b815290819061235690600483016122e9565b0390fd5b3d15612395573d9067ffffffffffffffff82116110d25760405191612389601f8201601f191660200184611d14565b82523d6000602084013e565b606090565b604051906123a782611cf8565b600e82526d195c9c8b5d5b99195c8b58dbdb1b60921b6020830152565b91908203918211611e7a57565b60015490811561249d576123e36120e0565b926123ff604051926332ed2bf360e01b84526004840190611c6f565b60a482015260208160c4817f00000000000000000000000000000000000000000000000000000000000000006001600160a01b03165afa9081156120a15760009161246c575b50808310159283612457575b50505090565b6124629293506123c4565b1015388080612451565b906020823d8211612495575b8161248560209383611d14565b8101031261010557505138612445565b3d9150612478565b505050600190565b6001600160a01b039081906020906124bc90612549565b015116806125445750602060049160405192838092633fc8cef360e01b82527f0000000000000000000000000000000000000000000000000000000000000000165afa9081156120a157600091612511575090565b906020823d821161253c575b8161252a60209383611d14565b81010312610105575061217990611d4e565b3d915061251d565b905090565b906004612554612281565b60006001600160a01b03612566612016565b16604051938480926317bab80360e11b82525afa9182156120a157600092612614575b5060005b82518110156125cf57846125a18285611e90565b5151146125b7575b6125b290611e6b565b61258d565b90506125b26125c68284611e90565b519190506125a9565b509250508151156125dc57565b60405162461bcd60e51b815260206004820152601060248201526f06572722d696e76616c69642d737761760841b6044820152606490fd5b61262891923d8091833e6117638183611d14565b9038612589565b91909160e06101008201938160018060a01b039182815116855282602082015116602086015262ffffff60408201511660408601528260608201511660608601526080810151608086015260a081015160a086015260c081015160c0860152015116910152565b60405163a9059cbb60e01b60208201526001600160a01b03909216602483015260448201929092526126cf9161070682606481016106f8565b565b60018060a01b0316906127306040516126e981611cf8565b6020938482527f5361666545524332303a206c6f772d6c6576656c2063616c6c206661696c6564858301526000808587829751910182855af161272a61235a565b916127c6565b8051918215918483156127a2575b50505090501561274b5750565b6084906040519062461bcd60e51b82526004820152602a60248201527f5361666545524332303a204552433230206f7065726174696f6e20646964206e6044820152691bdd081cdd58d8d9595960b21b6064820152fd5b9193818094500103126111d05782015190811515820361010557508038808461273e565b9192901561282857508151156127da575090565b3b156127e35790565b60405162461bcd60e51b815260206004820152601d60248201527f416464726573733a2063616c6c20746f206e6f6e2d636f6e74726163740000006044820152606490fd5b82519091501561233a5750805190602001fdfea2646970667358221220cd79c06852dddfd7f53ebe23dc03355e1276f147eaa2c1ee1e46c1a7824597e264736f6c63430008110033",
    "linkReferences": {}
  },
  "methodIdentifiers": {
    "EUROs()": "230f83b8",
    "burn(uint256)": "42966c68",
    "calculator()": "ce3e39c0",
    "liquidate()": "28a07025",
    "manager()": "481c6a75",
    "mint(address,uint256)": "40c10f19",
    "owner()": "8da5cb5b",
    "removeAsset(address,uint256,address)": "45453af2",
    "removeCollateral(bytes32,uint256,address)": "77a5ef88",
    "removeCollateralNative(uint256,address)": "757892fb",
    "setOwner(address)": "13af4035",
    "status()": "200d2ed2",
    "swap(bytes32,bytes32,uint256)": "759f626f",
    "undercollateralised()": "47429894"
  },
  "id": 3
}