{
  "abi": [
    {
      "inputs": [
        {
          "internalType": "address",
          "name": "_TST",
          "type": "address"
        },
        {
          "internalType": "address",
          "name": "_EUROs",
          "type": "address"
        },
        {
          "internalType": "address",
          "name": "_smartVaultManager",
          "type": "address"
        },
        {
          "internalType": "address",
          "name": "_eurUsd",
          "type": "address"
        },
        {
          "internalType": "address payable",
          "name": "_protocol",
          "type": "address"
        },
        {
          "internalType": "uint32",
          "name": "_poolFeePercentage",
          "type": "uint32"
        }
      ],
      "stateMutability": "nonpayable",
      "type": "constructor"
    },
    {
      "anonymous": false,
      "inputs": [
        {
          "indexed": true,
          "internalType": "address",
          "name": "previousOwner",
          "type": "address"
        },
        {
          "indexed": true,
          "internalType": "address",
          "name": "newOwner",
          "type": "address"
        }
      ],
      "name": "OwnershipTransferred",
      "type": "event"
    },
    {
      "inputs": [],
      "name": "HUNDRED_PC",
      "outputs": [
        {
          "internalType": "uint32",
          "name": "",
          "type": "uint32"
        }
      ],
      "stateMutability": "view",
      "type": "function"
    },
    {
      "inputs": [],
      "name": "distributeFees",
      "outputs": [],
      "stateMutability": "nonpayable",
      "type": "function"
    },
    {
      "inputs": [],
      "name": "owner",
      "outputs": [
        {
          "internalType": "address",
          "name": "",
          "type": "address"
        }
      ],
      "stateMutability": "view",
      "type": "function"
    },
    {
      "inputs": [],
      "name": "pool",
      "outputs": [
        {
          "internalType": "address",
          "name": "",
          "type": "address"
        }
      ],
      "stateMutability": "view",
      "type": "function"
    },
    {
      "inputs": [],
      "name": "poolFeePercentage",
      "outputs": [
        {
          "internalType": "uint32",
          "name": "",
          "type": "uint32"
        }
      ],
      "stateMutability": "view",
      "type": "function"
    },
    {
      "inputs": [],
      "name": "renounceOwnership",
      "outputs": [],
      "stateMutability": "nonpayable",
      "type": "function"
    },
    {
      "inputs": [
        {
          "internalType": "uint256",
          "name": "_tokenId",
          "type": "uint256"
        }
      ],
      "name": "runLiquidation",
      "outputs": [],
      "stateMutability": "nonpayable",
      "type": "function"
    },
    {
      "inputs": [
        {
          "internalType": "uint32",
          "name": "_poolFeePercentage",
          "type": "uint32"
        }
      ],
      "name": "setPoolFeePercentage",
      "outputs": [],
      "stateMutability": "nonpayable",
      "type": "function"
    },
    {
      "inputs": [],
      "name": "smartVaultManager",
      "outputs": [
        {
          "internalType": "address",
          "name": "",
          "type": "address"
        }
      ],
      "stateMutability": "view",
      "type": "function"
    },
    {
      "inputs": [
        {
          "internalType": "address",
          "name": "newOwner",
          "type": "address"
        }
      ],
      "name": "transferOwnership",
      "outputs": [],
      "stateMutability": "nonpayable",
      "type": "function"
    },
    {
      "stateMutability": "payable",
      "type": "receive"
    }
  ],
  "bytecode": {
    "object": "0x6101206040818152346200024c5760c0826200309e803803809162000025828562000251565b8339810103126200024c576200003b826200028b565b6020906200004b8285016200028b565b90620000598486016200028b565b62000067606087016200028b565b9260808701519260018060a01b039788851685036200024c5760a001519463ffffffff861686036200024c57600096898189543360018060a01b03198216178b5560048b8d5194859384927f8be0079c531659141344cd1fd0a4f28419497f9722a3daafe3b4186f6b6457e0833393169180a3630a9c26c560e21b82528a165afa9081156200024257899162000201575b50895192611e2080850193906001600160401b03851186861017620001ed57928d60809593819388966200127e8839828a168652828b1690860152168d84015216606082015203019087f0978815620001e3576101009816885260805260a05260c05260e05281549063ffffffff60a01b9060a01b169063ffffffff60a01b191617905551610fdd9182620002a1833960805182505060a05182610c33015260c05182818161019901526102ac015260e0518281816106d0015281816107af0152610cee0152518181816104a2015281816105d00152818161064d01528181610b900152610dad0152f35b87513d88823e3d90fd5b634e487b7160e01b8c52604160045260248cfd5b90508181813d83116200023a575b6200021b818362000251565b8101031262000236576200022f906200028b565b38620000f8565b8880fd5b503d6200020f565b8a513d8b823e3d90fd5b600080fd5b601f909101601f19168101906001600160401b038211908210176200027557604052565b634e487b7160e01b600052604160045260246000fd5b51906001600160a01b03821682036200024c5756fe608080604052600436101561001d575b50361561001b57600080fd5b005b600090813560e01c90816316f0115b14610b7c5750806320fdf07014610b5e5780632d9f88d414610b385780636f14266c14610298578063715018a61461023e5780638a5fda0b146101ef5780638da5cb5b146101c8578063a631ab4514610183578063bb57ad20146101675763f2fde38b0361000f5734610164576020366003190112610164576004356001600160a01b0381811691829003610160576100c3610f4f565b811561010c57600054826bffffffffffffffffffffffff60a01b821617600055167f8be0079c531659141344cd1fd0a4f28419497f9722a3daafe3b4186f6b6457e0600080a380f35b60405162461bcd60e51b815260206004820152602660248201527f4f776e61626c653a206e6577206f776e657220697320746865207a65726f206160448201526564647265737360d01b6064820152608490fd5b8280fd5b80fd5b5034610164578060031936011261016457610180610c29565b80f35b50346101645780600319360112610164576040517f00000000000000000000000000000000000000000000000000000000000000006001600160a01b03168152602090f35b5034610164578060031936011261016457546040516001600160a01b039091168152602090f35b50346101645760203660031901126101645760043563ffffffff8116810361023a57610219610f4f565b815463ffffffff60a01b191660a09190911b63ffffffff60a01b1617815580f35b5080fd5b5034610164578060031936011261016457610257610f4f565b600080546001600160a01b0319811682556001600160a01b03167f8be0079c531659141344cd1fd0a4f28419497f9722a3daafe3b4186f6b6457e08280a380f35b5034610164576020366003190112610164577f00000000000000000000000000000000000000000000000000000000000000006001600160a01b031690813b156101645760405163486785dd60e11b81526004803590820152818160248183875af1801561087d57610b29575b509061030f610c29565b604051630a9c26c560e21b8152602081600481855afa908115610b1e578391610ade575b506040516317bab80360e11b815292908190849060049082906001600160a01b03165afa928315610ad15781936109c5575b5082519261037284610eda565b936103806040519586610bef565b80855261038f601f1991610eda565b01825b8181106109535750508192825b825181101561057d576103b28184610f25565b5160208101519095906001600160a01b0316806104135750506103dd904795866103e2575b50610f00565b61039f565b604051906103ef82610bd3565b81528660208201526104018289610f25565b5261040c8188610f25565b50386103d7565b9095604051906370a0823160e01b8252306004830152602082602481865afa9182156105725790879392918492610536575b5081610459575b505050506103dd90610f00565b916104de916020936040519061046e82610bd3565b8152818582015261047f878d610f25565b5261048a868c610f25565b5060405163095ea7b360e01b81526001600160a01b037f0000000000000000000000000000000000000000000000000000000000000000166004820152602481019190915293849283919082906044820190565b03925af1801561052b57906103dd92916104fc575b8591928161044c565b61051d9060203d602011610524575b6105158183610bef565b810190610c11565b50386104f3565b503d61050b565b6040513d87823e3d90fd5b935090506020833d60201161056a575b8161055360209383610bef565b81010312610565578692519038610445565b600080fd5b3d9150610546565b6040513d89823e3d90fd5b50604051631629af8760e21b815285949091602083600481845afa92831561052b57859361091e575b5060206004916040519283809263020fdf0760e41b82525afa90811561052b5785916108ec575b507f00000000000000000000000000000000000000000000000000000000000000006001600160a01b03163b156108e857604051926305fd847f60e51b845260648401606060048601528751809152602060848601980190875b8181106108885750505060248401526044830152929391928492839183918290039082907f00000000000000000000000000000000000000000000000000000000000000006001600160a01b03165af1801561087d57610869575b50805b825181101561086557602061069a8285610f25565b510180516001600160a01b0316806107575750509047806106c8575b50506106c190610f00565b8290610685565b8190819081907f00000000000000000000000000000000000000000000000000000000000000006001600160a01b03165af13d15610752573d67ffffffffffffffff811161073e5760405190610728601f8201601f191660200183610bef565b81528460203d92013e5b156101605782846106b6565b634e487b7160e01b85526041600452602485fd5b610732565b906020602492604051938480926370a0823160e01b82523060048301525afa91821561082357849261082e575b5081610797575b50506106c19150610f00565b5160405163a9059cbb60e01b81526001600160a01b037f000000000000000000000000000000000000000000000000000000000000000081166004830152602482019390935293602092859260449284929091165af1918215610823576106c192610804575b849261078b565b61081c9060203d602011610524576105158183610bef565b50846107fd565b6040513d86823e3d90fd5b935090506020833d60201161085d575b8161084b60209383610bef565b81010312610565578492519086610784565b3d915061083e565b5080f35b61087290610bbf565b61023a578183610682565b6040513d84823e3d90fd5b909198602060c0600192828d51805180518452868060a01b0383820151168385015260ff806040830151166040860152878060a01b0360608301511660608601526080809201511690840152015160a0820152019a019101919091610627565b8480fd5b90506020813d602011610916575b8161090760209383610bef565b810103126105655751866105cd565b3d91506108fa565b9092506020813d60201161094b575b8161093a60209383610bef565b8101031261056557519160206105a6565b3d915061092d565b6040519061096082610bd3565b6040519160a083019280841067ffffffffffffffff8511176109af5760209360405286815286848201528660408201528660608201528660808201528152858382015282828901015201610392565b634e487b7160e01b600052604160045260246000fd5b9092503d8084833e6109d78183610bef565b810190602081830312610acd57805167ffffffffffffffff91828211610ac9570182601f820112156108e857805191610a0f83610eda565b93610a1d6040519586610bef565b8385526020850190602060a080960285010193818511610ac557602001915b848310610a50575050505050509138610365565b8583830312610ac5576040519086820190828210868311176109af57879260209260405285518152610a83838701610ec6565b83820152610a9360408701610ef2565b60408201526060610aa5818801610ec6565b908201526080610ab6818801610ef2565b90820152815201920191610a3c565b8880fd5b8580fd5b8380fd5b50604051903d90823e3d90fd5b90506020813d602011610b16575b81610af960209383610bef565b81010312610160579180610b0e600494610ec6565b919350610333565b3d9150610aec565b6040513d85823e3d90fd5b610b3290610bbf565b38610305565b503461016457806003193601126101645763ffffffff6020915460a01c16604051908152f35b50346101645780600319360112610164576020604051620186a08152f35b90503461023a578160031936011261023a577f00000000000000000000000000000000000000000000000000000000000000006001600160a01b03168152602090f35b67ffffffffffffffff81116109af57604052565b6040810190811067ffffffffffffffff8211176109af57604052565b90601f8019910116810190811067ffffffffffffffff8211176109af57604052565b90816020910312610565575180151581036105655790565b60018060a01b03807f00000000000000000000000000000000000000000000000000000000000000001660408051926370a0823160e01b808552600091600490308288015260209687816024818a5afa908115610ebc578591610e8f575b5063ffffffff855460a01c1690818102918183041490151715610e7c57620186a090049081610d9f575b5050835191825230818301528582602481885afa918215610d9557908692918492610d62575b50845163a9059cbb60e01b81526001600160a01b037f0000000000000000000000000000000000000000000000000000000000000000169181019182526020820192909252909485918290859082906040015b03925af1918215610d58575050610d3f575050565b81610d5592903d10610524576105158183610bef565b50565b51903d90823e3d90fd5b8381949293503d8311610d8e575b610d7a8183610bef565b810103126105655790518591610d2a610cd7565b503d610d70565b84513d85823e3d90fd5b855163095ea7b360e01b81527f00000000000000000000000000000000000000000000000000000000000000006001600160a01b038116858301908152602081018590529091908a908290819060400103818a8d5af18015610e7257610e55575b501690813b156108e85784916024839288519485938492636029bf9f60e01b8452888401525af18015610e4b57610e38575b80610cb1565b610e4490939193610bbf565b9138610e32565b85513d86823e3d90fd5b610e6b908a3d8c11610524576105158183610bef565b5038610e00565b88513d89823e3d90fd5b634e487b7160e01b855260118352602485fd5b90508781813d8311610eb5575b610ea68183610bef565b810103126108e8575138610c87565b503d610e9c565b86513d87823e3d90fd5b51906001600160a01b038216820361056557565b67ffffffffffffffff81116109af5760051b60200190565b519060ff8216820361056557565b6000198114610f0f5760010190565b634e487b7160e01b600052601160045260246000fd5b8051821015610f395760209160051b010190565b634e487b7160e01b600052603260045260246000fd5b6000546001600160a01b03163303610f6357565b606460405162461bcd60e51b815260206004820152602060248201527f4f776e61626c653a2063616c6c6572206973206e6f7420746865206f776e65726044820152fdfea2646970667358221220865f89bf9a88af0f4cdd80a389eff26a301f86948cad420eb7ecb96c2f4da47564736f6c6343000811003360e034620000f457601f62001e2038819003918201601f19168301916001600160401b03831184841017620000f957808492608094604052833981010312620000f4576200004d816200010f565b906200005c602082016200010f565b62000078606062000070604085016200010f565b93016200010f565b9260805260a05260c05260018060a01b03199060018060a01b031681600554161760055533906004541617600455604051611cfb9081620001258239608051818181610c4b015261108c015260a051818181610514015281816109fd01528181610c1801528181610cdf015261103f015260c0518161010c0152f35b600080fd5b634e487b7160e01b600052604160045260246000fd5b51906001600160a01b0382168203620000f45756fe60c0604052600436101561001257600080fd5b6000803560e01c80632a11ced0146113565780632a709b141461132d578063372500ab1461112f5780633bacfca914610e1f578063481c6a7514610df65780636029bf9f14610c965780636fe5452c14610af5578063b7648fb9146106f25763bfb08fe01461008057600080fd5b60603660031901126106ef5767ffffffffffffffff60043581811161058a573660238201121561058a578060040135906100b982611497565b926100c76040519485611475565b8284526020840190602460c0809502840101923684116106eb57602401915b83831061063a5786866100f76117fb565b604051633fabe5a360e21b815260a0816004817f00000000000000000000000000000000000000000000000000000000000000006001600160a01b03165afa90811561062f57839161060b575b5082918384545b80821061059957505083918490855b868054821015610475575061016e81611399565b905460018060a01b039160031b1c16875260016020526040872060026040519161019783611421565b80546001600160a01b0316835260018101546020840152015460408201526101be81611a66565b80610225575b5090610220916101d382611399565b60018060a01b0391549060031b1c168952600160205260026040808b209260018060a01b038151166001600160601b0360a01b855416178455602081015160018501550151910155611532565b61015a565b979092948197949692975b8151811015610462576102438183611714565b51602081015161025d575b5061025890611532565b610230565b805160600151604051633fabe5a360e21b8152929991959060a090849060049082906001600160a01b03165afa928315610457578c89918795610417575b50906102ae6102b39260208a01516114ff565b611512565b9260ff9081604089510151166012039082821161040357604d83831611610403576102fe92916102f98d6102ae6102ae946102f9602435976044359616600a0a8c6114ff565b6114ff565b9060408801518083116103e5575b5090610396916103208260408b01516117ee565b60408a8101919091528951895151915160609190911b6bffffffffffffffffffffffff1916602080830191825260348084019490945292825261037a9291610369605482611475565b604051938492839251928391611728565b8101600281520301902061038f8682546114dc565b90556114dc565b9451602001516001600160a01b0316806103c05750610258916103b8916114dc565b975b9061024e565b60045491996102589390926103e09230916001600160a01b031690611ac5565b6103ba565b916102ae610396936103f793966114ff565b9260408801519161030c565b634e487b7160e01b88526011600452602488fd5b6102b3929195506104426102ae9160a03d60a011610450575b61043a8183611475565b810190611a31565b50505090509591925061029b565b503d610430565b6040513d87823e3d90fd5b50909750929590949293916102206101c4565b8385828880610512575b505b815181101561050e576001600160a01b03602061049e8385611714565b515101511615806104f9575b6104bd575b6104b890611532565b610481565b8380808060018060a01b03600454166104e48860206104dc898b611714565b5101516117ee565b905af16104ef6119da565b506104af575b8380fd5b506105048183611714565b51515115156104aa565b8380f35b7f00000000000000000000000000000000000000000000000000000000000000006001600160a01b0316803b1561058a57604051632770a7eb60e21b8152306004820152602481019290925282908290604490829084905af1801561058e571561047f5761057f9061140d565b61058a57828461047f565b8280fd5b6040513d84823e3d90fd5b90936105ff610605916105ab87611399565b60018060a01b0391549060031b1c1688526105f9600180602052600260408b20604051926105d884611421565b81546001600160a01b03168452810154602084015201546040820152611a66565b906114dc565b94611532565b9061014b565b610624915060a03d60a0116104505761043a8183611475565b505050905083610144565b6040513d85823e3d90fd5b823603908582126106e757604051906040820191808310858411176106d1578260405260a08094126106cd57879383610674602095611459565b873581526106838589016113f9565b60608401526106b561069760408a016114af565b608090818601526106aa60608b016113f9565b8486015289016114af565b868401528252860135838201528152019201916100e6565b8980fd5b634e487b7160e01b600052604160045260246000fd5b8780fd5b8680fd5b80fd5b50346106ef57602080600319360112610af1576001600160a01b039160043583811692838203610aec576107246114bd565b5083835260019283825260408120946040519361074085611421565b8654881685528587015484860160808181529190526002978801546040870160a081905252600354909284918291825b828110610a95575050509061078b6107979260a051516114dc565b60a051528351516114dc565b808351526109dd575b600490838960055416604051938480926317bab80360e11b82525afa9182156109d25784926109aa575b50610800908299989795939996949651976107e489611497565b986107f26040519a8b611475565b808a52601f19938491611497565b01885b8181106109825750508688905b61088a575b505050505060405196879681880193511687528051518288015260a0515160408801526060908188015285518093528160a08801960194905b83821061085b5787870388f35b855180518852808401518885015260409081015160ff169088015288975095860195948201949084019061084e565b9085889a9b9c96989493928c879b999b51821015610971578161095a9187858b60ff604061092e8761091e6109609c8f8f61090261090e6108cb878c611714565b51519c6108d8888d611714565b51518a51938491888301978890916034926001600160601b03199060601b16825260148201520190565b03908101835282611475565b8751948593849251928391611728565b8201908152030190205494611714565b51015116916040519361094085611421565b845283015260408201526109548383611714565b52611714565b50611532565b9091929397959b9a99989698610810565b5050509a999896949a979597610815565b95868b82809b9d9e9f996109979d9b9d6114bd565b92010152019b9a9997959b989698610803565b6108009192506109cb903d8087833e6109c38183611475565b81019061163c565b91906107ca565b6040513d86823e3d90fd5b8760045416604051906370a0823160e01b8252600482015284816024818c7f0000000000000000000000000000000000000000000000000000000000000000165afa9081156109d2578491610a66575b5090610a5b610a52610a44600494865151906114ff565b610a4c611591565b90611512565b60a051516114dc565b60a0515290506107a0565b90508481813d8311610a8e575b610a7d8183611475565b810103126104f55751610a5b610a2d565b503d610a73565b8c82610aa9610aa384611541565b5061174b565b9182511614610ac2575b50610abd90611532565b610770565b94610abd91946060610adc610ae59360408a0151906114dc565b970151906114dc565b9390610ab3565b600080fd5b5080fd5b50346106ef57610b04366113e3565b819291159081158092610c8d575b1561058a57610b1f6117fb565b6004546001600160a01b0392908316803b15610c89578480916004604051809481936305dabd6960e51b83525af1801561045757908591610c75575b5050610c42575b80610c0f575b60405193610b758561143d565b338552602085014281526040860191825260608601928352600354600160401b811015610bfb57806001610bac9201600355611541565b949094610be757600394959651166001600160601b0360a01b86541617855551600185015551600284015551910155610be433611786565b80f35b634e487b7160e01b86526004869052602486fd5b634e487b7160e01b86526041600452602486fd5b610c3d813033857f000000000000000000000000000000000000000000000000000000000000000016611ac5565b610b68565b610c70843033857f000000000000000000000000000000000000000000000000000000000000000016611ac5565b610b62565b610c7e9061140d565b6104f5578338610b5b565b8480fd5b50801515610b12565b50346106ef57602080600319360112610af157600480546001600160a01b0391359082163303610dbe57610cc8611591565b9283610cd2578480f35b610d0482959394953033877f000000000000000000000000000000000000000000000000000000000000000016611ac5565b825b8354811015610d64578085610d1d610d5f93611399565b90549060031b1c168086526001808552610d41896102ae8360408b200154896114ff565b9187528452610d58600260408820019182546114dc565b9055611532565b610d06565b50509150805b60038054821015610db15790610dac91610d58610d98876102ae6002610d8f87611541565b500154896114ff565b91610da284611541565b50019182546114dc565b610d6a565b5050915050388080808480f35b60405162461bcd60e51b815260048101849052601060248201526f32b93916b4b73b30b634b216bab9b2b960811b6044820152606490fd5b50346106ef57806003193601126106ef576004546040516001600160a01b039091168152602090f35b50346106ef57610e2e366113e3565b610e399291926117fb565b6004546001600160a01b0393908416803b156104f5578380916004604051809481936305dabd6960e51b83525af180156109d25761111c575b50338352600191602091838352836040862001548111158061110b575b156110d05780611084575b5080611037575b5033835281815260408084208151610eb881611421565b8682541681526002858301549283868401520154928391015215908161102e575b50610ee2578280f35b338352818152604083209360405194610efa86611421565b600282825416918288528581015485890152015460408701528385905b610f40575b50509180916002938596511685525282604081209181835582015501558038808280f35b85548082101561102857908383928794610f5984611399565b939054600394851b1c1614610f7b575b5050610f7490611532565b9091610f17565b9293509091600019908181019081116110145785610f9b610fcf92611399565b905490851b1c16610fab85611399565b90919082549060031b9160018060a01b039283811b93849216901b16911916179055565b8754801561100057918588959492610f74940191610fec83611399565b81939154921b1b1916905588559038610f69565b634e487b7160e01b89526031600452602489fd5b634e487b7160e01b89526011600452602489fd5b50610f1c565b90501538610ed9565b6110648133877f000000000000000000000000000000000000000000000000000000000000000016611a84565b33845282825261107c600260408620019182546117ee565b905538610ea1565b6110b18133887f000000000000000000000000000000000000000000000000000000000000000016611a84565b3385528383526110c88460408720019182546117ee565b905538610e9a565b60405162461bcd60e51b81526004810184905260136024820152721a5b9d985b1a590b591958dc8b585b5bdd5b9d606a1b6044820152606490fd5b506002604086200154821115610e8f565b6111289093919361140d565b9138610e72565b50346106ef57806003193601126106ef576005546040516317bab80360e11b8152906001600160a01b039083908390600490829085165afa91821561062f578392611311575b5082805b835181101561130d5761118c8185611714565b5180516040516bffffffffffffffffffffffff193360601b166020808301918252603480840194909452928252928691601f19906111cb605482611475565b6111dd60405196879251928391611728565b85019484816002978881520301902054948561120b575b5050505050506112049150611532565b8390611179565b6112578584938a9382965191611246604051918261090287820196338890916034926001600160601b03199060601b16825260148201520190565b604051948593849251928391611728565b8201908152030190205501511680611293575050918080809394335af161127c6119da565b50156104f557611204905b849138848180806111f4565b60405163a9059cbb60e01b81523360048201526024810193909352919390918291859160449183915af192831561130257611204936112d4575b5050611287565b816112f392903d106112fb575b6112eb8183611475565b8101906119c2565b5038806112cd565b503d6112e1565b6040513d88823e3d90fd5b5080f35b6113269192503d8085833e6109c38183611475565b9038611175565b50346106ef57806003193601126106ef576005546040516001600160a01b039091168152602090f35b50346106ef5760203660031901126106ef576004359080548210156106ef57602061138083611399565b905460405160039290921b1c6001600160a01b03168152f35b9060009182548110156113cf578280527f290decd9548b62a8d60345a988386fc84ba6bc95484008f6362f93160ef3e563019190565b634e487b7160e01b83526032600452602483fd5b6040906003190112610aec576004359060243590565b35906001600160a01b0382168203610aec57565b67ffffffffffffffff81116106d157604052565b6060810190811067ffffffffffffffff8211176106d157604052565b6080810190811067ffffffffffffffff8211176106d157604052565b60a0810190811067ffffffffffffffff8211176106d157604052565b90601f8019910116810190811067ffffffffffffffff8211176106d157604052565b67ffffffffffffffff81116106d15760051b60200190565b359060ff82168203610aec57565b604051906114ca82611421565b60006040838281528260208201520152565b919082018092116114e957565b634e487b7160e01b600052601160045260246000fd5b818102929181159184041417156114e957565b811561151c570490565b634e487b7160e01b600052601260045260246000fd5b60001981146114e95760010190565b60035481101561157b57600360005260021b7fc2575a0e9e593c00f959f8c92f12db2869c3395a3b0502d05e2516446f71f85b0190600090565b634e487b7160e01b600052603260045260246000fd5b60009060008081545b8082106115db5750506003545b8082106115b2575050565b90926115cf6115d59160026115c687611541565b500154906114dc565b93611532565b906115a7565b90936105ff611614916115ed87611399565b905460039190911b1c6001600160a01b0316855260016020819052604086200154906114dc565b9061159a565b51906001600160a01b0382168203610aec57565b519060ff82168203610aec57565b6020908181840312610aec5780519067ffffffffffffffff8211610aec570182601f82011215610aec5780519161167283611497565b93604061168181519687611475565b848652828601918360a080970286010194818611610aec578401925b8584106116ae575050505050505090565b8684830312610aec5784879184516116c581611459565b865181526116d483880161161a565b838201526116e386880161162e565b8682015260606116f481890161161a565b90820152608061170581890161162e565b9082015281520193019261169d565b805182101561157b5760209160051b010190565b60005b83811061173b5750506000910152565b818101518382015260200161172b565b906040516117588161143d565b82546001600160a01b0316815260018301546020820152600283015460408201526003909201546060830152565b6000908154915b8281106117b65750600160401b8210156106d157610fab8260016117b49401600055611399565b565b6117bf81611399565b905460039190911b1c6001600160a01b03908116908316146117e9576117e490611532565b61178d565b505050565b919082039182116114e957565b6201517f1942014281116114e95760005b60039081548110156117e957611824610aa382611541565b9160209084828501511061184e575b50909150506001600160ff1b0381146114e95760010161180c565b60018060a01b0393848151169081600052600195869182865282604096876000206001600160601b0360a01b9687825416179055878301518484511660005261189e838a600020019182546114dc565b9055836060840151935116600052526118c060028097600020019182546114dc565b905585915b61193d575b505050805493841561192757600019948501926118e684611541565b6119115760008492818095818555840155820155015555600160ff1b81146114e95701803880611833565b634e487b7160e01b600052600060045260246000fd5b634e487b7160e01b600052603160045260246000fd5b835460001981019081116114e9578210156119bd578682018083116114e95761196590611541565b5061196f83611541565b9390936119115783868361198d948c9703611993575b505050611532565b916118c5565b8086839254168985541617845587810154888501558a8101548b8501550154910155388681611985565b6118ca565b90816020910312610aec57518015158103610aec5790565b3d15611a15573d9067ffffffffffffffff82116106d15760405191611a09601f8201601f191660200184611475565b82523d6000602084013e565b606090565b519069ffffffffffffffffffff82168203610aec57565b908160a0910312610aec57611a4581611a1a565b91602082015191604081015191611a63608060608401519301611a1a565b90565b6040602082015191015190818111600014611a7f575090565b905090565b60405163a9059cbb60e01b60208201526001600160a01b039290921660248301526044808301939093529181526117b491611ac0606483611475565b611b1a565b6040516323b872dd60e01b60208201526001600160a01b03928316602482015292909116604483015260648083019390935291815260a081019181831067ffffffffffffffff8411176106d1576117b4926040525b60408051908101916001600160a01b031667ffffffffffffffff8311828410176106d157611b8a926040526000806020958685527f5361666545524332303a206c6f772d6c6576656c2063616c6c206661696c656487860152868151910182855af1611b846119da565b91611c12565b805190828215928315611bfa575b50505015611ba35750565b6084906040519062461bcd60e51b82526004820152602a60248201527f5361666545524332303a204552433230206f7065726174696f6e20646964206e6044820152691bdd081cdd58d8d9595960b21b6064820152fd5b611c0a93508201810191016119c2565b388281611b98565b91929015611c745750815115611c26575090565b3b15611c2f5790565b60405162461bcd60e51b815260206004820152601d60248201527f416464726573733a2063616c6c20746f206e6f6e2d636f6e74726163740000006044820152606490fd5b825190915015611c875750805190602001fd5b6044604051809262461bcd60e51b825260206004830152611cb78151809281602486015260208686019101611728565b601f01601f19168101030190fdfea26469706673582212200a3c706fe1a47be273b3513195f3d1517aa9bb7bb7e347e14e906d67f02cdb3d64736f6c63430008110033",
    "linkReferences": {}
  },
  "methodIdentifiers": {
    "HUNDRED_PC()": "20fdf070",
    "distributeFees()": "bb57ad20",
    "owner()": "8da5cb5b",
    "pool()": "16f0115b",
    "poolFeePercentage()": "2d9f88d4",
    "renounceOwnership()": "715018a6",
    "runLiquidation(uint256)": "6f14266c",
    "setPoolFeePercentage(uint32)": "8a5fda0b",
    "smartVaultManager()": "a631ab45",
    "transferOwnership(address)": "f2fde38b"
  },
  "id": 1
}