{
  "abi": [
    {
      "inputs": [
        {
          "internalType": "address",
          "name": "_TST",
          "type": "address"
        },
        {
          "internalType": "address",
          "name": "_EUROs",
          "type": "address"
        },
        {
          "internalType": "address",
          "name": "_smartVaultManager",
          "type": "address"
        },
        {
          "internalType": "address",
          "name": "_eurUsd",
          "type": "address"
        },
        {
          "internalType": "address payable",
          "name": "_protocol",
          "type": "address"
        },
        {
          "internalType": "uint32",
          "name": "_poolFeePercentage",
          "type": "uint32"
        }
      ],
      "stateMutability": "nonpayable",
      "type": "constructor"
    },
    {
      "anonymous": false,
      "inputs": [
        {
          "indexed": true,
          "internalType": "address",
          "name": "previousOwner",
          "type": "address"
        },
        {
          "indexed": true,
          "internalType": "address",
          "name": "newOwner",
          "type": "address"
        }
      ],
      "name": "OwnershipTransferred",
      "type": "event"
    },
    {
      "inputs": [],
      "name": "HUNDRED_PC",
      "outputs": [
        {
          "internalType": "uint32",
          "name": "",
          "type": "uint32"
        }
      ],
      "stateMutability": "view",
      "type": "function"
    },
    {
      "inputs": [],
      "name": "distributeFees",
      "outputs": [],
      "stateMutability": "nonpayable",
      "type": "function"
    },
    {
      "inputs": [],
      "name": "owner",
      "outputs": [
        {
          "internalType": "address",
          "name": "",
          "type": "address"
        }
      ],
      "stateMutability": "view",
      "type": "function"
    },
    {
      "inputs": [],
      "name": "pool",
      "outputs": [
        {
          "internalType": "address",
          "name": "",
          "type": "address"
        }
      ],
      "stateMutability": "view",
      "type": "function"
    },
    {
      "inputs": [],
      "name": "poolFeePercentage",
      "outputs": [
        {
          "internalType": "uint32",
          "name": "",
          "type": "uint32"
        }
      ],
      "stateMutability": "view",
      "type": "function"
    },
    {
      "inputs": [],
      "name": "renounceOwnership",
      "outputs": [],
      "stateMutability": "nonpayable",
      "type": "function"
    },
    {
      "inputs": [
        {
          "internalType": "uint256",
          "name": "_tokenId",
          "type": "uint256"
        }
      ],
      "name": "runLiquidation",
      "outputs": [],
      "stateMutability": "nonpayable",
      "type": "function"
    },
    {
      "inputs": [
        {
          "internalType": "uint32",
          "name": "_poolFeePercentage",
          "type": "uint32"
        }
      ],
      "name": "setPoolFeePercentage",
      "outputs": [],
      "stateMutability": "nonpayable",
      "type": "function"
    },
    {
      "inputs": [],
      "name": "smartVaultManager",
      "outputs": [
        {
          "internalType": "address",
          "name": "",
          "type": "address"
        }
      ],
      "stateMutability": "view",
      "type": "function"
    },
    {
      "inputs": [
        {
          "internalType": "address",
          "name": "newOwner",
          "type": "address"
        }
      ],
      "name": "transferOwnership",
      "outputs": [],
      "stateMutability": "nonpayable",
      "type": "function"
    },
    {
      "stateMutability": "payable",
      "type": "receive"
    }
  ],
  "bytecode": {
    "object": "0x6101206040818152346200024c5760c082620030c0803803809162000025828562000251565b8339810103126200024c576200003b826200028b565b6020906200004b8285016200028b565b90620000598486016200028b565b62000067606087016200028b565b9260808701519260018060a01b039788851685036200024c5760a001519463ffffffff861686036200024c57600096898189543360018060a01b03198216178b5560048b8d5194859384927f8be0079c531659141344cd1fd0a4f28419497f9722a3daafe3b4186f6b6457e0833393169180a3630a9c26c560e21b82528a165afa9081156200024257899162000201575b50895192611e4280850193906001600160401b03851186861017620001ed57928d60809593819388966200127e8839828a168652828b1690860152168d84015216606082015203019087f0978815620001e3576101009816885260805260a05260c05260e05281549063ffffffff60a01b9060a01b169063ffffffff60a01b191617905551610fdd9182620002a1833960805182505060a05182610c33015260c05182818161019901526102ac015260e0518281816106d0015281816107af0152610cee0152518181816104a2015281816105d00152818161064d01528181610b900152610dad0152f35b87513d88823e3d90fd5b634e487b7160e01b8c52604160045260248cfd5b90508181813d83116200023a575b6200021b818362000251565b8101031262000236576200022f906200028b565b38620000f8565b8880fd5b503d6200020f565b8a513d8b823e3d90fd5b600080fd5b601f909101601f19168101906001600160401b038211908210176200027557604052565b634e487b7160e01b600052604160045260246000fd5b51906001600160a01b03821682036200024c5756fe608080604052600436101561001d575b50361561001b57600080fd5b005b600090813560e01c90816316f0115b14610b7c5750806320fdf07014610b5e5780632d9f88d414610b385780636f14266c14610298578063715018a61461023e5780638a5fda0b146101ef5780638da5cb5b146101c8578063a631ab4514610183578063bb57ad20146101675763f2fde38b0361000f5734610164576020366003190112610164576004356001600160a01b0381811691829003610160576100c3610f4f565b811561010c57600054826bffffffffffffffffffffffff60a01b821617600055167f8be0079c531659141344cd1fd0a4f28419497f9722a3daafe3b4186f6b6457e0600080a380f35b60405162461bcd60e51b815260206004820152602660248201527f4f776e61626c653a206e6577206f776e657220697320746865207a65726f206160448201526564647265737360d01b6064820152608490fd5b8280fd5b80fd5b5034610164578060031936011261016457610180610c29565b80f35b50346101645780600319360112610164576040517f00000000000000000000000000000000000000000000000000000000000000006001600160a01b03168152602090f35b5034610164578060031936011261016457546040516001600160a01b039091168152602090f35b50346101645760203660031901126101645760043563ffffffff8116810361023a57610219610f4f565b815463ffffffff60a01b191660a09190911b63ffffffff60a01b1617815580f35b5080fd5b5034610164578060031936011261016457610257610f4f565b600080546001600160a01b0319811682556001600160a01b03167f8be0079c531659141344cd1fd0a4f28419497f9722a3daafe3b4186f6b6457e08280a380f35b5034610164576020366003190112610164577f00000000000000000000000000000000000000000000000000000000000000006001600160a01b031690813b156101645760405163486785dd60e11b81526004803590820152818160248183875af1801561087d57610b29575b509061030f610c29565b604051630a9c26c560e21b8152602081600481855afa908115610b1e578391610ade575b506040516317bab80360e11b815292908190849060049082906001600160a01b03165afa928315610ad15781936109c5575b5082519261037284610eda565b936103806040519586610bef565b80855261038f601f1991610eda565b01825b8181106109535750508192825b825181101561057d576103b28184610f25565b5160208101519095906001600160a01b0316806104135750506103dd904795866103e2575b50610f00565b61039f565b604051906103ef82610bd3565b81528660208201526104018289610f25565b5261040c8188610f25565b50386103d7565b9095604051906370a0823160e01b8252306004830152602082602481865afa9182156105725790879392918492610536575b5081610459575b505050506103dd90610f00565b916104de916020936040519061046e82610bd3565b8152818582015261047f878d610f25565b5261048a868c610f25565b5060405163095ea7b360e01b81526001600160a01b037f0000000000000000000000000000000000000000000000000000000000000000166004820152602481019190915293849283919082906044820190565b03925af1801561052b57906103dd92916104fc575b8591928161044c565b61051d9060203d602011610524575b6105158183610bef565b810190610c11565b50386104f3565b503d61050b565b6040513d87823e3d90fd5b935090506020833d60201161056a575b8161055360209383610bef565b81010312610565578692519038610445565b600080fd5b3d9150610546565b6040513d89823e3d90fd5b50604051631629af8760e21b815285949091602083600481845afa92831561052b57859361091e575b5060206004916040519283809263020fdf0760e41b82525afa90811561052b5785916108ec575b507f00000000000000000000000000000000000000000000000000000000000000006001600160a01b03163b156108e857604051926305fd847f60e51b845260648401606060048601528751809152602060848601980190875b8181106108885750505060248401526044830152929391928492839183918290039082907f00000000000000000000000000000000000000000000000000000000000000006001600160a01b03165af1801561087d57610869575b50805b825181101561086557602061069a8285610f25565b510180516001600160a01b0316806107575750509047806106c8575b50506106c190610f00565b8290610685565b8190819081907f00000000000000000000000000000000000000000000000000000000000000006001600160a01b03165af13d15610752573d67ffffffffffffffff811161073e5760405190610728601f8201601f191660200183610bef565b81528460203d92013e5b156101605782846106b6565b634e487b7160e01b85526041600452602485fd5b610732565b906020602492604051938480926370a0823160e01b82523060048301525afa91821561082357849261082e575b5081610797575b50506106c19150610f00565b5160405163a9059cbb60e01b81526001600160a01b037f000000000000000000000000000000000000000000000000000000000000000081166004830152602482019390935293602092859260449284929091165af1918215610823576106c192610804575b849261078b565b61081c9060203d602011610524576105158183610bef565b50846107fd565b6040513d86823e3d90fd5b935090506020833d60201161085d575b8161084b60209383610bef565b81010312610565578492519086610784565b3d915061083e565b5080f35b61087290610bbf565b61023a578183610682565b6040513d84823e3d90fd5b909198602060c0600192828d51805180518452868060a01b0383820151168385015260ff806040830151166040860152878060a01b0360608301511660608601526080809201511690840152015160a0820152019a019101919091610627565b8480fd5b90506020813d602011610916575b8161090760209383610bef565b810103126105655751866105cd565b3d91506108fa565b9092506020813d60201161094b575b8161093a60209383610bef565b8101031261056557519160206105a6565b3d915061092d565b6040519061096082610bd3565b6040519160a083019280841067ffffffffffffffff8511176109af5760209360405286815286848201528660408201528660608201528660808201528152858382015282828901015201610392565b634e487b7160e01b600052604160045260246000fd5b9092503d8084833e6109d78183610bef565b810190602081830312610acd57805167ffffffffffffffff91828211610ac9570182601f820112156108e857805191610a0f83610eda565b93610a1d6040519586610bef565b8385526020850190602060a080960285010193818511610ac557602001915b848310610a50575050505050509138610365565b8583830312610ac5576040519086820190828210868311176109af57879260209260405285518152610a83838701610ec6565b83820152610a9360408701610ef2565b60408201526060610aa5818801610ec6565b908201526080610ab6818801610ef2565b90820152815201920191610a3c565b8880fd5b8580fd5b8380fd5b50604051903d90823e3d90fd5b90506020813d602011610b16575b81610af960209383610bef565b81010312610160579180610b0e600494610ec6565b919350610333565b3d9150610aec565b6040513d85823e3d90fd5b610b3290610bbf565b38610305565b503461016457806003193601126101645763ffffffff6020915460a01c16604051908152f35b50346101645780600319360112610164576020604051620186a08152f35b90503461023a578160031936011261023a577f00000000000000000000000000000000000000000000000000000000000000006001600160a01b03168152602090f35b67ffffffffffffffff81116109af57604052565b6040810190811067ffffffffffffffff8211176109af57604052565b90601f8019910116810190811067ffffffffffffffff8211176109af57604052565b90816020910312610565575180151581036105655790565b60018060a01b03807f00000000000000000000000000000000000000000000000000000000000000001660408051926370a0823160e01b808552600091600490308288015260209687816024818a5afa908115610ebc578591610e8f575b5063ffffffff855460a01c1690818102918183041490151715610e7c57620186a090049081610d9f575b5050835191825230818301528582602481885afa918215610d9557908692918492610d62575b50845163a9059cbb60e01b81526001600160a01b037f0000000000000000000000000000000000000000000000000000000000000000169181019182526020820192909252909485918290859082906040015b03925af1918215610d58575050610d3f575050565b81610d5592903d10610524576105158183610bef565b50565b51903d90823e3d90fd5b8381949293503d8311610d8e575b610d7a8183610bef565b810103126105655790518591610d2a610cd7565b503d610d70565b84513d85823e3d90fd5b855163095ea7b360e01b81527f00000000000000000000000000000000000000000000000000000000000000006001600160a01b038116858301908152602081018590529091908a908290819060400103818a8d5af18015610e7257610e55575b501690813b156108e85784916024839288519485938492636029bf9f60e01b8452888401525af18015610e4b57610e38575b80610cb1565b610e4490939193610bbf565b9138610e32565b85513d86823e3d90fd5b610e6b908a3d8c11610524576105158183610bef565b5038610e00565b88513d89823e3d90fd5b634e487b7160e01b855260118352602485fd5b90508781813d8311610eb5575b610ea68183610bef565b810103126108e8575138610c87565b503d610e9c565b86513d87823e3d90fd5b51906001600160a01b038216820361056557565b67ffffffffffffffff81116109af5760051b60200190565b519060ff8216820361056557565b6000198114610f0f5760010190565b634e487b7160e01b600052601160045260246000fd5b8051821015610f395760209160051b010190565b634e487b7160e01b600052603260045260246000fd5b6000546001600160a01b03163303610f6357565b606460405162461bcd60e51b815260206004820152602060248201527f4f776e61626c653a2063616c6c6572206973206e6f7420746865206f776e65726044820152fdfea2646970667358221220ee4fc63e14330045c11daf9a17ec2dec4f544496b642d505c5116ff8a675f72e64736f6c6343000811003360e034620000f457601f62001e4238819003918201601f19168301916001600160401b03831184841017620000f957808492608094604052833981010312620000f4576200004d816200010f565b906200005c602082016200010f565b62000078606062000070604085016200010f565b93016200010f565b9260805260a05260c05260018060a01b03199060018060a01b031681600554161760055533906004541617600455604051611d1d9081620001258239608051818181610c6d01526110ae015260a051818181610513015281816109fc01528181610c3a01528181610d010152611061015260c051816101170152f35b600080fd5b634e487b7160e01b600052604160045260246000fd5b51906001600160a01b0382168203620000f45756fe60c0604052600436101561001257600080fd5b6000803560e01c80632a11ced0146113785780632a709b141461134f578063372500ab146111515780633bacfca914610e41578063481c6a7514610e185780636029bf9f14610cb85780636fe5452c14610b17578063861259b114610af4578063b7648fb9146106f15763bfb08fe01461008b57600080fd5b60603660031901126106ee5767ffffffffffffffff6004358181116105895736602382011215610589578060040135906100c4826114b9565b926100d26040519485611497565b8284526020840190602460c0809502840101923684116106ea57602401915b83831061063957868661010261181d565b604051633fabe5a360e21b815260a0816004817f00000000000000000000000000000000000000000000000000000000000000006001600160a01b03165afa90811561062e57839161060a575b5082918384545b80821061059857505083918490855b8680548210156104745750610179816113bb565b905460018060a01b039160031b1c1687526001602052604087206002604051916101a283611443565b80546001600160a01b0316835260018101546020840152015460408201526101c981611a88565b80610230575b509061022b916101de826113bb565b60018060a01b0391549060031b1c168952600160205260026040808b209260018060a01b038151166001600160601b0360a01b8554161784556020810151600185015501519101556114df565b610165565b979092948197949692975b81518110156104615761024e8183611736565b516020810151610268575b50610263906114df565b61023b565b805160600151604051633fabe5a360e21b8152929991959060a090849060049082906001600160a01b03165afa928315610456578c89918795610416575b50906102b96102be9260208a0151611609565b61161c565b9260ff9081604089510151166012039082821161040257604d838316116104025761030992916103048d6102b96102b994610304602435976044359616600a0a8c611609565b611609565b9060408801518083116103e4575b50906103a19161032b8260408b0151611810565b60408a8101919091528951895151915160609190911b6bffffffffffffffffffffffff191660208083019182526034808401949094529282526103859291610374605482611497565b60405193849283925192839161174a565b8101600281520301902061039a868254611504565b9055611504565b9451602001516001600160a01b0316806103cb5750610263916103c391611504565b975b90610259565b610263926103df919a929a30903390611ae7565b6103c5565b916102b96103a1936103f69396611609565b92604088015191610317565b634e487b7160e01b88526011600452602488fd5b6102be929195506104416102b99160a03d60a01161044f575b6104398183611497565b810190611a53565b5050509050959192506102a6565b503d61042f565b6040513d87823e3d90fd5b509097509295909492939161022b6101cf565b8385828880610511575b505b815181101561050d576001600160a01b03602061049d8385611736565b515101511615806104f8575b6104bc575b6104b7906114df565b610480565b8380808060018060a01b03600454166104e38860206104db898b611736565b510151611810565b905af16104ee6119fc565b506104ae575b8380fd5b506105038183611736565b51515115156104a9565b8380f35b7f00000000000000000000000000000000000000000000000000000000000000006001600160a01b0316803b1561058957604051632770a7eb60e21b8152306004820152602481019290925282908290604490829084905af1801561058d571561047e5761057e9061142f565b61058957828461047e565b8280fd5b6040513d84823e3d90fd5b90936105fe610604916105aa876113bb565b60018060a01b0391549060031b1c1688526105f8600180602052600260408b20604051926105d784611443565b81546001600160a01b03168452810154602084015201546040820152611a88565b90611504565b946114df565b90610156565b610623915060a03d60a01161044f576104398183611497565b50505090508361014f565b6040513d85823e3d90fd5b823603908582126106e657604051906040820191808310858411176106d0578260405260a08094126106cc5787938361067360209561147b565b8735815261068285890161141b565b60608401526106b461069660408a016114d1565b608090818601526106a960608b0161141b565b8486015289016114d1565b868401528252860135838201528152019201916100f1565b8980fd5b634e487b7160e01b600052604160045260246000fd5b8780fd5b8680fd5b80fd5b50346106ee57602080600319360112610af0576001600160a01b039160043583811692838203610aeb576107236115ea565b5083835260019283825260408120946040519361073f85611443565b8654881685528587015484860160808181529190526002978801546040870160a081905252600354909284918291825b828110610a94575050509061078a6107969260a05151611504565b60a05152835151611504565b808351526109dc575b600490838960055416604051938480926317bab80360e11b82525afa9182156109d15784926109a9575b506107ff908299989795939996949651976107e3896114b9565b986107f16040519a8b611497565b808a52601f199384916114b9565b01885b8181106109815750508688905b610889575b505050505060405196879681880193511687528051518288015260a0515160408801526060908188015285518093528160a08801960194905b83821061085a5787870388f35b855180518852808401518885015260409081015160ff169088015288975095860195948201949084019061084d565b9085889a9b9c96989493928c879b999b5182101561097057816109599187858b60ff604061092d8761091d61095f9c8f8f61090161090d6108ca878c611736565b51519c6108d7888d611736565b51518a51938491888301978890916034926001600160601b03199060601b16825260148201520190565b03908101835282611497565b875194859384925192839161174a565b8201908152030190205494611736565b51015116916040519361093f85611443565b845283015260408201526109538383611736565b52611736565b506114df565b9091929397959b9a9998969861080f565b5050509a999896949a979597610814565b95868b82809b9d9e9f996109969d9b9d6115ea565b92010152019b9a9997959b989698610802565b6107ff9192506109ca903d8087833e6109c28183611497565b81019061165e565b91906107c9565b6040513d86823e3d90fd5b8760045416604051906370a0823160e01b8252600482015284816024818c7f0000000000000000000000000000000000000000000000000000000000000000165afa9081156109d1578491610a65575b5090610a5a610a51610a4360049486515190611609565b610a4b611561565b9061161c565b60a05151611504565b60a05152905061079f565b90508481813d8311610a8d575b610a7c8183611497565b810103126104f45751610a5a610a2c565b503d610a72565b8c82610aa8610aa284611511565b5061176d565b9182511614610ac1575b50610abc906114df565b61076f565b94610abc91946060610adb610ae49360408a015190611504565b97015190611504565b9390610ab2565b600080fd5b5080fd5b50346106ee57806003193601126106ee576020610b0f611561565b604051908152f35b50346106ee57610b2636611405565b819291159081158092610caf575b1561058957610b4161181d565b6004546001600160a01b0392908316803b15610cab578480916004604051809481936305dabd6960e51b83525af1801561045657908591610c97575b5050610c64575b80610c31575b60405193610b978561145f565b338552602085014281526040860191825260608601928352600354600160401b811015610c1d57806001610bce9201600355611511565b949094610c0957600394959651166001600160601b0360a01b86541617855551600185015551600284015551910155610c06336117a8565b80f35b634e487b7160e01b86526004869052602486fd5b634e487b7160e01b86526041600452602486fd5b610c5f813033857f000000000000000000000000000000000000000000000000000000000000000016611ae7565b610b8a565b610c92843033857f000000000000000000000000000000000000000000000000000000000000000016611ae7565b610b84565b610ca09061142f565b6104f4578338610b7d565b8480fd5b50801515610b34565b50346106ee57602080600319360112610af057600480546001600160a01b0391359082163303610de057610cea611561565b9283610cf4578480f35b610d2682959394953033877f000000000000000000000000000000000000000000000000000000000000000016611ae7565b825b8354811015610d86578085610d3f610d81936113bb565b90549060031b1c168086526001808552610d63896102b98360408b20015489611609565b9187528452610d7a60026040882001918254611504565b90556114df565b610d28565b50509150805b60038054821015610dd35790610dce91610d7a610dba876102b96002610db187611511565b50015489611609565b91610dc484611511565b5001918254611504565b610d8c565b5050915050388080808480f35b60405162461bcd60e51b815260048101849052601060248201526f32b93916b4b73b30b634b216bab9b2b960811b6044820152606490fd5b50346106ee57806003193601126106ee576004546040516001600160a01b039091168152602090f35b50346106ee57610e5036611405565b610e5b92919261181d565b6004546001600160a01b0393908416803b156104f4578380916004604051809481936305dabd6960e51b83525af180156109d15761113e575b50338352600191602091838352836040862001548111158061112d575b156110f257806110a6575b5080611059575b5033835281815260408084208151610eda81611443565b86825416815260028583015492838684015201549283910152159081611050575b50610f04578280f35b338352818152604083209360405194610f1c86611443565b600282825416918288528581015485890152015460408701528385905b610f62575b50509180916002938596511685525282604081209181835582015501558038808280f35b85548082101561104a57908383928794610f7b846113bb565b939054600394851b1c1614610f9d575b5050610f96906114df565b9091610f39565b9293509091600019908181019081116110365785610fbd610ff1926113bb565b905490851b1c16610fcd856113bb565b90919082549060031b9160018060a01b039283811b93849216901b16911916179055565b8754801561102257918588959492610f9694019161100e836113bb565b81939154921b1b1916905588559038610f8b565b634e487b7160e01b89526031600452602489fd5b634e487b7160e01b89526011600452602489fd5b50610f3e565b90501538610efb565b6110868133877f000000000000000000000000000000000000000000000000000000000000000016611aa6565b33845282825261109e60026040862001918254611810565b905538610ec3565b6110d38133887f000000000000000000000000000000000000000000000000000000000000000016611aa6565b3385528383526110ea846040872001918254611810565b905538610ebc565b60405162461bcd60e51b81526004810184905260136024820152721a5b9d985b1a590b591958dc8b585b5bdd5b9d606a1b6044820152606490fd5b506002604086200154821115610eb1565b61114a9093919361142f565b9138610e94565b50346106ee57806003193601126106ee576005546040516317bab80360e11b8152906001600160a01b039083908390600490829085165afa91821561062e578392611333575b5082805b835181101561132f576111ae8185611736565b5180516040516bffffffffffffffffffffffff193360601b166020808301918252603480840194909452928252928691601f19906111ed605482611497565b6111ff6040519687925192839161174a565b85019484816002978881520301902054948561122d575b50505050505061122691506114df565b839061119b565b6112798584938a9382965191611268604051918261090187820196338890916034926001600160601b03199060601b16825260148201520190565b60405194859384925192839161174a565b82019081520301902055015116806112b5575050918080809394335af161129e6119fc565b50156104f457611226905b84913884818080611216565b60405163a9059cbb60e01b81523360048201526024810193909352919390918291859160449183915af192831561132457611226936112f6575b50506112a9565b8161131592903d1061131d575b61130d8183611497565b8101906119e4565b5038806112ef565b503d611303565b6040513d88823e3d90fd5b5080f35b6113489192503d8085833e6109c28183611497565b9038611197565b50346106ee57806003193601126106ee576005546040516001600160a01b039091168152602090f35b50346106ee5760203660031901126106ee576004359080548210156106ee5760206113a2836113bb565b905460405160039290921b1c6001600160a01b03168152f35b9060009182548110156113f1578280527f290decd9548b62a8d60345a988386fc84ba6bc95484008f6362f93160ef3e563019190565b634e487b7160e01b83526032600452602483fd5b6040906003190112610aeb576004359060243590565b35906001600160a01b0382168203610aeb57565b67ffffffffffffffff81116106d057604052565b6060810190811067ffffffffffffffff8211176106d057604052565b6080810190811067ffffffffffffffff8211176106d057604052565b60a0810190811067ffffffffffffffff8211176106d057604052565b90601f8019910116810190811067ffffffffffffffff8211176106d057604052565b67ffffffffffffffff81116106d05760051b60200190565b359060ff82168203610aeb57565b60001981146114ee5760010190565b634e487b7160e01b600052601160045260246000fd5b919082018092116114ee57565b60035481101561154b57600360005260021b7fc2575a0e9e593c00f959f8c92f12db2869c3395a3b0502d05e2516446f71f85b0190600090565b634e487b7160e01b600052603260045260246000fd5b60009060008081545b8082106115ab5750506003545b808210611582575050565b909261159f6115a591600261159687611511565b50015490611504565b936114df565b90611577565b90936105fe6115e4916115bd876113bb565b905460039190911b1c6001600160a01b031685526001602081905260408620015490611504565b9061156a565b604051906115f782611443565b60006040838281528260208201520152565b818102929181159184041417156114ee57565b8115611626570490565b634e487b7160e01b600052601260045260246000fd5b51906001600160a01b0382168203610aeb57565b519060ff82168203610aeb57565b6020908181840312610aeb5780519067ffffffffffffffff8211610aeb570182601f82011215610aeb57805191611694836114b9565b9360406116a381519687611497565b848652828601918360a080970286010194818611610aeb578401925b8584106116d0575050505050505090565b8684830312610aeb5784879184516116e78161147b565b865181526116f683880161163c565b83820152611705868801611650565b86820152606061171681890161163c565b908201526080611727818901611650565b908201528152019301926116bf565b805182101561154b5760209160051b010190565b60005b83811061175d5750506000910152565b818101518382015260200161174d565b9060405161177a8161145f565b82546001600160a01b0316815260018301546020820152600283015460408201526003909201546060830152565b6000908154915b8281106117d85750600160401b8210156106d057610fcd8260016117d694016000556113bb565b565b6117e1816113bb565b905460039190911b1c6001600160a01b039081169083161461180b57611806906114df565b6117af565b505050565b919082039182116114ee57565b6201517f1942014281116114ee5760005b600390815481101561180b57611846610aa282611511565b91602090848285015110611870575b50909150506001600160ff1b0381146114ee5760010161182e565b60018060a01b0393848151169081600052600195869182865282604096876000206001600160601b0360a01b968782541617905587830151848451166000526118c0838a60002001918254611504565b9055836060840151935116600052526118e26002809760002001918254611504565b905585915b61195f575b5050508054938415611949576000199485019261190884611511565b6119335760008492818095818555840155820155015555600160ff1b81146114ee5701803880611855565b634e487b7160e01b600052600060045260246000fd5b634e487b7160e01b600052603160045260246000fd5b835460001981019081116114ee578210156119df578682018083116114ee5761198790611511565b5061199183611511565b939093611933578386836119af948c97036119b5575b5050506114df565b916118e7565b8086839254168985541617845587810154888501558a8101548b85015501549101553886816119a7565b6118ec565b90816020910312610aeb57518015158103610aeb5790565b3d15611a37573d9067ffffffffffffffff82116106d05760405191611a2b601f8201601f191660200184611497565b82523d6000602084013e565b606090565b519069ffffffffffffffffffff82168203610aeb57565b908160a0910312610aeb57611a6781611a3c565b91602082015191604081015191611a85608060608401519301611a3c565b90565b6040602082015191015190818111600014611aa1575090565b905090565b60405163a9059cbb60e01b60208201526001600160a01b039290921660248301526044808301939093529181526117d691611ae2606483611497565b611b3c565b6040516323b872dd60e01b60208201526001600160a01b03928316602482015292909116604483015260648083019390935291815260a081019181831067ffffffffffffffff8411176106d0576117d6926040525b60408051908101916001600160a01b031667ffffffffffffffff8311828410176106d057611bac926040526000806020958685527f5361666545524332303a206c6f772d6c6576656c2063616c6c206661696c656487860152868151910182855af1611ba66119fc565b91611c34565b805190828215928315611c1c575b50505015611bc55750565b6084906040519062461bcd60e51b82526004820152602a60248201527f5361666545524332303a204552433230206f7065726174696f6e20646964206e6044820152691bdd081cdd58d8d9595960b21b6064820152fd5b611c2c93508201810191016119e4565b388281611bba565b91929015611c965750815115611c48575090565b3b15611c515790565b60405162461bcd60e51b815260206004820152601d60248201527f416464726573733a2063616c6c20746f206e6f6e2d636f6e74726163740000006044820152606490fd5b825190915015611ca95750805190602001fd5b6044604051809262461bcd60e51b825260206004830152611cd9815180928160248601526020868601910161174a565b601f01601f19168101030190fdfea2646970667358221220d41a7eb380ce8cb23df2126025d515c00cc24e0d0c53aac9ef07abcd203a0b2564736f6c63430008110033",
    "linkReferences": {}
  },
  "methodIdentifiers": {
    "HUNDRED_PC()": "20fdf070",
    "distributeFees()": "bb57ad20",
    "owner()": "8da5cb5b",
    "pool()": "16f0115b",
    "poolFeePercentage()": "2d9f88d4",
    "renounceOwnership()": "715018a6",
    "runLiquidation(uint256)": "6f14266c",
    "setPoolFeePercentage(uint32)": "8a5fda0b",
    "smartVaultManager()": "a631ab45",
    "transferOwnership(address)": "f2fde38b"
  },
  "id": 1
}