{
  "abi": [
    {
      "inputs": [
        {
          "internalType": "address",
          "name": "_TST",
          "type": "address"
        },
        {
          "internalType": "address",
          "name": "_EUROs",
          "type": "address"
        },
        {
          "internalType": "address",
          "name": "_eurUsd",
          "type": "address"
        },
        {
          "internalType": "address",
          "name": "_tokenManager",
          "type": "address"
        }
      ],
      "stateMutability": "nonpayable",
      "type": "constructor"
    },
    {
      "inputs": [],
      "name": "claimRewards",
      "outputs": [],
      "stateMutability": "nonpayable",
      "type": "function"
    },
    {
      "inputs": [
        {
          "internalType": "uint256",
          "name": "_tstVal",
          "type": "uint256"
        },
        {
          "internalType": "uint256",
          "name": "_eurosVal",
          "type": "uint256"
        }
      ],
      "name": "decreasePosition",
      "outputs": [],
      "stateMutability": "nonpayable",
      "type": "function"
    },
    {
      "inputs": [
        {
          "components": [
            {
              "components": [
                {
                  "internalType": "bytes32",
                  "name": "symbol",
                  "type": "bytes32"
                },
                {
                  "internalType": "address",
                  "name": "addr",
                  "type": "address"
                },
                {
                  "internalType": "uint8",
                  "name": "dec",
                  "type": "uint8"
                },
                {
                  "internalType": "address",
                  "name": "clAddr",
                  "type": "address"
                },
                {
                  "internalType": "uint8",
                  "name": "clDec",
                  "type": "uint8"
                }
              ],
              "internalType": "struct ITokenManager.Token",
              "name": "token",
              "type": "tuple"
            },
            {
              "internalType": "uint256",
              "name": "amount",
              "type": "uint256"
            }
          ],
          "internalType": "struct ILiquidationPoolManager.Asset[]",
          "name": "_assets",
          "type": "tuple[]"
        },
        {
          "internalType": "uint256",
          "name": "_collateralRate",
          "type": "uint256"
        },
        {
          "internalType": "uint256",
          "name": "_hundredPC",
          "type": "uint256"
        }
      ],
      "name": "distributeAssets",
      "outputs": [],
      "stateMutability": "payable",
      "type": "function"
    },
    {
      "inputs": [
        {
          "internalType": "uint256",
          "name": "_amount",
          "type": "uint256"
        }
      ],
      "name": "distributeFees",
      "outputs": [],
      "stateMutability": "nonpayable",
      "type": "function"
    },
    {
      "inputs": [],
      "name": "getTstTotal",
      "outputs": [
        {
          "internalType": "uint256",
          "name": "_tst",
          "type": "uint256"
        }
      ],
      "stateMutability": "view",
      "type": "function"
    },
    {
      "inputs": [
        {
          "internalType": "uint256",
          "name": "",
          "type": "uint256"
        }
      ],
      "name": "holders",
      "outputs": [
        {
          "internalType": "address",
          "name": "",
          "type": "address"
        }
      ],
      "stateMutability": "view",
      "type": "function"
    },
    {
      "inputs": [
        {
          "internalType": "uint256",
          "name": "_tstVal",
          "type": "uint256"
        },
        {
          "internalType": "uint256",
          "name": "_eurosVal",
          "type": "uint256"
        }
      ],
      "name": "increasePosition",
      "outputs": [],
      "stateMutability": "nonpayable",
      "type": "function"
    },
    {
      "inputs": [],
      "name": "manager",
      "outputs": [
        {
          "internalType": "address payable",
          "name": "",
          "type": "address"
        }
      ],
      "stateMutability": "view",
      "type": "function"
    },
    {
      "inputs": [
        {
          "internalType": "address",
          "name": "_holder",
          "type": "address"
        }
      ],
      "name": "position",
      "outputs": [
        {
          "components": [
            {
              "internalType": "address",
              "name": "holder",
              "type": "address"
            },
            {
              "internalType": "uint256",
              "name": "TST",
              "type": "uint256"
            },
            {
              "internalType": "uint256",
              "name": "EUROs",
              "type": "uint256"
            }
          ],
          "internalType": "struct LiquidationPool.Position",
          "name": "_position",
          "type": "tuple"
        },
        {
          "components": [
            {
              "internalType": "bytes32",
              "name": "symbol",
              "type": "bytes32"
            },
            {
              "internalType": "uint256",
              "name": "amount",
              "type": "uint256"
            },
            {
              "internalType": "uint8",
              "name": "dec",
              "type": "uint8"
            }
          ],
          "internalType": "struct LiquidationPool.Reward[]",
          "name": "_rewards",
          "type": "tuple[]"
        }
      ],
      "stateMutability": "view",
      "type": "function"
    },
    {
      "inputs": [],
      "name": "tokenManager",
      "outputs": [
        {
          "internalType": "address",
          "name": "",
          "type": "address"
        }
      ],
      "stateMutability": "view",
      "type": "function"
    }
  ],
  "bytecode": {
    "object": "0x60e034620000f457601f62001e4238819003918201601f19168301916001600160401b03831184841017620000f957808492608094604052833981010312620000f4576200004d816200010f565b906200005c602082016200010f565b62000078606062000070604085016200010f565b93016200010f565b9260805260a05260c05260018060a01b03199060018060a01b031681600554161760055533906004541617600455604051611d1d9081620001258239608051818181610c6d01526110ae015260a051818181610513015281816109fc01528181610c3a01528181610d010152611061015260c051816101170152f35b600080fd5b634e487b7160e01b600052604160045260246000fd5b51906001600160a01b0382168203620000f45756fe60c0604052600436101561001257600080fd5b6000803560e01c80632a11ced0146113785780632a709b141461134f578063372500ab146111515780633bacfca914610e41578063481c6a7514610e185780636029bf9f14610cb85780636fe5452c14610b17578063861259b114610af4578063b7648fb9146106f15763bfb08fe01461008b57600080fd5b60603660031901126106ee5767ffffffffffffffff6004358181116105895736602382011215610589578060040135906100c4826114b9565b926100d26040519485611497565b8284526020840190602460c0809502840101923684116106ea57602401915b83831061063957868661010261181d565b604051633fabe5a360e21b815260a0816004817f00000000000000000000000000000000000000000000000000000000000000006001600160a01b03165afa90811561062e57839161060a575b5082918384545b80821061059857505083918490855b8680548210156104745750610179816113bb565b905460018060a01b039160031b1c1687526001602052604087206002604051916101a283611443565b80546001600160a01b0316835260018101546020840152015460408201526101c981611a88565b80610230575b509061022b916101de826113bb565b60018060a01b0391549060031b1c168952600160205260026040808b209260018060a01b038151166001600160601b0360a01b8554161784556020810151600185015501519101556114df565b610165565b979092948197949692975b81518110156104615761024e8183611736565b516020810151610268575b50610263906114df565b61023b565b805160600151604051633fabe5a360e21b8152929991959060a090849060049082906001600160a01b03165afa928315610456578c89918795610416575b50906102b96102be9260208a0151611609565b61161c565b9260ff9081604089510151166012039082821161040257604d838316116104025761030992916103048d6102b96102b994610304602435976044359616600a0a8c611609565b611609565b9060408801518083116103e4575b50906103a19161032b8260408b0151611810565b60408a8101919091528951895151915160609190911b6bffffffffffffffffffffffff191660208083019182526034808401949094529282526103859291610374605482611497565b60405193849283925192839161174a565b8101600281520301902061039a868254611504565b9055611504565b9451602001516001600160a01b0316806103cb5750610263916103c391611504565b975b90610259565b610263926103df919a929a30903390611ae7565b6103c5565b916102b96103a1936103f69396611609565b92604088015191610317565b634e487b7160e01b88526011600452602488fd5b6102be929195506104416102b99160a03d60a01161044f575b6104398183611497565b810190611a53565b5050509050959192506102a6565b503d61042f565b6040513d87823e3d90fd5b509097509295909492939161022b6101cf565b8385828880610511575b505b815181101561050d576001600160a01b03602061049d8385611736565b515101511615806104f8575b6104bc575b6104b7906114df565b610480565b8380808060018060a01b03600454166104e38860206104db898b611736565b510151611810565b905af16104ee6119fc565b506104ae575b8380fd5b506105038183611736565b51515115156104a9565b8380f35b7f00000000000000000000000000000000000000000000000000000000000000006001600160a01b0316803b1561058957604051632770a7eb60e21b8152306004820152602481019290925282908290604490829084905af1801561058d571561047e5761057e9061142f565b61058957828461047e565b8280fd5b6040513d84823e3d90fd5b90936105fe610604916105aa876113bb565b60018060a01b0391549060031b1c1688526105f8600180602052600260408b20604051926105d784611443565b81546001600160a01b03168452810154602084015201546040820152611a88565b90611504565b946114df565b90610156565b610623915060a03d60a01161044f576104398183611497565b50505090508361014f565b6040513d85823e3d90fd5b823603908582126106e657604051906040820191808310858411176106d0578260405260a08094126106cc5787938361067360209561147b565b8735815261068285890161141b565b60608401526106b461069660408a016114d1565b608090818601526106a960608b0161141b565b8486015289016114d1565b868401528252860135838201528152019201916100f1565b8980fd5b634e487b7160e01b600052604160045260246000fd5b8780fd5b8680fd5b80fd5b50346106ee57602080600319360112610af0576001600160a01b039160043583811692838203610aeb576107236115ea565b5083835260019283825260408120946040519361073f85611443565b8654881685528587015484860160808181529190526002978801546040870160a081905252600354909284918291825b828110610a94575050509061078a6107969260a05151611504565b60a05152835151611504565b808351526109dc575b600490838960055416604051938480926317bab80360e11b82525afa9182156109d15784926109a9575b506107ff908299989795939996949651976107e3896114b9565b986107f16040519a8b611497565b808a52601f199384916114b9565b01885b8181106109815750508688905b610889575b505050505060405196879681880193511687528051518288015260a0515160408801526060908188015285518093528160a08801960194905b83821061085a5787870388f35b855180518852808401518885015260409081015160ff169088015288975095860195948201949084019061084d565b9085889a9b9c96989493928c879b999b5182101561097057816109599187858b60ff604061092d8761091d61095f9c8f8f61090161090d6108ca878c611736565b51519c6108d7888d611736565b51518a51938491888301978890916034926001600160601b03199060601b16825260148201520190565b03908101835282611497565b875194859384925192839161174a565b8201908152030190205494611736565b51015116916040519361093f85611443565b845283015260408201526109538383611736565b52611736565b506114df565b9091929397959b9a9998969861080f565b5050509a999896949a979597610814565b95868b82809b9d9e9f996109969d9b9d6115ea565b92010152019b9a9997959b989698610802565b6107ff9192506109ca903d8087833e6109c28183611497565b81019061165e565b91906107c9565b6040513d86823e3d90fd5b8760045416604051906370a0823160e01b8252600482015284816024818c7f0000000000000000000000000000000000000000000000000000000000000000165afa9081156109d1578491610a65575b5090610a5a610a51610a4360049486515190611609565b610a4b611561565b9061161c565b60a05151611504565b60a05152905061079f565b90508481813d8311610a8d575b610a7c8183611497565b810103126104f45751610a5a610a2c565b503d610a72565b8c82610aa8610aa284611511565b5061176d565b9182511614610ac1575b50610abc906114df565b61076f565b94610abc91946060610adb610ae49360408a015190611504565b97015190611504565b9390610ab2565b600080fd5b5080fd5b50346106ee57806003193601126106ee576020610b0f611561565b604051908152f35b50346106ee57610b2636611405565b819291159081158092610caf575b1561058957610b4161181d565b6004546001600160a01b0392908316803b15610cab578480916004604051809481936305dabd6960e51b83525af1801561045657908591610c97575b5050610c64575b80610c31575b60405193610b978561145f565b338552602085014281526040860191825260608601928352600354600160401b811015610c1d57806001610bce9201600355611511565b949094610c0957600394959651166001600160601b0360a01b86541617855551600185015551600284015551910155610c06336117a8565b80f35b634e487b7160e01b86526004869052602486fd5b634e487b7160e01b86526041600452602486fd5b610c5f813033857f000000000000000000000000000000000000000000000000000000000000000016611ae7565b610b8a565b610c92843033857f000000000000000000000000000000000000000000000000000000000000000016611ae7565b610b84565b610ca09061142f565b6104f4578338610b7d565b8480fd5b50801515610b34565b50346106ee57602080600319360112610af057600480546001600160a01b0391359082163303610de057610cea611561565b9283610cf4578480f35b610d2682959394953033877f000000000000000000000000000000000000000000000000000000000000000016611ae7565b825b8354811015610d86578085610d3f610d81936113bb565b90549060031b1c168086526001808552610d63896102b98360408b20015489611609565b9187528452610d7a60026040882001918254611504565b90556114df565b610d28565b50509150805b60038054821015610dd35790610dce91610d7a610dba876102b96002610db187611511565b50015489611609565b91610dc484611511565b5001918254611504565b610d8c565b5050915050388080808480f35b60405162461bcd60e51b815260048101849052601060248201526f32b93916b4b73b30b634b216bab9b2b960811b6044820152606490fd5b50346106ee57806003193601126106ee576004546040516001600160a01b039091168152602090f35b50346106ee57610e5036611405565b610e5b92919261181d565b6004546001600160a01b0393908416803b156104f4578380916004604051809481936305dabd6960e51b83525af180156109d15761113e575b50338352600191602091838352836040862001548111158061112d575b156110f257806110a6575b5080611059575b5033835281815260408084208151610eda81611443565b86825416815260028583015492838684015201549283910152159081611050575b50610f04578280f35b338352818152604083209360405194610f1c86611443565b600282825416918288528581015485890152015460408701528385905b610f62575b50509180916002938596511685525282604081209181835582015501558038808280f35b85548082101561104a57908383928794610f7b846113bb565b939054600394851b1c1614610f9d575b5050610f96906114df565b9091610f39565b9293509091600019908181019081116110365785610fbd610ff1926113bb565b905490851b1c16610fcd856113bb565b90919082549060031b9160018060a01b039283811b93849216901b16911916179055565b8754801561102257918588959492610f9694019161100e836113bb565b81939154921b1b1916905588559038610f8b565b634e487b7160e01b89526031600452602489fd5b634e487b7160e01b89526011600452602489fd5b50610f3e565b90501538610efb565b6110868133877f000000000000000000000000000000000000000000000000000000000000000016611aa6565b33845282825261109e60026040862001918254611810565b905538610ec3565b6110d38133887f000000000000000000000000000000000000000000000000000000000000000016611aa6565b3385528383526110ea846040872001918254611810565b905538610ebc565b60405162461bcd60e51b81526004810184905260136024820152721a5b9d985b1a590b591958dc8b585b5bdd5b9d606a1b6044820152606490fd5b506002604086200154821115610eb1565b61114a9093919361142f565b9138610e94565b50346106ee57806003193601126106ee576005546040516317bab80360e11b8152906001600160a01b039083908390600490829085165afa91821561062e578392611333575b5082805b835181101561132f576111ae8185611736565b5180516040516bffffffffffffffffffffffff193360601b166020808301918252603480840194909452928252928691601f19906111ed605482611497565b6111ff6040519687925192839161174a565b85019484816002978881520301902054948561122d575b50505050505061122691506114df565b839061119b565b6112798584938a9382965191611268604051918261090187820196338890916034926001600160601b03199060601b16825260148201520190565b60405194859384925192839161174a565b82019081520301902055015116806112b5575050918080809394335af161129e6119fc565b50156104f457611226905b84913884818080611216565b60405163a9059cbb60e01b81523360048201526024810193909352919390918291859160449183915af192831561132457611226936112f6575b50506112a9565b8161131592903d1061131d575b61130d8183611497565b8101906119e4565b5038806112ef565b503d611303565b6040513d88823e3d90fd5b5080f35b6113489192503d8085833e6109c28183611497565b9038611197565b50346106ee57806003193601126106ee576005546040516001600160a01b039091168152602090f35b50346106ee5760203660031901126106ee576004359080548210156106ee5760206113a2836113bb565b905460405160039290921b1c6001600160a01b03168152f35b9060009182548110156113f1578280527f290decd9548b62a8d60345a988386fc84ba6bc95484008f6362f93160ef3e563019190565b634e487b7160e01b83526032600452602483fd5b6040906003190112610aeb576004359060243590565b35906001600160a01b0382168203610aeb57565b67ffffffffffffffff81116106d057604052565b6060810190811067ffffffffffffffff8211176106d057604052565b6080810190811067ffffffffffffffff8211176106d057604052565b60a0810190811067ffffffffffffffff8211176106d057604052565b90601f8019910116810190811067ffffffffffffffff8211176106d057604052565b67ffffffffffffffff81116106d05760051b60200190565b359060ff82168203610aeb57565b60001981146114ee5760010190565b634e487b7160e01b600052601160045260246000fd5b919082018092116114ee57565b60035481101561154b57600360005260021b7fc2575a0e9e593c00f959f8c92f12db2869c3395a3b0502d05e2516446f71f85b0190600090565b634e487b7160e01b600052603260045260246000fd5b60009060008081545b8082106115ab5750506003545b808210611582575050565b909261159f6115a591600261159687611511565b50015490611504565b936114df565b90611577565b90936105fe6115e4916115bd876113bb565b905460039190911b1c6001600160a01b031685526001602081905260408620015490611504565b9061156a565b604051906115f782611443565b60006040838281528260208201520152565b818102929181159184041417156114ee57565b8115611626570490565b634e487b7160e01b600052601260045260246000fd5b51906001600160a01b0382168203610aeb57565b519060ff82168203610aeb57565b6020908181840312610aeb5780519067ffffffffffffffff8211610aeb570182601f82011215610aeb57805191611694836114b9565b9360406116a381519687611497565b848652828601918360a080970286010194818611610aeb578401925b8584106116d0575050505050505090565b8684830312610aeb5784879184516116e78161147b565b865181526116f683880161163c565b83820152611705868801611650565b86820152606061171681890161163c565b908201526080611727818901611650565b908201528152019301926116bf565b805182101561154b5760209160051b010190565b60005b83811061175d5750506000910152565b818101518382015260200161174d565b9060405161177a8161145f565b82546001600160a01b0316815260018301546020820152600283015460408201526003909201546060830152565b6000908154915b8281106117d85750600160401b8210156106d057610fcd8260016117d694016000556113bb565b565b6117e1816113bb565b905460039190911b1c6001600160a01b039081169083161461180b57611806906114df565b6117af565b505050565b919082039182116114ee57565b6201517f1942014281116114ee5760005b600390815481101561180b57611846610aa282611511565b91602090848285015110611870575b50909150506001600160ff1b0381146114ee5760010161182e565b60018060a01b0393848151169081600052600195869182865282604096876000206001600160601b0360a01b968782541617905587830151848451166000526118c0838a60002001918254611504565b9055836060840151935116600052526118e26002809760002001918254611504565b905585915b61195f575b5050508054938415611949576000199485019261190884611511565b6119335760008492818095818555840155820155015555600160ff1b81146114ee5701803880611855565b634e487b7160e01b600052600060045260246000fd5b634e487b7160e01b600052603160045260246000fd5b835460001981019081116114ee578210156119df578682018083116114ee5761198790611511565b5061199183611511565b939093611933578386836119af948c97036119b5575b5050506114df565b916118e7565b8086839254168985541617845587810154888501558a8101548b85015501549101553886816119a7565b6118ec565b90816020910312610aeb57518015158103610aeb5790565b3d15611a37573d9067ffffffffffffffff82116106d05760405191611a2b601f8201601f191660200184611497565b82523d6000602084013e565b606090565b519069ffffffffffffffffffff82168203610aeb57565b908160a0910312610aeb57611a6781611a3c565b91602082015191604081015191611a85608060608401519301611a3c565b90565b6040602082015191015190818111600014611aa1575090565b905090565b60405163a9059cbb60e01b60208201526001600160a01b039290921660248301526044808301939093529181526117d691611ae2606483611497565b611b3c565b6040516323b872dd60e01b60208201526001600160a01b03928316602482015292909116604483015260648083019390935291815260a081019181831067ffffffffffffffff8411176106d0576117d6926040525b60408051908101916001600160a01b031667ffffffffffffffff8311828410176106d057611bac926040526000806020958685527f5361666545524332303a206c6f772d6c6576656c2063616c6c206661696c656487860152868151910182855af1611ba66119fc565b91611c34565b805190828215928315611c1c575b50505015611bc55750565b6084906040519062461bcd60e51b82526004820152602a60248201527f5361666545524332303a204552433230206f7065726174696f6e20646964206e6044820152691bdd081cdd58d8d9595960b21b6064820152fd5b611c2c93508201810191016119e4565b388281611bba565b91929015611c965750815115611c48575090565b3b15611c515790565b60405162461bcd60e51b815260206004820152601d60248201527f416464726573733a2063616c6c20746f206e6f6e2d636f6e74726163740000006044820152606490fd5b825190915015611ca95750805190602001fd5b6044604051809262461bcd60e51b825260206004830152611cd9815180928160248601526020868601910161174a565b601f01601f19168101030190fdfea2646970667358221220d41a7eb380ce8cb23df2126025d515c00cc24e0d0c53aac9ef07abcd203a0b2564736f6c63430008110033",
    "linkReferences": {}
  },
  "methodIdentifiers": {
    "claimRewards()": "372500ab",
    "decreasePosition(uint256,uint256)": "3bacfca9",
    "distributeAssets(((bytes32,address,uint8,address,uint8),uint256)[],uint256,uint256)": "bfb08fe0",
    "distributeFees(uint256)": "6029bf9f",
    "getTstTotal()": "861259b1",
    "holders(uint256)": "2a11ced0",
    "increasePosition(uint256,uint256)": "6fe5452c",
    "manager()": "481c6a75",
    "position(address)": "b7648fb9",
    "tokenManager()": "2a709b14"
  },
  "id": 0
}