{
  "abi": [
    {
      "anonymous": false,
      "inputs": [
        {
          "indexed": true,
          "internalType": "address",
          "name": "owner",
          "type": "address"
        },
        {
          "indexed": true,
          "internalType": "address",
          "name": "approved",
          "type": "address"
        },
        {
          "indexed": true,
          "internalType": "uint256",
          "name": "tokenId",
          "type": "uint256"
        }
      ],
      "name": "Approval",
      "type": "event"
    },
    {
      "anonymous": false,
      "inputs": [
        {
          "indexed": true,
          "internalType": "address",
          "name": "owner",
          "type": "address"
        },
        {
          "indexed": true,
          "internalType": "address",
          "name": "operator",
          "type": "address"
        },
        {
          "indexed": false,
          "internalType": "bool",
          "name": "approved",
          "type": "bool"
        }
      ],
      "name": "ApprovalForAll",
      "type": "event"
    },
    {
      "anonymous": false,
      "inputs": [
        {
          "indexed": false,
          "internalType": "uint8",
          "name": "version",
          "type": "uint8"
        }
      ],
      "name": "Initialized",
      "type": "event"
    },
    {
      "anonymous": false,
      "inputs": [
        {
          "indexed": true,
          "internalType": "address",
          "name": "previousOwner",
          "type": "address"
        },
        {
          "indexed": true,
          "internalType": "address",
          "name": "newOwner",
          "type": "address"
        }
      ],
      "name": "OwnershipTransferred",
      "type": "event"
    },
    {
      "anonymous": false,
      "inputs": [
        {
          "indexed": true,
          "internalType": "address",
          "name": "from",
          "type": "address"
        },
        {
          "indexed": true,
          "internalType": "address",
          "name": "to",
          "type": "address"
        },
        {
          "indexed": true,
          "internalType": "uint256",
          "name": "tokenId",
          "type": "uint256"
        }
      ],
      "name": "Transfer",
      "type": "event"
    },
    {
      "anonymous": false,
      "inputs": [
        {
          "indexed": true,
          "internalType": "address",
          "name": "vaultAddress",
          "type": "address"
        },
        {
          "indexed": true,
          "internalType": "address",
          "name": "owner",
          "type": "address"
        },
        {
          "indexed": false,
          "internalType": "address",
          "name": "vaultType",
          "type": "address"
        },
        {
          "indexed": false,
          "internalType": "uint256",
          "name": "tokenId",
          "type": "uint256"
        }
      ],
      "name": "VaultDeployed",
      "type": "event"
    },
    {
      "anonymous": false,
      "inputs": [
        {
          "indexed": true,
          "internalType": "address",
          "name": "vaultAddress",
          "type": "address"
        }
      ],
      "name": "VaultLiquidated",
      "type": "event"
    },
    {
      "anonymous": false,
      "inputs": [
        {
          "indexed": true,
          "internalType": "uint256",
          "name": "tokenId",
          "type": "uint256"
        },
        {
          "indexed": false,
          "internalType": "address",
          "name": "from",
          "type": "address"
        },
        {
          "indexed": false,
          "internalType": "address",
          "name": "to",
          "type": "address"
        }
      ],
      "name": "VaultTransferred",
      "type": "event"
    },
    {
      "inputs": [],
      "name": "HUNDRED_PC",
      "outputs": [
        {
          "internalType": "uint256",
          "name": "",
          "type": "uint256"
        }
      ],
      "stateMutability": "view",
      "type": "function"
    },
    {
      "inputs": [
        {
          "internalType": "address",
          "name": "to",
          "type": "address"
        },
        {
          "internalType": "uint256",
          "name": "tokenId",
          "type": "uint256"
        }
      ],
      "name": "approve",
      "outputs": [],
      "stateMutability": "nonpayable",
      "type": "function"
    },
    {
      "inputs": [
        {
          "internalType": "address",
          "name": "owner",
          "type": "address"
        }
      ],
      "name": "balanceOf",
      "outputs": [
        {
          "internalType": "uint256",
          "name": "",
          "type": "uint256"
        }
      ],
      "stateMutability": "view",
      "type": "function"
    },
    {
      "inputs": [],
      "name": "burnFeeRate",
      "outputs": [
        {
          "internalType": "uint256",
          "name": "",
          "type": "uint256"
        }
      ],
      "stateMutability": "view",
      "type": "function"
    },
    {
      "inputs": [],
      "name": "collateralRate",
      "outputs": [
        {
          "internalType": "uint256",
          "name": "",
          "type": "uint256"
        }
      ],
      "stateMutability": "view",
      "type": "function"
    },
    {
      "inputs": [],
      "name": "euros",
      "outputs": [
        {
          "internalType": "address",
          "name": "",
          "type": "address"
        }
      ],
      "stateMutability": "view",
      "type": "function"
    },
    {
      "inputs": [
        {
          "internalType": "uint256",
          "name": "tokenId",
          "type": "uint256"
        }
      ],
      "name": "getApproved",
      "outputs": [
        {
          "internalType": "address",
          "name": "",
          "type": "address"
        }
      ],
      "stateMutability": "view",
      "type": "function"
    },
    {
      "inputs": [],
      "name": "initialize",
      "outputs": [],
      "stateMutability": "nonpayable",
      "type": "function"
    },
    {
      "inputs": [
        {
          "internalType": "address",
          "name": "owner",
          "type": "address"
        },
        {
          "internalType": "address",
          "name": "operator",
          "type": "address"
        }
      ],
      "name": "isApprovedForAll",
      "outputs": [
        {
          "internalType": "bool",
          "name": "",
          "type": "bool"
        }
      ],
      "stateMutability": "view",
      "type": "function"
    },
    {
      "inputs": [
        {
          "internalType": "uint256",
          "name": "_tokenId",
          "type": "uint256"
        }
      ],
      "name": "liquidateVault",
      "outputs": [],
      "stateMutability": "nonpayable",
      "type": "function"
    },
    {
      "inputs": [],
      "name": "liquidator",
      "outputs": [
        {
          "internalType": "address",
          "name": "",
          "type": "address"
        }
      ],
      "stateMutability": "view",
      "type": "function"
    },
    {
      "inputs": [],
      "name": "mint",
      "outputs": [
        {
          "internalType": "address",
          "name": "vault",
          "type": "address"
        },
        {
          "internalType": "uint256",
          "name": "tokenId",
          "type": "uint256"
        }
      ],
      "stateMutability": "nonpayable",
      "type": "function"
    },
    {
      "inputs": [],
      "name": "mintFeeRate",
      "outputs": [
        {
          "internalType": "uint256",
          "name": "",
          "type": "uint256"
        }
      ],
      "stateMutability": "view",
      "type": "function"
    },
    {
      "inputs": [],
      "name": "name",
      "outputs": [
        {
          "internalType": "string",
          "name": "",
          "type": "string"
        }
      ],
      "stateMutability": "view",
      "type": "function"
    },
    {
      "inputs": [],
      "name": "nftMetadataGenerator",
      "outputs": [
        {
          "internalType": "address",
          "name": "",
          "type": "address"
        }
      ],
      "stateMutability": "view",
      "type": "function"
    },
    {
      "inputs": [],
      "name": "owner",
      "outputs": [
        {
          "internalType": "address",
          "name": "",
          "type": "address"
        }
      ],
      "stateMutability": "view",
      "type": "function"
    },
    {
      "inputs": [
        {
          "internalType": "uint256",
          "name": "tokenId",
          "type": "uint256"
        }
      ],
      "name": "ownerOf",
      "outputs": [
        {
          "internalType": "address",
          "name": "",
          "type": "address"
        }
      ],
      "stateMutability": "view",
      "type": "function"
    },
    {
      "inputs": [],
      "name": "protocol",
      "outputs": [
        {
          "internalType": "address",
          "name": "",
          "type": "address"
        }
      ],
      "stateMutability": "view",
      "type": "function"
    },
    {
      "inputs": [],
      "name": "renounceOwnership",
      "outputs": [],
      "stateMutability": "nonpayable",
      "type": "function"
    },
    {
      "inputs": [
        {
          "internalType": "address",
          "name": "from",
          "type": "address"
        },
        {
          "internalType": "address",
          "name": "to",
          "type": "address"
        },
        {
          "internalType": "uint256",
          "name": "tokenId",
          "type": "uint256"
        }
      ],
      "name": "safeTransferFrom",
      "outputs": [],
      "stateMutability": "nonpayable",
      "type": "function"
    },
    {
      "inputs": [
        {
          "internalType": "address",
          "name": "from",
          "type": "address"
        },
        {
          "internalType": "address",
          "name": "to",
          "type": "address"
        },
        {
          "internalType": "uint256",
          "name": "tokenId",
          "type": "uint256"
        },
        {
          "internalType": "bytes",
          "name": "data",
          "type": "bytes"
        }
      ],
      "name": "safeTransferFrom",
      "outputs": [],
      "stateMutability": "nonpayable",
      "type": "function"
    },
    {
      "inputs": [
        {
          "internalType": "address",
          "name": "operator",
          "type": "address"
        },
        {
          "internalType": "bool",
          "name": "approved",
          "type": "bool"
        }
      ],
      "name": "setApprovalForAll",
      "outputs": [],
      "stateMutability": "nonpayable",
      "type": "function"
    },
    {
      "inputs": [
        {
          "internalType": "uint256",
          "name": "_rate",
          "type": "uint256"
        }
      ],
      "name": "setBurnFeeRate",
      "outputs": [],
      "stateMutability": "nonpayable",
      "type": "function"
    },
    {
      "inputs": [
        {
          "internalType": "address",
          "name": "_liquidator",
          "type": "address"
        }
      ],
      "name": "setLiquidatorAddress",
      "outputs": [],
      "stateMutability": "nonpayable",
      "type": "function"
    },
    {
      "inputs": [
        {
          "internalType": "uint256",
          "name": "_rate",
          "type": "uint256"
        }
      ],
      "name": "setMintFeeRate",
      "outputs": [],
      "stateMutability": "nonpayable",
      "type": "function"
    },
    {
      "inputs": [
        {
          "internalType": "address",
          "name": "_nftMetadataGenerator",
          "type": "address"
        }
      ],
      "name": "setNFTMetadataGenerator",
      "outputs": [],
      "stateMutability": "nonpayable",
      "type": "function"
    },
    {
      "inputs": [
        {
          "internalType": "address",
          "name": "_protocol",
          "type": "address"
        }
      ],
      "name": "setProtocolAddress",
      "outputs": [],
      "stateMutability": "nonpayable",
      "type": "function"
    },
    {
      "inputs": [
        {
          "internalType": "address",
          "name": "_smartVaultDeployer",
          "type": "address"
        }
      ],
      "name": "setSmartVaultDeployer",
      "outputs": [],
      "stateMutability": "nonpayable",
      "type": "function"
    },
    {
      "inputs": [
        {
          "internalType": "uint256",
          "name": "_rate",
          "type": "uint256"
        }
      ],
      "name": "setSwapFeeRate",
      "outputs": [],
      "stateMutability": "nonpayable",
      "type": "function"
    },
    {
      "inputs": [
        {
          "internalType": "address",
          "name": "_swapRouter",
          "type": "address"
        }
      ],
      "name": "setSwapRouter2",
      "outputs": [],
      "stateMutability": "nonpayable",
      "type": "function"
    },
    {
      "inputs": [
        {
          "internalType": "address",
          "name": "_weth",
          "type": "address"
        }
      ],
      "name": "setWethAddress",
      "outputs": [],
      "stateMutability": "nonpayable",
      "type": "function"
    },
    {
      "inputs": [],
      "name": "smartVaultDeployer",
      "outputs": [
        {
          "internalType": "address",
          "name": "",
          "type": "address"
        }
      ],
      "stateMutability": "view",
      "type": "function"
    },
    {
      "inputs": [
        {
          "internalType": "bytes4",
          "name": "interfaceId",
          "type": "bytes4"
        }
      ],
      "name": "supportsInterface",
      "outputs": [
        {
          "internalType": "bool",
          "name": "",
          "type": "bool"
        }
      ],
      "stateMutability": "view",
      "type": "function"
    },
    {
      "inputs": [],
      "name": "swapFeeRate",
      "outputs": [
        {
          "internalType": "uint256",
          "name": "",
          "type": "uint256"
        }
      ],
      "stateMutability": "view",
      "type": "function"
    },
    {
      "inputs": [],
      "name": "swapRouter",
      "outputs": [
        {
          "internalType": "address",
          "name": "",
          "type": "address"
        }
      ],
      "stateMutability": "view",
      "type": "function"
    },
    {
      "inputs": [],
      "name": "swapRouter2",
      "outputs": [
        {
          "internalType": "address",
          "name": "",
          "type": "address"
        }
      ],
      "stateMutability": "view",
      "type": "function"
    },
    {
      "inputs": [],
      "name": "symbol",
      "outputs": [
        {
          "internalType": "string",
          "name": "",
          "type": "string"
        }
      ],
      "stateMutability": "view",
      "type": "function"
    },
    {
      "inputs": [],
      "name": "tokenManager",
      "outputs": [
        {
          "internalType": "address",
          "name": "",
          "type": "address"
        }
      ],
      "stateMutability": "view",
      "type": "function"
    },
    {
      "inputs": [
        {
          "internalType": "uint256",
          "name": "_tokenId",
          "type": "uint256"
        }
      ],
      "name": "tokenURI",
      "outputs": [
        {
          "internalType": "string",
          "name": "",
          "type": "string"
        }
      ],
      "stateMutability": "view",
      "type": "function"
    },
    {
      "inputs": [],
      "name": "totalSupply",
      "outputs": [
        {
          "internalType": "uint256",
          "name": "",
          "type": "uint256"
        }
      ],
      "stateMutability": "view",
      "type": "function"
    },
    {
      "inputs": [
        {
          "internalType": "address",
          "name": "from",
          "type": "address"
        },
        {
          "internalType": "address",
          "name": "to",
          "type": "address"
        },
        {
          "internalType": "uint256",
          "name": "tokenId",
          "type": "uint256"
        }
      ],
      "name": "transferFrom",
      "outputs": [],
      "stateMutability": "nonpayable",
      "type": "function"
    },
    {
      "inputs": [
        {
          "internalType": "address",
          "name": "newOwner",
          "type": "address"
        }
      ],
      "name": "transferOwnership",
      "outputs": [],
      "stateMutability": "nonpayable",
      "type": "function"
    },
    {
      "inputs": [],
      "name": "vaults",
      "outputs": [
        {
          "components": [
            {
              "internalType": "uint256",
              "name": "tokenId",
              "type": "uint256"
            },
            {
              "internalType": "uint256",
              "name": "collateralRate",
              "type": "uint256"
            },
            {
              "internalType": "uint256",
              "name": "mintFeeRate",
              "type": "uint256"
            },
            {
              "internalType": "uint256",
              "name": "burnFeeRate",
              "type": "uint256"
            },
            {
              "components": [
                {
                  "internalType": "address",
                  "name": "vaultAddress",
                  "type": "address"
                },
                {
                  "internalType": "uint256",
                  "name": "minted",
                  "type": "uint256"
                },
                {
                  "internalType": "uint256",
                  "name": "maxMintable",
                  "type": "uint256"
                },
                {
                  "internalType": "uint256",
                  "name": "totalCollateralValue",
                  "type": "uint256"
                },
                {
                  "components": [
                    {
                      "components": [
                        {
                          "internalType": "bytes32",
                          "name": "symbol",
                          "type": "bytes32"
                        },
                        {
                          "internalType": "address",
                          "name": "addr",
                          "type": "address"
                        },
                        {
                          "internalType": "uint8",
                          "name": "dec",
                          "type": "uint8"
                        },
                        {
                          "internalType": "address",
                          "name": "clAddr",
                          "type": "address"
                        },
                        {
                          "internalType": "uint8",
                          "name": "clDec",
                          "type": "uint8"
                        }
                      ],
                      "internalType": "struct ITokenManager.Token",
                      "name": "token",
                      "type": "tuple"
                    },
                    {
                      "internalType": "uint256",
                      "name": "amount",
                      "type": "uint256"
                    },
                    {
                      "internalType": "uint256",
                      "name": "collateralValue",
                      "type": "uint256"
                    }
                  ],
                  "internalType": "struct ISmartVault.Asset[]",
                  "name": "collateral",
                  "type": "tuple[]"
                },
                {
                  "internalType": "bool",
                  "name": "liquidated",
                  "type": "bool"
                },
                {
                  "internalType": "uint8",
                  "name": "version",
                  "type": "uint8"
                },
                {
                  "internalType": "bytes32",
                  "name": "vaultType",
                  "type": "bytes32"
                }
              ],
              "internalType": "struct ISmartVault.Status",
              "name": "status",
              "type": "tuple"
            }
          ],
          "internalType": "struct SmartVaultManagerV5.SmartVaultData[]",
          "name": "",
          "type": "tuple[]"
        }
      ],
      "stateMutability": "view",
      "type": "function"
    },
    {
      "inputs": [],
      "name": "weth",
      "outputs": [
        {
          "internalType": "address",
          "name": "",
          "type": "address"
        }
      ],
      "stateMutability": "view",
      "type": "function"
    }
  ],
  "bytecode": {
    "object": "0x60808060405234610016576127fa908161001c8239f35b600080fdfe608080604052600436101561001357600080fd5b600090813560e01c90816301ffc9a714611c1e5750806306fdde0314611b5c578063081812fc14611b3d578063095ea7b3146119c85780631249c58b1461154657806318160ddd1461152857806318819a311461150a578063206c186d146114ca57806320fdf070146114ac57806321fbbf2f1461148357806323b872dd1461145e5780632a709b14146114355780633143ab57146114125780633a04801d146113f45780633fc8cef3146113cb5780634046ebae146113a257806342842e0e1461136f578063509bf42a1461135157806358a6be1c1461133357806358e47004146112f35780635dfd8b53146112d05780636352211e1461129f57806370a082311461120957806370bc680c146111e0578063715018a6146111825780638129fc1c146110725780638220ef5b14610d0b5780638ce7442614610ce25780638da5cb5b14610cb957806390cf0bba146109155780639276b109146108d557806395d89b41146107c8578063a22cb465146106f6578063a96e2423146106b6578063b88d4fde14610602578063bb09e447146105c2578063c31c9c0714610599578063c44cf63a14610570578063c87b56dd146103ad578063ca8074741461036d578063cb35118814610344578063d1154ff014610321578063e985e9c5146102cd5763f2fde38b1461020557600080fd5b346102ca5760203660031901126102ca5761021e611cd3565b6102266120dc565b6001600160a01b0390811690811561027657609754826001600160601b0360a01b821617609755167f8be0079c531659141344cd1fd0a4f28419497f9722a3daafe3b4186f6b6457e0600080a380f35b60405162461bcd60e51b815260206004820152602660248201527f4f776e61626c653a206e6577206f776e657220697320746865207a65726f206160448201526564647265737360d01b6064820152608490fd5b80fd5b50346102ca5760403660031901126102ca576102e7611cd3565b60406102f1611ce9565b9260018060a01b038093168152606a602052209116600052602052602060ff604060002054166040519015158152f35b50346102ca5760203660031901126102ca5761033b6120dc565b60043560d45580f35b50346102ca57806003193601126102ca5760d7546040516001600160a01b039091168152602090f35b50346102ca5760203660031901126102ca57610387611cd3565b61038f6120dc565b60018060a01b03166001600160601b0360a01b60d754161760d75580f35b50346102ca576020806003193601126105005760043582602460018060a01b0392848460cf54166040519384809263735e935160e11b82528560048301525afa91821561053857849284918291610543575b50600460405180978193631006976960e11b8352165afa91821561053857610457948493610514575b5060d154169060405180958194829363256082c960e11b84526004840152604060248401526044830190611d34565b03915afa928315610508578093610483575b505061047f604051928284938452830190611cae565b0390f35b909192503d8082843e6104968184611e60565b82019183818403126105005780519067ffffffffffffffff8211610504570182601f82011215610500578051916104cc83611e82565b936104da6040519586611e60565b8385528584840101116102ca5750906104f891848085019101611c8b565b903880610469565b5080fd5b8280fd5b604051903d90823e3d90fd5b6105319193503d8086833e6105298183611e60565b810190611f2e565b9138610428565b6040513d85823e3d90fd5b6105639150873d8911610569575b61055b8183611e60565b810190611ee0565b386103ff565b503d610551565b50346102ca57806003193601126102ca5760d1546040516001600160a01b039091168152602090f35b50346102ca57806003193601126102ca5760d6546040516001600160a01b039091168152602090f35b50346102ca5760203660031901126102ca576105dc611cd3565b6105e46120dc565b60018060a01b03166001600160601b0360a01b60ca54161760ca5580f35b50346102ca5760803660031901126102ca5761061c611cd3565b610624611ce9565b6064359160443567ffffffffffffffff84116106b257366023850112156106b25783600401359261065484611e82565b926106626040519485611e60565b8484528636602487890101116102ca576020866106aa9760246106af9a01838901378601015261069a61069584336122bd565b6121e4565b6106a58383836123d1565b612739565b612299565b80f35b8480fd5b50346102ca5760203660031901126102ca576106d0611cd3565b6106d86120dc565b60018060a01b03166001600160601b0360a01b60d554161760d55580f35b50346102ca5760403660031901126102ca57610710611cd3565b60243590811515809203610504576001600160a01b03169033821461078357338352606a6020526040832082600052602052604060002060ff1981541660ff83161790556040519081527f17307eab39ab6107e8899845ad3d59bd9653f200f220920489ca2b5937696c3160203392a380f35b60405162461bcd60e51b815260206004820152601960248201527f4552433732313a20617070726f766520746f2063616c6c6572000000000000006044820152606490fd5b50346102ca57806003193601126102ca57604051908060665491600183811c928185169485156108cb575b60209586861081146108b75785885287949392918790821561089557505060011461083b575b505061082792500383611e60565b61047f604051928284938452830190611cae565b90859250606682527f46501879b8ca8525e8c2fd519e2fbfcfa2ebea26501294aa02cbfcfb12e943545b85831061087d57505061082793508201013880610819565b80548389018501528794508693909201918101610865565b925093505061082794915060ff191682840152151560051b8201013880610819565b634e487b7160e01b83526022600452602483fd5b93607f16936107f3565b50346102ca5760203660031901126102ca576108ef611cd3565b6108f76120dc565b60018060a01b03166001600160601b0360a01b60d154161760d15580f35b50346102ca576020806003193601126105005760ca546001600160a01b039081163303610c7b576024828260cf54166040519283809263735e935160e11b825260043560048301525afa8015610bd45782918591610c5e575b5016906040516311d0a62560e21b81528381600481865afa859181610c23575b506109d85760405162461bcd60e51b815260048101859052601760248201527f6f746865722d6c69717569646174696f6e2d6572726f720000000000000000006044820152606490fd5b92849315610bdf57908391833b15610504576040516328a0702560e01b8152838160048183895af1908115610bd4578491610bc0575b505060cb5460405163d539139360e01b8152929081168284600481845afa938415610b6f578594610b8e575b50803b156106b25760405163d547741f60e01b80825260048201959095526001600160a01b03871660248201529085908290604490829084905af1908115610b6f578591610b7a575b505060cb54169160405163282c51f360e01b81528281600481875afa928315610b6f578593610b37575b5050823b15610b335760405190815260048101919091526001600160a01b03841660248201529082908290604490829084905af18015610b2857610b14575b50807f1a859cd6d744d14a7aa31ec6d24a7aa146272e8b7ceaca90635e47e01978af9291a280f35b610b1d90611e14565b610500578183610aec565b6040513d84823e3d90fd5b8380fd5b819550809293503d8311610b68575b610b508183611e60565b81010312610b6357849251908680610aad565b600080fd5b503d610b46565b6040513d87823e3d90fd5b610b8390611e14565b610b33578387610a83565b945092508184813d8111610bb9575b610ba78183611e60565b81010312610b63578593519287610a3a565b503d610b9d565b610bc990611e14565b610504578286610a0e565b6040513d86823e3d90fd5b6064906040519062461bcd60e51b82526004820152601d60248201527f7661756c742d6e6f742d756e646572636f6c6c61746572616c697365640000006044820152fd5b9091508481813d8311610c57575b610c3b8183611e60565b81010312610c5357610c4c90611f21565b903861098e565b8580fd5b503d610c31565b610c759150843d86116105695761055b8183611e60565b3861096e565b60405162461bcd60e51b815260048101839052601660248201527532b93916b4b73b30b634b216b634b8bab4b230ba37b960511b6044820152606490fd5b50346102ca57806003193601126102ca576097546040516001600160a01b039091168152602090f35b50346102ca57806003193601126102ca5760c9546040516001600160a01b039091168152602090f35b50346102ca57806003193601126102ca5760cf54604051636802581b60e11b815233600482015291906001600160a01b03168183602481845afa928315610b28578293610fdf575b5091805192610d6184611e9e565b91610d6f6040519384611e60565b848352610d7b85611e9e565b845b601f1982018110610f3a575050839060cc5460d2549160d354935b888110610e2d5760408051602080825289518183018190528b93600582901b8401810192808d01929185015b828710610dd15785850386f35b909192938280610e1d600193603f198a8203018652885180518252838101518483015260408101516040830152606080820151908301526080809101519160a080928201520190611d34565b9601920196019592919092610dc4565b610e378183611eb6565b5160405163735e935160e11b8152600481018290526020816024818b5afa908115610f10576004918b918291610f1b575b50604051631006976960e11b815292839182906001600160a01b03165afa908115610f10578a91610ef6575b5060405191610ea283611e28565b82528460208301528560408301528660608301526080820152610ec58289611eb6565b52610ed08188611eb6565b506000198114610ee257600101610d98565b634e487b7160e01b88526011600452602488fd5b610f0a91503d808c833e6105298183611e60565b38610e94565b6040513d8c823e3d90fd5b610f34915060203d6020116105695761055b8183611e60565b38610e68565b60409692965190610f4a82611e28565b868252602091878382015287604082015260609288848301526040518061010081011067ffffffffffffffff61010083011117610fc95760209461010082016040528a82528a838301528a60408301528a81830152608090818301528a60a08301528a60c08301528a60e0830152830152828801015201959195610d7d565b634e487b7160e01b600052604160045260246000fd5b9092503d8083833e610ff18183611e60565b8101906020908181840312610b335780519067ffffffffffffffff82116106b257019180601f84011215610b3357825161102a81611e9e565b936110386040519586611e60565b818552838086019260051b820101928311610c53578301905b82821061106357505050509138610d53565b81518152908301908301611051565b50346102ca57806003193601126102ca57805460ff8160081c161590818092611175575b801561115e575b156111025760ff1981166001178355816110f1575b506110ba5780f35b61ff001981541681557f7f26b83ff96e1f2b6a682f133852f6798a09c465da95921460cefb3847402498602060405160018152a180f35b61ffff1916610101178255386110b2565b60405162461bcd60e51b815260206004820152602e60248201527f496e697469616c697a61626c653a20636f6e747261637420697320616c72656160448201526d191e481a5b9a5d1a585b1a5e995960921b6064820152608490fd5b50303b15801561109d5750600160ff82161461109d565b50600160ff821610611096565b50346102ca57806003193601126102ca5761119b6120dc565b609780546001600160a01b031981169091556000906001600160a01b03167f8be0079c531659141344cd1fd0a4f28419497f9722a3daafe3b4186f6b6457e08280a380f35b50346102ca57806003193601126102ca5760cb546040516001600160a01b039091168152602090f35b50346102ca5760203660031901126102ca576001600160a01b0361122b611cd3565b168015611248578160409160209352606883522054604051908152f35b60405162461bcd60e51b815260206004820152602960248201527f4552433732313a2061646472657373207a65726f206973206e6f7420612076616044820152683634b21037bbb732b960b91b6064820152608490fd5b50346102ca5760203660031901126102ca5760206112be600435612180565b6040516001600160a01b039091168152f35b50346102ca5760203660031901126102ca576112ea6120dc565b60043560d35580f35b50346102ca5760203660031901126102ca5761130d611cd3565b6113156120dc565b60018060a01b03166001600160601b0360a01b60c954161760c95580f35b50346102ca57806003193601126102ca57602060cc54604051908152f35b50346102ca57806003193601126102ca57602060d354604051908152f35b50346102ca576106af6106aa61138436611cff565b906040519261139284611e44565b86845261069a61069584336122bd565b50346102ca57806003193601126102ca5760ca546040516001600160a01b039091168152602090f35b50346102ca57806003193601126102ca5760d5546040516001600160a01b039091168152602090f35b50346102ca57806003193601126102ca57602060d454604051908152f35b50346102ca5760203660031901126102ca5761142c6120dc565b60043560d25580f35b50346102ca57806003193601126102ca5760cd546040516001600160a01b039091168152602090f35b50346102ca576106af61147036611cff565b9161147e61069584336122bd565b6123d1565b50346102ca57806003193601126102ca5760ce546040516001600160a01b039091168152602090f35b50346102ca57806003193601126102ca576020604051620186a08152f35b50346102ca5760203660031901126102ca576114e4611cd3565b6114ec6120dc565b60018060a01b03166001600160601b0360a01b60ce54161760ce5580f35b50346102ca57806003193601126102ca57602060d254604051908152f35b50346102ca57806003193601126102ca57602060d054604051908152f35b50346102ca57806003193601126102ca5760d05490600182018092116119b45760405161157281611e44565b8181523315611970576000838152606760205260409020546115a0906001600160a01b031615155b1561232b565b6000838152606760205260409020546115c3906001600160a01b0316151561159a565b3382526020906068825260408320600181540190558383526067825260408320336001600160601b0360a01b825416179055604051908433857fddf252ad1be2c89b69c2b068fc378daa952ba7f163c4a11628f55a4df523b3ef8180a460cf546001600160a01b0392908316803b15610c535781606481888094630db7e5b360e21b83528160048401523360248401528b60448401525af18015610b6f57611957575b506106aa6116a491867fb94c2b508c30ec59449050da688941db7850240a61f359e7f4cf51f60a0037c2604080518981523389820152a2863361261d565b8360d05582828260ce541660648460cb5416604051978893849263d9181cd360e01b845230600485015233602485015260448401525af193841561194a578194611913575b508160cf54169282851693803b156105045782809160446040518094819363b41276c160e01b83528c60048401528a60248401525af18015610538579083916118ff575b505060cb5460405163d539139360e01b8152919084168183600481845afa928315610bd45784936118d0575b50803b15610b3357604051632f2ff15d60e01b80825260048201949094526001600160a01b03881660248201529084908290604490829084905af18015610bd4579084916118bc575b50508360cb54169160405163282c51f360e01b81528281600481875afa928315610b6f57859361188c575b5050823b15610b335760405190815260048101919091526001600160a01b03861660248201529082908290604490829084905af18015610b2857611878575b505060cb5416907fc2e5ddea5eacd045870205571e36f82db7a65a2ae56113d5732b0009ffb5b7e2604051806118598733968360209093929193604081019460018060a01b031681520152565b0390a3604080516001600160a01b039290921682526020820192909252f35b6118828291611e14565b6102ca578061180c565b9080929350813d83116118b5575b6118a48183611e60565b81010312610b6357519038806117cd565b503d61189a565b6118c590611e14565b6105045782386117a2565b9092508181813d83116118f8575b6118e88183611e60565b81010312610b6357519138611759565b503d6118de565b61190890611e14565b61050057813861172d565b9093508281813d8311611943575b61192b8183611e60565b81010312610b335761193c90611eff565b92386116e9565b503d611921565b50604051903d90823e3d90fd5b6116a491946119686106aa92611e14565b949150611666565b606460405162461bcd60e51b815260206004820152602060248201527f4552433732313a206d696e7420746f20746865207a65726f20616464726573736044820152fd5b634e487b7160e01b81526011600452602490fd5b50346102ca5760403660031901126102ca576119e2611cd3565b602435906001600160a01b0380806119f985612180565b16921691808314611aee57803314908115611acd575b5015611a625782845260696020526040842080546001600160a01b03191683179055611a3a83612180565b167f8c5be1e5ebec7d5bd14f71427d1e84f3dd0314c0f7b2291e5b200ac8c7c3b9258480a480f35b60405162461bcd60e51b815260206004820152603d60248201527f4552433732313a20617070726f76652063616c6c6572206973206e6f7420746f60448201527f6b656e206f776e6572206f7220617070726f76656420666f7220616c6c0000006064820152608490fd5b90508452606a6020526040842033855260205260ff60408520541638611a0f565b60405162461bcd60e51b815260206004820152602160248201527f4552433732313a20617070726f76616c20746f2063757272656e74206f776e656044820152603960f91b6064820152608490fd5b50346102ca5760203660031901126102ca5760206112be6004356121a6565b50346102ca57806003193601126102ca57604051908060655491600183811c92818516948515611c14575b60209586861081146108b757858852879493929187908215610895575050600114611bba57505061082792500383611e60565b90859250606582527f8ff97419363ffd7000167f130ef7168fbea05faf9251824ca5043f113cc6a7c75b858310611bfc57505061082793508201013880610819565b80548389018501528794508693909201918101611be4565b93607f1693611b87565b9050346105005760203660031901126105005760043563ffffffff60e01b811680910361050457602092506380ac58cd60e01b8114908115611c7a575b8115611c69575b5015158152f35b6301ffc9a760e01b14905038611c62565b635b5e139f60e01b81149150611c5b565b60005b838110611c9e5750506000910152565b8181015183820152602001611c8e565b90602091611cc781518092818552858086019101611c8b565b601f01601f1916010190565b600435906001600160a01b0382168203610b6357565b602435906001600160a01b0382168203610b6357565b6060906003190112610b63576001600160a01b03906004358281168103610b6357916024359081168103610b63579060443590565b906101009182820160018060a01b0390818351168452602080840151818601526040928385015184870152606093848601518588015260809485870151988689015288518095528361012089019901956000935b868510611dbc57505050505050505060e08160a082930151151560a085015260ff60c08201511660c0850152015191015290565b8751805180518d528088015183168d8901528086015160ff9081168e8801528186015184168e87015290840151168c8401528087015160a08d015284015160c08c015260e0909a019996850196600190940193611d88565b67ffffffffffffffff8111610fc957604052565b60a0810190811067ffffffffffffffff821117610fc957604052565b6020810190811067ffffffffffffffff821117610fc957604052565b90601f8019910116810190811067ffffffffffffffff821117610fc957604052565b67ffffffffffffffff8111610fc957601f01601f191660200190565b67ffffffffffffffff8111610fc95760051b60200190565b8051821015611eca5760209160051b010190565b634e487b7160e01b600052603260045260246000fd5b90816020910312610b6357516001600160a01b0381168103610b635790565b51906001600160a01b0382168203610b6357565b519060ff82168203610b6357565b51908115158203610b6357565b91909160208082850312610b6357815167ffffffffffffffff92838211610b6357016101008082870312610b635760409384519482860186811083821117610fc9578152611f7b84611eff565b865284840151858701528084015181870152606094858501518688015260809283860151818111610b63578601908a601f83011215610b63578a93825198611fc28a611e9e565b97611fcf8351998a611e60565b8a8952858901948660e0809d02820101978811610b63578601945b87861061202c575050505050505050848495969750015261200d60a08201611f21565b60a085015261201e60c08201611f13565b60c085015201519082015290565b858f03908c8212610b635784519084820191808310888411176120c75760a0809412610b6357848101838110898211176120c7578f948b946120a88f938a8e61208f8e612099948152825187526120848c8401611eff565b898b01528201611f13565b8689015201611eff565b9360c094858701528d01611f13565b8785015283528a01518483015289015187820152815201950194611fea565b60246000634e487b7160e01b81526041600452fd5b6097546001600160a01b031633036120f057565b606460405162461bcd60e51b815260206004820152602060248201527f4f776e61626c653a2063616c6c6572206973206e6f7420746865206f776e65726044820152fd5b1561213b57565b60405162461bcd60e51b815260206004820152601860248201527f4552433732313a20696e76616c696420746f6b656e20494400000000000000006044820152606490fd5b6000908152606760205260409020546001600160a01b03166121a3811515612134565b90565b6000818152606760205260409020546121c9906001600160a01b03161515612134565b6000908152606960205260409020546001600160a01b031690565b156121eb57565b60405162461bcd60e51b815260206004820152602d60248201527f4552433732313a2063616c6c6572206973206e6f7420746f6b656e206f776e6560448201526c1c881bdc88185c1c1c9bdd9959609a1b6064820152608490fd5b60809060208152603260208201527f4552433732313a207472616e7366657220746f206e6f6e20455243373231526560408201527131b2b4bb32b91034b6b83632b6b2b73a32b960711b60608201520190565b156122a057565b60405162461bcd60e51b8152806122b960048201612246565b0390fd5b906001600160a01b0380806122d184612180565b16931691838314938415612304575b5083156122ee575b50505090565b6122fa919293506121a6565b16143880806122e8565b909350600052606a60205260406000208260005260205260ff6040600020541692386122e0565b1561233257565b60405162461bcd60e51b815260206004820152601c60248201527f4552433732313a20746f6b656e20616c7265616479206d696e746564000000006044820152606490fd5b1561237e57565b60405162461bcd60e51b815260206004820152602560248201527f4552433732313a207472616e736665722066726f6d20696e636f72726563742060448201526437bbb732b960d91b6064820152608490fd5b929190926123de82612180565b6001600160a01b03918216906123f79083168214612377565b816000951680156125cc57612417828461241087612180565b1614612377565b8386526020606981526040938488206001600160601b0360a01b90818154169055848952606883528589206000198154019055838952858920600181540190558689526067835283868a209182541617905584518684867fddf252ad1be2c89b69c2b068fc378daa952ba7f163c4a11628f55a4df523b3ef8c80a4888260cf5416803b1561050057606483838193630db7e5b360e21b83528a60048401528960248401528c60448401525af180156125c2576125af575b5083612506575b507fb94c2b508c30ec59449050da688941db7850240a61f359e7f4cf51f60a0037c2949596508351928352820152a2565b806024838a9360cf541688519283809263735e935160e11b82528c60048301525afa9081156125a5578391612588575b5016803b1561050057819060248751809481936313af403560e01b83528860048401525af1801561257e57156124d5576125708891611e14565b61257a57866124d5565b8680fd5b85513d8a823e3d90fd5b61259f9150843d86116105695761055b8183611e60565b38612536565b87513d85823e3d90fd5b6125bb90989198611e14565b96386124ce565b86513d8b823e3d90fd5b60405162461bcd60e51b8152602060048201526024808201527f4552433732313a207472616e7366657220746f20746865207a65726f206164646044820152637265737360e01b6064820152608490fd5b9192600092909190803b1561272f5761266b946040518092630a85bd0160e11b9485835233600484015287602484015260448301526080606483015281878160209a8b966084830190611cae565b03926001600160a01b03165af18491816126ef575b506126de575050503d6000146126d6573d61269a81611e82565b906126a86040519283611e60565b81528091833d92013e5b805191826126d35760405162461bcd60e51b8152806122b960048201612246565b01fd5b5060606126b2565b6001600160e01b0319161492509050565b9091508581813d8311612728575b6127078183611e60565b810103126106b257516001600160e01b0319811681036106b2579038612680565b503d6126fd565b5050915050600190565b9293600093909291803b156127b9579484916127939660405180948193630a85bd0160e11b9788845233600485015260018060a01b0380921660248501526044840152608060648401528260209b8c976084830190611cae565b0393165af18491816126ef57506126de575050503d6000146126d6573d61269a81611e82565b50505091505060019056fea2646970667358221220a006890aec95d2e2f2c2388f072a684b79d7ad2a2ebc237688b3d7c115f8a03164736f6c63430008110033",
    "linkReferences": {}
  },
  "methodIdentifiers": {
    "HUNDRED_PC()": "20fdf070",
    "approve(address,uint256)": "095ea7b3",
    "balanceOf(address)": "70a08231",
    "burnFeeRate()": "509bf42a",
    "collateralRate()": "58a6be1c",
    "euros()": "70bc680c",
    "getApproved(uint256)": "081812fc",
    "initialize()": "8129fc1c",
    "isApprovedForAll(address,address)": "e985e9c5",
    "liquidateVault(uint256)": "90cf0bba",
    "liquidator()": "4046ebae",
    "mint()": "1249c58b",
    "mintFeeRate()": "18819a31",
    "name()": "06fdde03",
    "nftMetadataGenerator()": "c44cf63a",
    "owner()": "8da5cb5b",
    "ownerOf(uint256)": "6352211e",
    "protocol()": "8ce74426",
    "renounceOwnership()": "715018a6",
    "safeTransferFrom(address,address,uint256)": "42842e0e",
    "safeTransferFrom(address,address,uint256,bytes)": "b88d4fde",
    "setApprovalForAll(address,bool)": "a22cb465",
    "setBurnFeeRate(uint256)": "5dfd8b53",
    "setLiquidatorAddress(address)": "bb09e447",
    "setMintFeeRate(uint256)": "3143ab57",
    "setNFTMetadataGenerator(address)": "9276b109",
    "setProtocolAddress(address)": "58e47004",
    "setSmartVaultDeployer(address)": "206c186d",
    "setSwapFeeRate(uint256)": "d1154ff0",
    "setSwapRouter2(address)": "ca807474",
    "setWethAddress(address)": "a96e2423",
    "smartVaultDeployer()": "21fbbf2f",
    "supportsInterface(bytes4)": "01ffc9a7",
    "swapFeeRate()": "3a04801d",
    "swapRouter()": "c31c9c07",
    "swapRouter2()": "cb351188",
    "symbol()": "95d89b41",
    "tokenManager()": "2a709b14",
    "tokenURI(uint256)": "c87b56dd",
    "totalSupply()": "18160ddd",
    "transferFrom(address,address,uint256)": "23b872dd",
    "transferOwnership(address)": "f2fde38b",
    "vaults()": "8220ef5b",
    "weth()": "3fc8cef3"
  },
  "id": 3
}