{
  "abi": [
    {
      "inputs": [],
      "stateMutability": "nonpayable",
      "type": "constructor"
    },
    {
      "anonymous": false,
      "inputs": [
        {
          "indexed": true,
          "internalType": "address",
          "name": "owner",
          "type": "address"
        },
        {
          "indexed": true,
          "internalType": "address",
          "name": "spender",
          "type": "address"
        },
        {
          "indexed": false,
          "internalType": "uint256",
          "name": "value",
          "type": "uint256"
        }
      ],
      "name": "Approval",
      "type": "event"
    },
    {
      "anonymous": false,
      "inputs": [
        {
          "indexed": true,
          "internalType": "bytes32",
          "name": "role",
          "type": "bytes32"
        },
        {
          "indexed": true,
          "internalType": "bytes32",
          "name": "previousAdminRole",
          "type": "bytes32"
        },
        {
          "indexed": true,
          "internalType": "bytes32",
          "name": "newAdminRole",
          "type": "bytes32"
        }
      ],
      "name": "RoleAdminChanged",
      "type": "event"
    },
    {
      "anonymous": false,
      "inputs": [
        {
          "indexed": true,
          "internalType": "bytes32",
          "name": "role",
          "type": "bytes32"
        },
        {
          "indexed": true,
          "internalType": "address",
          "name": "account",
          "type": "address"
        },
        {
          "indexed": true,
          "internalType": "address",
          "name": "sender",
          "type": "address"
        }
      ],
      "name": "RoleGranted",
      "type": "event"
    },
    {
      "anonymous": false,
      "inputs": [
        {
          "indexed": true,
          "internalType": "bytes32",
          "name": "role",
          "type": "bytes32"
        },
        {
          "indexed": true,
          "internalType": "address",
          "name": "account",
          "type": "address"
        },
        {
          "indexed": true,
          "internalType": "address",
          "name": "sender",
          "type": "address"
        }
      ],
      "name": "RoleRevoked",
      "type": "event"
    },
    {
      "anonymous": false,
      "inputs": [
        {
          "indexed": true,
          "internalType": "address",
          "name": "from",
          "type": "address"
        },
        {
          "indexed": true,
          "internalType": "address",
          "name": "to",
          "type": "address"
        },
        {
          "indexed": false,
          "internalType": "uint256",
          "name": "value",
          "type": "uint256"
        }
      ],
      "name": "Transfer",
      "type": "event"
    },
    {
      "inputs": [],
      "name": "BURNER_ROLE",
      "outputs": [
        {
          "internalType": "bytes32",
          "name": "",
          "type": "bytes32"
        }
      ],
      "stateMutability": "view",
      "type": "function"
    },
    {
      "inputs": [],
      "name": "DEFAULT_ADMIN_ROLE",
      "outputs": [
        {
          "internalType": "bytes32",
          "name": "",
          "type": "bytes32"
        }
      ],
      "stateMutability": "view",
      "type": "function"
    },
    {
      "inputs": [],
      "name": "MINTER_ROLE",
      "outputs": [
        {
          "internalType": "bytes32",
          "name": "",
          "type": "bytes32"
        }
      ],
      "stateMutability": "view",
      "type": "function"
    },
    {
      "inputs": [
        {
          "internalType": "address",
          "name": "owner",
          "type": "address"
        },
        {
          "internalType": "address",
          "name": "spender",
          "type": "address"
        }
      ],
      "name": "allowance",
      "outputs": [
        {
          "internalType": "uint256",
          "name": "",
          "type": "uint256"
        }
      ],
      "stateMutability": "view",
      "type": "function"
    },
    {
      "inputs": [
        {
          "internalType": "address",
          "name": "spender",
          "type": "address"
        },
        {
          "internalType": "uint256",
          "name": "amount",
          "type": "uint256"
        }
      ],
      "name": "approve",
      "outputs": [
        {
          "internalType": "bool",
          "name": "",
          "type": "bool"
        }
      ],
      "stateMutability": "nonpayable",
      "type": "function"
    },
    {
      "inputs": [
        {
          "internalType": "address",
          "name": "account",
          "type": "address"
        }
      ],
      "name": "balanceOf",
      "outputs": [
        {
          "internalType": "uint256",
          "name": "",
          "type": "uint256"
        }
      ],
      "stateMutability": "view",
      "type": "function"
    },
    {
      "inputs": [
        {
          "internalType": "address",
          "name": "from",
          "type": "address"
        },
        {
          "internalType": "uint256",
          "name": "amount",
          "type": "uint256"
        }
      ],
      "name": "burn",
      "outputs": [],
      "stateMutability": "nonpayable",
      "type": "function"
    },
    {
      "inputs": [],
      "name": "decimals",
      "outputs": [
        {
          "internalType": "uint8",
          "name": "",
          "type": "uint8"
        }
      ],
      "stateMutability": "view",
      "type": "function"
    },
    {
      "inputs": [
        {
          "internalType": "address",
          "name": "spender",
          "type": "address"
        },
        {
          "internalType": "uint256",
          "name": "subtractedValue",
          "type": "uint256"
        }
      ],
      "name": "decreaseAllowance",
      "outputs": [
        {
          "internalType": "bool",
          "name": "",
          "type": "bool"
        }
      ],
      "stateMutability": "nonpayable",
      "type": "function"
    },
    {
      "inputs": [
        {
          "internalType": "bytes32",
          "name": "role",
          "type": "bytes32"
        }
      ],
      "name": "getRoleAdmin",
      "outputs": [
        {
          "internalType": "bytes32",
          "name": "",
          "type": "bytes32"
        }
      ],
      "stateMutability": "view",
      "type": "function"
    },
    {
      "inputs": [
        {
          "internalType": "bytes32",
          "name": "role",
          "type": "bytes32"
        },
        {
          "internalType": "address",
          "name": "account",
          "type": "address"
        }
      ],
      "name": "grantRole",
      "outputs": [],
      "stateMutability": "nonpayable",
      "type": "function"
    },
    {
      "inputs": [
        {
          "internalType": "bytes32",
          "name": "role",
          "type": "bytes32"
        },
        {
          "internalType": "address",
          "name": "account",
          "type": "address"
        }
      ],
      "name": "hasRole",
      "outputs": [
        {
          "internalType": "bool",
          "name": "",
          "type": "bool"
        }
      ],
      "stateMutability": "view",
      "type": "function"
    },
    {
      "inputs": [
        {
          "internalType": "address",
          "name": "spender",
          "type": "address"
        },
        {
          "internalType": "uint256",
          "name": "addedValue",
          "type": "uint256"
        }
      ],
      "name": "increaseAllowance",
      "outputs": [
        {
          "internalType": "bool",
          "name": "",
          "type": "bool"
        }
      ],
      "stateMutability": "nonpayable",
      "type": "function"
    },
    {
      "inputs": [
        {
          "internalType": "address",
          "name": "to",
          "type": "address"
        },
        {
          "internalType": "uint256",
          "name": "amount",
          "type": "uint256"
        }
      ],
      "name": "mint",
      "outputs": [],
      "stateMutability": "nonpayable",
      "type": "function"
    },
    {
      "inputs": [],
      "name": "name",
      "outputs": [
        {
          "internalType": "string",
          "name": "",
          "type": "string"
        }
      ],
      "stateMutability": "view",
      "type": "function"
    },
    {
      "inputs": [
        {
          "internalType": "bytes32",
          "name": "role",
          "type": "bytes32"
        },
        {
          "internalType": "address",
          "name": "account",
          "type": "address"
        }
      ],
      "name": "renounceRole",
      "outputs": [],
      "stateMutability": "nonpayable",
      "type": "function"
    },
    {
      "inputs": [
        {
          "internalType": "bytes32",
          "name": "role",
          "type": "bytes32"
        },
        {
          "internalType": "address",
          "name": "account",
          "type": "address"
        }
      ],
      "name": "revokeRole",
      "outputs": [],
      "stateMutability": "nonpayable",
      "type": "function"
    },
    {
      "inputs": [
        {
          "internalType": "bytes4",
          "name": "interfaceId",
          "type": "bytes4"
        }
      ],
      "name": "supportsInterface",
      "outputs": [
        {
          "internalType": "bool",
          "name": "",
          "type": "bool"
        }
      ],
      "stateMutability": "view",
      "type": "function"
    },
    {
      "inputs": [],
      "name": "symbol",
      "outputs": [
        {
          "internalType": "string",
          "name": "",
          "type": "string"
        }
      ],
      "stateMutability": "view",
      "type": "function"
    },
    {
      "inputs": [],
      "name": "totalSupply",
      "outputs": [
        {
          "internalType": "uint256",
          "name": "",
          "type": "uint256"
        }
      ],
      "stateMutability": "view",
      "type": "function"
    },
    {
      "inputs": [
        {
          "internalType": "address",
          "name": "to",
          "type": "address"
        },
        {
          "internalType": "uint256",
          "name": "amount",
          "type": "uint256"
        }
      ],
      "name": "transfer",
      "outputs": [
        {
          "internalType": "bool",
          "name": "",
          "type": "bool"
        }
      ],
      "stateMutability": "nonpayable",
      "type": "function"
    },
    {
      "inputs": [
        {
          "internalType": "address",
          "name": "from",
          "type": "address"
        },
        {
          "internalType": "address",
          "name": "to",
          "type": "address"
        },
        {
          "internalType": "uint256",
          "name": "amount",
          "type": "uint256"
        }
      ],
      "name": "transferFrom",
      "outputs": [
        {
          "internalType": "bool",
          "name": "",
          "type": "bool"
        }
      ],
      "stateMutability": "nonpayable",
      "type": "function"
    }
  ],
  "bytecode": {
    "object": "0x60803462000480576040906001600160401b0390808301828111828210176200038257835260118152602070546865205374616e64617264204555524f60781b8183015283518481018181108582111762000382578552600593848252644555524f7360d81b83830152835181811162000382576003908154906001968783811c9316801562000475575b878410146200045f578190601f938481116200040b575b508790848311600114620003a45760009262000398575b505060001982851b1c191690871b1782555b8351928311620003825760049384548781811c9116801562000377575b87821014620003625790818386959493116200030a575b50869184116001146200029f5760009362000293575b505082861b92600019911b1c19161790555b600080528281528360002033600052815260ff8460002054161562000257575b7f9f2df0fed2c77648de5860a4cc508cd0818c85b8b8a1ab4ceeef8d981c8956a6806000528382528460002033600052825260ff8560002054161562000219575b507f3c11d16cbaffd01df69ce1c404f6340ee057498f5f00246190ea54220576a84892836000528082528460002033600052825260ff85600020541615620001d9575b84516114c19081620004868239f35b83600052815283600020903360005252826000209060ff198254161790553390339060008051602062001947833981519152600080a438808080620001ca565b8060005283825284600020336000528252846000208360ff198254161790553390339060008051602062001947833981519152600080a43862000187565b6000805282815283600020336000528152836000208260ff1982541617905533336000600080516020620019478339815191528180a462000146565b01519150388062000114565b9190879450601f1984169286600052876000209360005b89828210620002f35750508511620002d8575b50505050811b01905562000126565b01519060f884600019921b161c1916905538808080620002c9565b8385015187558b98909601959384019301620002b6565b90919293508560005286600020838087018b1c82019289881062000358575b918a91889796959493018c1c01915b82811062000348575050620000fe565b600081558796508a910162000338565b9250819262000329565b602286634e487b7160e01b6000525260246000fd5b90607f1690620000e7565b634e487b7160e01b600052604160045260246000fd5b015190503880620000b8565b90899350601f1983169186600052896000209260005b8b828210620003f45750508411620003db575b505050811b018255620000ca565b015160001983871b60f8161c19169055388080620003cd565b8385015186558d97909501949384019301620003ba565b9091508460005287600020848085018c1c8201928a861062000455575b918b9186959493018d1c01915b82811062000445575050620000a1565b600081558594508b910162000435565b9250819262000428565b634e487b7160e01b600052602260045260246000fd5b92607f16926200008a565b600080fdfe608060408181526004918236101561001657600080fd5b600092833560e01c91826301ffc9a714610d785750816306fdde0314610c83578163095ea7b314610c5957816318160ddd14610c3a57816323b872dd14610b70578163248a9ca314610b45578163282c51f314610b0a5781632f2ff15d14610a5d578163313ce56714610a4157816336568abe146109af578163395093511461095f57816340c10f191461077757816370a082311461074057816391d14854146106f957816395d89b41146105f65781639dc29fac146102d4578163a217fddf146102b9578163a457c2d714610211578163a9059cbb146101e0578163d5391393146101a5578163d547741f14610162575063dd62ed3e1461011757600080fd5b3461015e578060031936011261015e5780602092610133610e1a565b61013b610e35565b6001600160a01b0391821683526001865283832091168252845220549051908152f35b5080fd5b919050346101a157806003193601126101a15761019e91356101996001610187610e35565b93838752600560205286200154610e4b565b61104c565b80f35b8280fd5b50503461015e578160031936011261015e57602090517f9f2df0fed2c77648de5860a4cc508cd0818c85b8b8a1ab4ceeef8d981c8956a68152f35b50503461015e578060031936011261015e5760209061020a610200610e1a565b60243590336110e5565b5160018152f35b905082346102b657826003193601126102b65761022c610e1a565b918360243592338152600160205281812060018060a01b03861682526020522054908282106102655760208561020a8585038733611253565b608490602086519162461bcd60e51b8352820152602560248201527f45524332303a2064656372656173656420616c6c6f77616e63652062656c6f77604482015264207a65726f60d81b6064820152fd5b80fd5b50503461015e578160031936011261015e5751908152602090f35b8391503461015e578260031936011261015e576102ef610e1a565b926024908135917f3c11d16cbaffd01df69ce1c404f6340ee057498f5f00246190ea54220576a8489586865260209660058852838720338852885260ff84882054161561043457506001600160a01b03169384156103ea57848652858752828620549184831061039d57505091849591817fddf252ad1be2c89b69c2b068fc378daa952ba7f163c4a11628f55a4df523b3ef948688528785520381872055816002540360025551908152a380f35b835162461bcd60e51b81529182018890526022908201527f45524332303a206275726e20616d6f756e7420657863656564732062616c616e604482015261636560f01b6064820152608490fd5b60216084928885519362461bcd60e51b85528401528201527f45524332303a206275726e2066726f6d20746865207a65726f206164647265736044820152607360f81b6064820152fd5b8588888587946104433361137c565b909186519261045184610ff8565b604284528584019460603687378451156105e457603086538451906001918210156105d25790607860218701536041915b818311610569575050506105285750610524938693610510936105016048946104d89a519a8576020b1b1b2b9b9a1b7b73a3937b61d1030b1b1b7bab73a1604d1b8d978801528251928391603789019101610dcb565b8401917001034b99036b4b9b9b4b733903937b6329607d1b603784015251809386840190610dcb565b0103602881018752018561102a565b5162461bcd60e51b81529283928301610dee565b0390fd5b9250505081606494519362461bcd60e51b85528401528201527f537472696e67733a20686578206c656e67746820696e73756666696369656e746044820152fd5b909192600f811660108110156105c0576f181899199a1a9b1b9c1cb0b131b232b360811b901a6105998589611355565b53891c9280156105ae57600019019190610482565b634e487b7160e01b825260118a528482fd5b634e487b7160e01b835260328b528583fd5b634e487b7160e01b8152603289528390fd5b634e487b7160e01b8152603288529050fd5b83833461015e578160031936011261015e57805191809380549160019083821c928285169485156106ef575b60209586861081146106dc578589529081156106b85750600114610660575b61065c8787610652828c038361102a565b5191829182610dee565b0390f35b81529295507f8a35acfbc15ff81a39ae7d344fd709f28e8600b4aa8c65c6b64bfe7fe36bd19b5b8284106106a5575050508261065c9461065292820101948680610641565b8054868501880152928601928101610687565b60ff19168887015250505050151560051b83010192506106528261065c8680610641565b634e487b7160e01b845260228352602484fd5b93607f1693610622565b9050346101a157816003193601126101a1578160209360ff9261071a610e35565b90358252600586528282206001600160a01b039091168252855220549151911615158152f35b50503461015e57602036600319011261015e5760209181906001600160a01b03610768610e1a565b16815280845220549051908152f35b9050346101a157816003193601126101a157610791610e1a565b906024928335917f9f2df0fed2c77648de5860a4cc508cd0818c85b8b8a1ab4ceeef8d981c8956a69384875260209460058652838820338952865260ff84892054161561087657506001600160a01b03169485156108365750509181859361081c7fddf252ad1be2c89b69c2b068fc378daa952ba7f163c4a11628f55a4df523b3ef946002546110c2565b60025585855284835280852082815401905551908152a380f35b601f9085606494519362461bcd60e51b85528401528201527f45524332303a206d696e7420746f20746865207a65726f2061646472657373006044820152fd5b8591508688916108853361137c565b909186519261089384610ff8565b604284528584019460603687378451156105e457603086538451906001918210156105d25790607860218701536041915b81831161091a575050506105285750610524938693610510936105016048946104d89a519a8576020b1b1b2b9b9a1b7b73a3937b61d1030b1b1b7bab73a1604d1b8d978801528251928391603789019101610dcb565b909192600f811660108110156105c0576f181899199a1a9b1b9c1cb0b131b232b360811b901a61094a8589611355565b53891c9280156105ae576000190191906108c4565b50503461015e578060031936011261015e5761020a6020926109a8610982610e1a565b338352600186528483206001600160a01b038216845286529184902054602435906110c2565b9033611253565b8391503461015e578260031936011261015e576109ca610e35565b90336001600160a01b038316036109e6579061019e913561104c565b608490602085519162461bcd60e51b8352820152602f60248201527f416363657373436f6e74726f6c3a2063616e206f6e6c792072656e6f756e636560448201526e103937b632b9903337b91039b2b63360891b6064820152fd5b50503461015e578160031936011261015e576020905160128152f35b9050346101a157816003193601126101a1573590610a79610e35565b908284526005602052610a9160018286200154610e4b565b828452600560209081528185206001600160a01b039093168086529290528084205460ff1615610abf578380f35b82845260056020528084208285526020528320600160ff1982541617905533917f2f8788117e7eff1d82e926ec794901d17c78024a50270940304540a733656f0d8480a43880808380f35b50503461015e578160031936011261015e57602090517f3c11d16cbaffd01df69ce1c404f6340ee057498f5f00246190ea54220576a8488152f35b9050346101a15760203660031901126101a15781602093600192358152600585522001549051908152f35b8391503461015e57606036600319011261015e57610b8c610e1a565b610b94610e35565b91846044359460018060a01b038416815260016020528181203382526020522054906000198203610bce575b60208661020a8787876110e5565b848210610bf75750918391610bec6020969561020a95033383611253565b919394819350610bc0565b606490602087519162461bcd60e51b8352820152601d60248201527f45524332303a20696e73756666696369656e7420616c6c6f77616e63650000006044820152fd5b50503461015e578160031936011261015e576020906002549051908152f35b50503461015e578060031936011261015e5760209061020a610c79610e1a565b6024359033611253565b919050346101a157826003193601126101a157805191836003549060019082821c928281168015610d6e575b6020958686108214610d5b5750848852908115610d395750600114610ce0575b61065c8686610652828b038361102a565b929550600383527fc2575a0e9e593c00f959f8c92f12db2869c3395a3b0502d05e2516446f71f85b5b828410610d26575050508261065c94610652928201019438610ccf565b8054868501880152928601928101610d09565b60ff191687860152505050151560051b83010192506106528261065c38610ccf565b634e487b7160e01b845260229052602483fd5b93607f1693610caf565b8491346101a15760203660031901126101a1573563ffffffff60e01b81168091036101a15760209250637965db0b60e01b8114908115610dba575b5015158152f35b6301ffc9a760e01b14905083610db3565b60005b838110610dde5750506000910152565b8181015183820152602001610dce565b60409160208252610e0e8151809281602086015260208686019101610dcb565b601f01601f1916010190565b600435906001600160a01b0382168203610e3057565b600080fd5b602435906001600160a01b0382168203610e3057565b600081815260209060058252604092838220338352835260ff848320541615610e745750505050565b610e7d3361137c565b845191610e8983610ff8565b60428352848301936060368637835115610fe45760308553835190600191821015610fe45790607860218601536041915b818311610f7657505050610f34576104d8938593610f1e93610f0f6048946105249951988576020b1b1b2b9b9a1b7b73a3937b61d1030b1b1b7bab73a1604d1b8b978801528251928391603789019101610dcb565b0103602881018552018361102a565b5162461bcd60e51b815291829160048301610dee565b60648486519062461bcd60e51b825280600483015260248201527f537472696e67733a20686578206c656e67746820696e73756666696369656e746044820152fd5b909192600f81166010811015610fd0576f181899199a1a9b1b9c1cb0b131b232b360811b901a610fa68588611355565b5360041c928015610fbc57600019019190610eba565b634e487b7160e01b82526011600452602482fd5b634e487b7160e01b83526032600452602483fd5b634e487b7160e01b81526032600452602490fd5b6080810190811067ffffffffffffffff82111761101457604052565b634e487b7160e01b600052604160045260246000fd5b90601f8019910116810190811067ffffffffffffffff82111761101457604052565b906000918083526005602052604083209160018060a01b03169182845260205260ff60408420541661107d57505050565b8083526005602052604083208284526020526040832060ff1981541690557ff6391f5c32d9c69d2a47ea670b442974b53935d1edc7fd64eb21e047a839171b339380a4565b919082018092116110cf57565b634e487b7160e01b600052601160045260246000fd5b6001600160a01b0390811691821561120057169182156111af5760008281528060205260408120549180831061115b57604082827fddf252ad1be2c89b69c2b068fc378daa952ba7f163c4a11628f55a4df523b3ef958760209652828652038282205586815220818154019055604051908152a3565b60405162461bcd60e51b815260206004820152602660248201527f45524332303a207472616e7366657220616d6f756e7420657863656564732062604482015265616c616e636560d01b6064820152608490fd5b60405162461bcd60e51b815260206004820152602360248201527f45524332303a207472616e7366657220746f20746865207a65726f206164647260448201526265737360e81b6064820152608490fd5b60405162461bcd60e51b815260206004820152602560248201527f45524332303a207472616e736665722066726f6d20746865207a65726f206164604482015264647265737360d81b6064820152608490fd5b6001600160a01b0390811691821561130457169182156112b45760207f8c5be1e5ebec7d5bd14f71427d1e84f3dd0314c0f7b2291e5b200ac8c7c3b925918360005260018252604060002085600052825280604060002055604051908152a3565b60405162461bcd60e51b815260206004820152602260248201527f45524332303a20617070726f766520746f20746865207a65726f206164647265604482015261737360f01b6064820152608490fd5b60405162461bcd60e51b8152602060048201526024808201527f45524332303a20617070726f76652066726f6d20746865207a65726f206164646044820152637265737360e01b6064820152608490fd5b908151811015611366570160200190565b634e487b7160e01b600052603260045260246000fd5b604051906060820182811067ffffffffffffffff82111761101457604052602a82526020820160403682378251156113665760309053815160019081101561136657607860218401536029905b80821161141d5750506113d95790565b606460405162461bcd60e51b815260206004820152602060248201527f537472696e67733a20686578206c656e67746820696e73756666696369656e746044820152fd5b9091600f81166010811015611476576f181899199a1a9b1b9c1cb0b131b232b360811b901a61144c8486611355565b5360041c9180156114615760001901906113c9565b60246000634e487b7160e01b81526011600452fd5b60246000634e487b7160e01b81526032600452fdfea26469706673582212206d8c501cfd936e4ae565bd1c7dede2ae2493257f784a6f65ae426b0be8c7350664736f6c634300081100332f8788117e7eff1d82e926ec794901d17c78024a50270940304540a733656f0d",
    "linkReferences": {}
  },
  "methodIdentifiers": {
    "BURNER_ROLE()": "282c51f3",
    "DEFAULT_ADMIN_ROLE()": "a217fddf",
    "MINTER_ROLE()": "d5391393",
    "allowance(address,address)": "dd62ed3e",
    "approve(address,uint256)": "095ea7b3",
    "balanceOf(address)": "70a08231",
    "burn(address,uint256)": "9dc29fac",
    "decimals()": "313ce567",
    "decreaseAllowance(address,uint256)": "a457c2d7",
    "getRoleAdmin(bytes32)": "248a9ca3",
    "grantRole(bytes32,address)": "2f2ff15d",
    "hasRole(bytes32,address)": "91d14854",
    "increaseAllowance(address,uint256)": "39509351",
    "mint(address,uint256)": "40c10f19",
    "name()": "06fdde03",
    "renounceRole(bytes32,address)": "36568abe",
    "revokeRole(bytes32,address)": "d547741f",
    "supportsInterface(bytes4)": "01ffc9a7",
    "symbol()": "95d89b41",
    "totalSupply()": "18160ddd",
    "transfer(address,uint256)": "a9059cbb",
    "transferFrom(address,address,uint256)": "23b872dd"
  },
  "id": 79
}